{
	"contracts/functbehaviours.sol": {
		"Function": {
			"abi": [
				{
					"inputs": [],
					"name": "Assignvalues",
					"outputs": [
						{
							"internalType": "uint256",
							"name": "x",
							"type": "uint256"
						},
						{
							"internalType": "bool",
							"name": "y",
							"type": "bool"
						},
						{
							"internalType": "uint256",
							"name": "z",
							"type": "uint256"
						}
					],
					"stateMutability": "pure",
					"type": "function"
				},
				{
					"inputs": [],
					"name": "destructuring",
					"outputs": [
						{
							"internalType": "uint256",
							"name": "",
							"type": "uint256"
						},
						{
							"internalType": "bool",
							"name": "",
							"type": "bool"
						},
						{
							"internalType": "uint256",
							"name": "",
							"type": "uint256"
						},
						{
							"internalType": "uint256",
							"name": "",
							"type": "uint256"
						},
						{
							"internalType": "uint256",
							"name": "",
							"type": "uint256"
						}
					],
					"stateMutability": "pure",
					"type": "function"
				},
				{
					"inputs": [],
					"name": "returnmultiplevalues",
					"outputs": [
						{
							"internalType": "uint256",
							"name": "",
							"type": "uint256"
						},
						{
							"internalType": "bool",
							"name": "",
							"type": "bool"
						},
						{
							"internalType": "uint256",
							"name": "",
							"type": "uint256"
						}
					],
					"stateMutability": "pure",
					"type": "function"
				},
				{
					"inputs": [],
					"name": "variableNames",
					"outputs": [
						{
							"internalType": "uint256",
							"name": "x",
							"type": "uint256"
						},
						{
							"internalType": "bool",
							"name": "y",
							"type": "bool"
						},
						{
							"internalType": "uint256",
							"name": "z",
							"type": "uint256"
						}
					],
					"stateMutability": "pure",
					"type": "function"
				}
			],
			"devdoc": {
				"kind": "dev",
				"methods": {},
				"version": 1
			},
			"evm": {
				"assembly": "    /* \"contracts/functbehaviours.sol\":57:1017  contract Function {... */\n  mstore(0x40, 0x80)\n  callvalue\n  dup1\n  iszero\n  tag_1\n  jumpi\n  0x00\n  dup1\n  revert\ntag_1:\n  pop\n  dataSize(sub_0)\n  dup1\n  dataOffset(sub_0)\n  0x00\n  codecopy\n  0x00\n  return\nstop\n\nsub_0: assembly {\n        /* \"contracts/functbehaviours.sol\":57:1017  contract Function {... */\n      mstore(0x40, 0x80)\n      callvalue\n      dup1\n      iszero\n      tag_1\n      jumpi\n      0x00\n      dup1\n      revert\n    tag_1:\n      pop\n      jumpi(tag_2, lt(calldatasize, 0x04))\n      shr(0xe0, calldataload(0x00))\n      dup1\n      0x2951f2b7\n      eq\n      tag_3\n      jumpi\n      dup1\n      0x7297237f\n      eq\n      tag_4\n      jumpi\n      dup1\n      0xd23872a4\n      eq\n      tag_5\n      jumpi\n      dup1\n      0xee503b47\n      eq\n      tag_6\n      jumpi\n    tag_2:\n      0x00\n      dup1\n      revert\n        /* \"contracts/functbehaviours.sol\":372:732  function Assignvalues()public pure returns (uint256 x,bool y,uint256 z)  ... */\n    tag_3:\n      tag_7\n      tag_8\n      jump\t// in\n    tag_7:\n      mload(0x40)\n      tag_9\n      swap4\n      swap3\n      swap2\n      swap1\n      tag_10\n      jump\t// in\n    tag_9:\n      mload(0x40)\n      dup1\n      swap2\n      sub\n      swap1\n      return\n        /* \"contracts/functbehaviours.sol\":738:1015  function destructuring() public pure returns(uint,bool,uint,uint,uint)... */\n    tag_4:\n      tag_11\n      tag_12\n      jump\t// in\n    tag_11:\n      mload(0x40)\n      tag_13\n      swap6\n      swap5\n      swap4\n      swap3\n      swap2\n      swap1\n      tag_14\n      jump\t// in\n    tag_13:\n      mload(0x40)\n      dup1\n      swap2\n      sub\n      swap1\n      return\n        /* \"contracts/functbehaviours.sol\":202:365  function variableNames()public pure returns (uint256 x,bool y,uint256 z)  //here we can give the variable name directly.... */\n    tag_5:\n      tag_15\n      tag_16\n      jump\t// in\n    tag_15:\n      mload(0x40)\n      tag_17\n      swap4\n      swap3\n      swap2\n      swap1\n      tag_10\n      jump\t// in\n    tag_17:\n      mload(0x40)\n      dup1\n      swap2\n      sub\n      swap1\n      return\n        /* \"contracts/functbehaviours.sol\":81:195  function returnmultiplevalues()public pure returns (uint256,bool,uint256)... */\n    tag_6:\n      tag_18\n      tag_19\n      jump\t// in\n    tag_18:\n      mload(0x40)\n      tag_20\n      swap4\n      swap3\n      swap2\n      swap1\n      tag_10\n      jump\t// in\n    tag_20:\n      mload(0x40)\n      dup1\n      swap2\n      sub\n      swap1\n      return\n        /* \"contracts/functbehaviours.sol\":372:732  function Assignvalues()public pure returns (uint256 x,bool y,uint256 z)  ... */\n    tag_8:\n        /* \"contracts/functbehaviours.sol\":416:425  uint256 x */\n      0x00\n        /* \"contracts/functbehaviours.sol\":426:432  bool y */\n      dup1\n        /* \"contracts/functbehaviours.sol\":433:442  uint256 z */\n      0x00\n        /* \"contracts/functbehaviours.sol\":464:466  45 */\n      0x2d\n        /* \"contracts/functbehaviours.sol\":460:466  x = 45 */\n      swap3\n      pop\n        /* \"contracts/functbehaviours.sol\":480:484  true */\n      0x01\n        /* \"contracts/functbehaviours.sol\":476:484  y = true */\n      swap2\n      pop\n        /* \"contracts/functbehaviours.sol\":498:500  54 */\n      0x36\n        /* \"contracts/functbehaviours.sol\":494:500  z = 54 */\n      swap1\n      pop\n        /* \"contracts/functbehaviours.sol\":372:732  function Assignvalues()public pure returns (uint256 x,bool y,uint256 z)  ... */\n      swap1\n      swap2\n      swap3\n      jump\t// out\n        /* \"contracts/functbehaviours.sol\":738:1015  function destructuring() public pure returns(uint,bool,uint,uint,uint)... */\n    tag_12:\n        /* \"contracts/functbehaviours.sol\":783:787  uint */\n      0x00\n        /* \"contracts/functbehaviours.sol\":788:792  bool */\n      dup1\n        /* \"contracts/functbehaviours.sol\":793:797  uint */\n      0x00\n        /* \"contracts/functbehaviours.sol\":798:802  uint */\n      dup1\n        /* \"contracts/functbehaviours.sol\":803:807  uint */\n      0x00\n        /* \"contracts/functbehaviours.sol\":824:830  uint i */\n      dup1\n        /* \"contracts/functbehaviours.sol\":831:837  bool j */\n      0x00\n        /* \"contracts/functbehaviours.sol\":839:845  uint k */\n      dup1\n        /* \"contracts/functbehaviours.sol\":849:871  returnmultiplevalues() */\n      tag_23\n        /* \"contracts/functbehaviours.sol\":849:869  returnmultiplevalues */\n      tag_19\n        /* \"contracts/functbehaviours.sol\":849:871  returnmultiplevalues() */\n      jump\t// in\n    tag_23:\n        /* \"contracts/functbehaviours.sol\":823:871  (uint i,bool j, uint k) = returnmultiplevalues() */\n      swap3\n      pop\n      swap3\n      pop\n      swap3\n      pop\n        /* \"contracts/functbehaviours.sol\":957:963  uint x */\n      0x00\n        /* \"contracts/functbehaviours.sol\":965:971  uint y */\n      dup1\n        /* \"contracts/functbehaviours.sol\":974:976  10 */\n      0x0a\n        /* \"contracts/functbehaviours.sol\":977:979  20 */\n      0x14\n        /* \"contracts/functbehaviours.sol\":956:980  (uint x, uint y)=(10,20) */\n      swap2\n      pop\n      swap2\n      pop\n        /* \"contracts/functbehaviours.sol\":998:999  i */\n      dup5\n        /* \"contracts/functbehaviours.sol\":1000:1001  j */\n      dup5\n        /* \"contracts/functbehaviours.sol\":1002:1003  k */\n      dup5\n        /* \"contracts/functbehaviours.sol\":1004:1005  x */\n      dup5\n        /* \"contracts/functbehaviours.sol\":1006:1007  y */\n      dup5\n        /* \"contracts/functbehaviours.sol\":991:1008  return(i,j,k,x,y) */\n      swap10\n      pop\n      swap10\n      pop\n      swap10\n      pop\n      swap10\n      pop\n      swap10\n      pop\n      pop\n      pop\n      pop\n      pop\n      pop\n        /* \"contracts/functbehaviours.sol\":738:1015  function destructuring() public pure returns(uint,bool,uint,uint,uint)... */\n      swap1\n      swap2\n      swap3\n      swap4\n      swap5\n      jump\t// out\n        /* \"contracts/functbehaviours.sol\":202:365  function variableNames()public pure returns (uint256 x,bool y,uint256 z)  //here we can give the variable name directly.... */\n    tag_16:\n        /* \"contracts/functbehaviours.sol\":247:256  uint256 x */\n      0x00\n        /* \"contracts/functbehaviours.sol\":257:263  bool y */\n      dup1\n        /* \"contracts/functbehaviours.sol\":264:273  uint256 z */\n      0x00\n        /* \"contracts/functbehaviours.sol\":345:347  99 */\n      0x63\n        /* \"contracts/functbehaviours.sol\":349:353  true */\n      0x01\n        /* \"contracts/functbehaviours.sol\":355:357  55 */\n      0x37\n        /* \"contracts/functbehaviours.sol\":337:358  return (99, true, 55) */\n      swap3\n      pop\n      swap3\n      pop\n      swap3\n      pop\n        /* \"contracts/functbehaviours.sol\":202:365  function variableNames()public pure returns (uint256 x,bool y,uint256 z)  //here we can give the variable name directly.... */\n      swap1\n      swap2\n      swap3\n      jump\t// out\n        /* \"contracts/functbehaviours.sol\":81:195  function returnmultiplevalues()public pure returns (uint256,bool,uint256)... */\n    tag_19:\n        /* \"contracts/functbehaviours.sol\":133:140  uint256 */\n      0x00\n        /* \"contracts/functbehaviours.sol\":141:145  bool */\n      dup1\n        /* \"contracts/functbehaviours.sol\":146:153  uint256 */\n      0x00\n        /* \"contracts/functbehaviours.sol\":177:178  5 */\n      0x05\n        /* \"contracts/functbehaviours.sol\":180:184  true */\n      0x01\n        /* \"contracts/functbehaviours.sol\":186:187  5 */\n      0x05\n        /* \"contracts/functbehaviours.sol\":169:188  return (5, true, 5) */\n      swap3\n      pop\n      swap3\n      pop\n      swap3\n      pop\n        /* \"contracts/functbehaviours.sol\":81:195  function returnmultiplevalues()public pure returns (uint256,bool,uint256)... */\n      swap1\n      swap2\n      swap3\n      jump\t// out\n        /* \"#utility.yul\":7:84   */\n    tag_26:\n        /* \"#utility.yul\":44:51   */\n      0x00\n        /* \"#utility.yul\":73:78   */\n      dup2\n        /* \"#utility.yul\":62:78   */\n      swap1\n      pop\n        /* \"#utility.yul\":7:84   */\n      swap2\n      swap1\n      pop\n      jump\t// out\n        /* \"#utility.yul\":90:208   */\n    tag_27:\n        /* \"#utility.yul\":177:201   */\n      tag_33\n        /* \"#utility.yul\":195:200   */\n      dup2\n        /* \"#utility.yul\":177:201   */\n      tag_26\n      jump\t// in\n    tag_33:\n        /* \"#utility.yul\":172:175   */\n      dup3\n        /* \"#utility.yul\":165:202   */\n      mstore\n        /* \"#utility.yul\":90:208   */\n      pop\n      pop\n      jump\t// out\n        /* \"#utility.yul\":214:304   */\n    tag_28:\n        /* \"#utility.yul\":248:255   */\n      0x00\n        /* \"#utility.yul\":291:296   */\n      dup2\n        /* \"#utility.yul\":284:297   */\n      iszero\n        /* \"#utility.yul\":277:298   */\n      iszero\n        /* \"#utility.yul\":266:298   */\n      swap1\n      pop\n        /* \"#utility.yul\":214:304   */\n      swap2\n      swap1\n      pop\n      jump\t// out\n        /* \"#utility.yul\":310:419   */\n    tag_29:\n        /* \"#utility.yul\":391:412   */\n      tag_36\n        /* \"#utility.yul\":406:411   */\n      dup2\n        /* \"#utility.yul\":391:412   */\n      tag_28\n      jump\t// in\n    tag_36:\n        /* \"#utility.yul\":386:389   */\n      dup3\n        /* \"#utility.yul\":379:413   */\n      mstore\n        /* \"#utility.yul\":310:419   */\n      pop\n      pop\n      jump\t// out\n        /* \"#utility.yul\":425:855   */\n    tag_10:\n        /* \"#utility.yul\":568:572   */\n      0x00\n        /* \"#utility.yul\":606:608   */\n      0x60\n        /* \"#utility.yul\":595:604   */\n      dup3\n        /* \"#utility.yul\":591:609   */\n      add\n        /* \"#utility.yul\":583:609   */\n      swap1\n      pop\n        /* \"#utility.yul\":619:690   */\n      tag_38\n        /* \"#utility.yul\":687:688   */\n      0x00\n        /* \"#utility.yul\":676:685   */\n      dup4\n        /* \"#utility.yul\":672:689   */\n      add\n        /* \"#utility.yul\":663:669   */\n      dup7\n        /* \"#utility.yul\":619:690   */\n      tag_27\n      jump\t// in\n    tag_38:\n        /* \"#utility.yul\":700:766   */\n      tag_39\n        /* \"#utility.yul\":762:764   */\n      0x20\n        /* \"#utility.yul\":751:760   */\n      dup4\n        /* \"#utility.yul\":747:765   */\n      add\n        /* \"#utility.yul\":738:744   */\n      dup6\n        /* \"#utility.yul\":700:766   */\n      tag_29\n      jump\t// in\n    tag_39:\n        /* \"#utility.yul\":776:848   */\n      tag_40\n        /* \"#utility.yul\":844:846   */\n      0x40\n        /* \"#utility.yul\":833:842   */\n      dup4\n        /* \"#utility.yul\":829:847   */\n      add\n        /* \"#utility.yul\":820:826   */\n      dup5\n        /* \"#utility.yul\":776:848   */\n      tag_27\n      jump\t// in\n    tag_40:\n        /* \"#utility.yul\":425:855   */\n      swap5\n      swap4\n      pop\n      pop\n      pop\n      pop\n      jump\t// out\n        /* \"#utility.yul\":861:1513   */\n    tag_14:\n        /* \"#utility.yul\":1060:1064   */\n      0x00\n        /* \"#utility.yul\":1098:1101   */\n      0xa0\n        /* \"#utility.yul\":1087:1096   */\n      dup3\n        /* \"#utility.yul\":1083:1102   */\n      add\n        /* \"#utility.yul\":1075:1102   */\n      swap1\n      pop\n        /* \"#utility.yul\":1112:1183   */\n      tag_42\n        /* \"#utility.yul\":1180:1181   */\n      0x00\n        /* \"#utility.yul\":1169:1178   */\n      dup4\n        /* \"#utility.yul\":1165:1182   */\n      add\n        /* \"#utility.yul\":1156:1162   */\n      dup9\n        /* \"#utility.yul\":1112:1183   */\n      tag_27\n      jump\t// in\n    tag_42:\n        /* \"#utility.yul\":1193:1259   */\n      tag_43\n        /* \"#utility.yul\":1255:1257   */\n      0x20\n        /* \"#utility.yul\":1244:1253   */\n      dup4\n        /* \"#utility.yul\":1240:1258   */\n      add\n        /* \"#utility.yul\":1231:1237   */\n      dup8\n        /* \"#utility.yul\":1193:1259   */\n      tag_29\n      jump\t// in\n    tag_43:\n        /* \"#utility.yul\":1269:1341   */\n      tag_44\n        /* \"#utility.yul\":1337:1339   */\n      0x40\n        /* \"#utility.yul\":1326:1335   */\n      dup4\n        /* \"#utility.yul\":1322:1340   */\n      add\n        /* \"#utility.yul\":1313:1319   */\n      dup7\n        /* \"#utility.yul\":1269:1341   */\n      tag_27\n      jump\t// in\n    tag_44:\n        /* \"#utility.yul\":1351:1423   */\n      tag_45\n        /* \"#utility.yul\":1419:1421   */\n      0x60\n        /* \"#utility.yul\":1408:1417   */\n      dup4\n        /* \"#utility.yul\":1404:1422   */\n      add\n        /* \"#utility.yul\":1395:1401   */\n      dup6\n        /* \"#utility.yul\":1351:1423   */\n      tag_27\n      jump\t// in\n    tag_45:\n        /* \"#utility.yul\":1433:1506   */\n      tag_46\n        /* \"#utility.yul\":1501:1504   */\n      0x80\n        /* \"#utility.yul\":1490:1499   */\n      dup4\n        /* \"#utility.yul\":1486:1505   */\n      add\n        /* \"#utility.yul\":1477:1483   */\n      dup5\n        /* \"#utility.yul\":1433:1506   */\n      tag_27\n      jump\t// in\n    tag_46:\n        /* \"#utility.yul\":861:1513   */\n      swap7\n      swap6\n      pop\n      pop\n      pop\n      pop\n      pop\n      pop\n      jump\t// out\n\n    auxdata: 0xa26469706673582212201c193d3f097e9983dcc5e9febd3ba4f482226c7451c82f3f44d75ac2abf2cf6f64736f6c63430008120033\n}\n",
				"bytecode": {
					"linkReferences": {},
					"object": "608060405234801561001057600080fd5b50610249806100206000396000f3fe608060405234801561001057600080fd5b506004361061004c5760003560e01c80632951f2b7146100515780637297237f14610071578063d23872a414610093578063ee503b47146100b3575b600080fd5b6100596100d3565b60405161006893929190610189565b60405180910390f35b6100796100e9565b60405161008a9594939291906101c0565b60405180910390f35b61009b610129565b6040516100aa93929190610189565b60405180910390f35b6100bb61013f565b6040516100ca93929190610189565b60405180910390f35b6000806000602d92506001915060369050909192565b6000806000806000806000806100fd61013f565b925092509250600080600a60149150915084848484849950995099509950995050505050509091929394565b6000806000606360016037925092509250909192565b6000806000600560016005925092509250909192565b6000819050919050565b61016881610155565b82525050565b60008115159050919050565b6101838161016e565b82525050565b600060608201905061019e600083018661015f565b6101ab602083018561017a565b6101b8604083018461015f565b949350505050565b600060a0820190506101d5600083018861015f565b6101e2602083018761017a565b6101ef604083018661015f565b6101fc606083018561015f565b610209608083018461015f565b969550505050505056fea26469706673582212201c193d3f097e9983dcc5e9febd3ba4f482226c7451c82f3f44d75ac2abf2cf6f64736f6c63430008120033",
					"opcodes": "PUSH1 0x80 PUSH1 0x40 MSTORE CALLVALUE DUP1 ISZERO PUSH2 0x10 JUMPI PUSH1 0x0 DUP1 REVERT JUMPDEST POP PUSH2 0x249 DUP1 PUSH2 0x20 PUSH1 0x0 CODECOPY PUSH1 0x0 RETURN INVALID PUSH1 0x80 PUSH1 0x40 MSTORE CALLVALUE DUP1 ISZERO PUSH2 0x10 JUMPI PUSH1 0x0 DUP1 REVERT JUMPDEST POP PUSH1 0x4 CALLDATASIZE LT PUSH2 0x4C JUMPI PUSH1 0x0 CALLDATALOAD PUSH1 0xE0 SHR DUP1 PUSH4 0x2951F2B7 EQ PUSH2 0x51 JUMPI DUP1 PUSH4 0x7297237F EQ PUSH2 0x71 JUMPI DUP1 PUSH4 0xD23872A4 EQ PUSH2 0x93 JUMPI DUP1 PUSH4 0xEE503B47 EQ PUSH2 0xB3 JUMPI JUMPDEST PUSH1 0x0 DUP1 REVERT JUMPDEST PUSH2 0x59 PUSH2 0xD3 JUMP JUMPDEST PUSH1 0x40 MLOAD PUSH2 0x68 SWAP4 SWAP3 SWAP2 SWAP1 PUSH2 0x189 JUMP JUMPDEST PUSH1 0x40 MLOAD DUP1 SWAP2 SUB SWAP1 RETURN JUMPDEST PUSH2 0x79 PUSH2 0xE9 JUMP JUMPDEST PUSH1 0x40 MLOAD PUSH2 0x8A SWAP6 SWAP5 SWAP4 SWAP3 SWAP2 SWAP1 PUSH2 0x1C0 JUMP JUMPDEST PUSH1 0x40 MLOAD DUP1 SWAP2 SUB SWAP1 RETURN JUMPDEST PUSH2 0x9B PUSH2 0x129 JUMP JUMPDEST PUSH1 0x40 MLOAD PUSH2 0xAA SWAP4 SWAP3 SWAP2 SWAP1 PUSH2 0x189 JUMP JUMPDEST PUSH1 0x40 MLOAD DUP1 SWAP2 SUB SWAP1 RETURN JUMPDEST PUSH2 0xBB PUSH2 0x13F JUMP JUMPDEST PUSH1 0x40 MLOAD PUSH2 0xCA SWAP4 SWAP3 SWAP2 SWAP1 PUSH2 0x189 JUMP JUMPDEST PUSH1 0x40 MLOAD DUP1 SWAP2 SUB SWAP1 RETURN JUMPDEST PUSH1 0x0 DUP1 PUSH1 0x0 PUSH1 0x2D SWAP3 POP PUSH1 0x1 SWAP2 POP PUSH1 0x36 SWAP1 POP SWAP1 SWAP2 SWAP3 JUMP JUMPDEST PUSH1 0x0 DUP1 PUSH1 0x0 DUP1 PUSH1 0x0 DUP1 PUSH1 0x0 DUP1 PUSH2 0xFD PUSH2 0x13F JUMP JUMPDEST SWAP3 POP SWAP3 POP SWAP3 POP PUSH1 0x0 DUP1 PUSH1 0xA PUSH1 0x14 SWAP2 POP SWAP2 POP DUP5 DUP5 DUP5 DUP5 DUP5 SWAP10 POP SWAP10 POP SWAP10 POP SWAP10 POP SWAP10 POP POP POP POP POP POP SWAP1 SWAP2 SWAP3 SWAP4 SWAP5 JUMP JUMPDEST PUSH1 0x0 DUP1 PUSH1 0x0 PUSH1 0x63 PUSH1 0x1 PUSH1 0x37 SWAP3 POP SWAP3 POP SWAP3 POP SWAP1 SWAP2 SWAP3 JUMP JUMPDEST PUSH1 0x0 DUP1 PUSH1 0x0 PUSH1 0x5 PUSH1 0x1 PUSH1 0x5 SWAP3 POP SWAP3 POP SWAP3 POP SWAP1 SWAP2 SWAP3 JUMP JUMPDEST PUSH1 0x0 DUP2 SWAP1 POP SWAP2 SWAP1 POP JUMP JUMPDEST PUSH2 0x168 DUP2 PUSH2 0x155 JUMP JUMPDEST DUP3 MSTORE POP POP JUMP JUMPDEST PUSH1 0x0 DUP2 ISZERO ISZERO SWAP1 POP SWAP2 SWAP1 POP JUMP JUMPDEST PUSH2 0x183 DUP2 PUSH2 0x16E JUMP JUMPDEST DUP3 MSTORE POP POP JUMP JUMPDEST PUSH1 0x0 PUSH1 0x60 DUP3 ADD SWAP1 POP PUSH2 0x19E PUSH1 0x0 DUP4 ADD DUP7 PUSH2 0x15F JUMP JUMPDEST PUSH2 0x1AB PUSH1 0x20 DUP4 ADD DUP6 PUSH2 0x17A JUMP JUMPDEST PUSH2 0x1B8 PUSH1 0x40 DUP4 ADD DUP5 PUSH2 0x15F JUMP JUMPDEST SWAP5 SWAP4 POP POP POP POP JUMP JUMPDEST PUSH1 0x0 PUSH1 0xA0 DUP3 ADD SWAP1 POP PUSH2 0x1D5 PUSH1 0x0 DUP4 ADD DUP9 PUSH2 0x15F JUMP JUMPDEST PUSH2 0x1E2 PUSH1 0x20 DUP4 ADD DUP8 PUSH2 0x17A JUMP JUMPDEST PUSH2 0x1EF PUSH1 0x40 DUP4 ADD DUP7 PUSH2 0x15F JUMP JUMPDEST PUSH2 0x1FC PUSH1 0x60 DUP4 ADD DUP6 PUSH2 0x15F JUMP JUMPDEST PUSH2 0x209 PUSH1 0x80 DUP4 ADD DUP5 PUSH2 0x15F JUMP JUMPDEST SWAP7 SWAP6 POP POP POP POP POP POP JUMP INVALID LOG2 PUSH5 0x6970667358 0x22 SLT KECCAK256 SHR NOT RETURNDATASIZE EXTCODEHASH MULMOD PUSH31 0x9983DCC5E9FEBD3BA4F482226C7451C82F3F44D75AC2ABF2CF6F64736F6C63 NUMBER STOP ADDMOD SLT STOP CALLER "
				},
				"gasEstimates": {
					"creation": {
						"codeDepositCost": "117000",
						"executionCost": "165",
						"totalCost": "117165"
					},
					"external": {
						"Assignvalues()": "infinite",
						"destructuring()": "infinite",
						"returnmultiplevalues()": "infinite",
						"variableNames()": "infinite"
					}
				},
				"methodIdentifiers": {
					"Assignvalues()": "2951f2b7",
					"destructuring()": "7297237f",
					"returnmultiplevalues()": "ee503b47",
					"variableNames()": "d23872a4"
				}
			},
			"storageLayout": {
				"storage": [],
				"types": null
			},
			"userdoc": {
				"kind": "user",
				"methods": {},
				"version": 1
			}
		}
	}
}