{
	"contracts/functbehaviours.sol": {
		"secondfunction": {
			"abi": [
				{
					"inputs": [],
					"name": "callfunction",
					"outputs": [
						{
							"internalType": "address",
							"name": "",
							"type": "address"
						}
					],
					"stateMutability": "view",
					"type": "function"
				},
				{
					"inputs": [
						{
							"internalType": "uint256",
							"name": "x",
							"type": "uint256"
						},
						{
							"internalType": "uint256",
							"name": "y",
							"type": "uint256"
						},
						{
							"internalType": "uint256",
							"name": "z",
							"type": "uint256"
						},
						{
							"internalType": "address",
							"name": "a",
							"type": "address"
						},
						{
							"internalType": "string",
							"name": "",
							"type": "string"
						}
					],
					"name": "secondfunctioncontract",
					"outputs": [
						{
							"internalType": "uint256",
							"name": "",
							"type": "uint256"
						}
					],
					"stateMutability": "pure",
					"type": "function"
				}
			],
			"devdoc": {
				"kind": "dev",
				"methods": {},
				"version": 1
			},
			"evm": {
				"assembly": "    /* \"contracts/functbehaviours.sol\":1019:1398  contract secondfunction{... */\n  mstore(0x40, 0x80)\n  callvalue\n  dup1\n  iszero\n  tag_1\n  jumpi\n  0x00\n  dup1\n  revert\ntag_1:\n  pop\n  dataSize(sub_0)\n  dup1\n  dataOffset(sub_0)\n  0x00\n  codecopy\n  0x00\n  return\nstop\n\nsub_0: assembly {\n        /* \"contracts/functbehaviours.sol\":1019:1398  contract secondfunction{... */\n      mstore(0x40, 0x80)\n      callvalue\n      dup1\n      iszero\n      tag_1\n      jumpi\n      0x00\n      dup1\n      revert\n    tag_1:\n      pop\n      jumpi(tag_2, lt(calldatasize, 0x04))\n      shr(0xe0, calldataload(0x00))\n      dup1\n      0xb285240f\n      eq\n      tag_3\n      jumpi\n      dup1\n      0xb3de0a96\n      eq\n      tag_4\n      jumpi\n    tag_2:\n      0x00\n      dup1\n      revert\n        /* \"contracts/functbehaviours.sol\":1048:1157  function secondfunctioncontract(uint x,uint y,uint z,address a,string memory)... */\n    tag_3:\n      tag_5\n      0x04\n      dup1\n      calldatasize\n      sub\n      dup2\n      add\n      swap1\n      tag_6\n      swap2\n      swap1\n      tag_7\n      jump\t// in\n    tag_6:\n      tag_8\n      jump\t// in\n    tag_5:\n      mload(0x40)\n      tag_9\n      swap2\n      swap1\n      tag_10\n      jump\t// in\n    tag_9:\n      mload(0x40)\n      dup1\n      swap2\n      sub\n      swap1\n      return\n        /* \"contracts/functbehaviours.sol\":1159:1396  function callfunction() external view returns(address){... */\n    tag_4:\n      tag_11\n      tag_12\n      jump\t// in\n    tag_11:\n      mload(0x40)\n      tag_13\n      swap2\n      swap1\n      tag_14\n      jump\t// in\n    tag_13:\n      mload(0x40)\n      dup1\n      swap2\n      sub\n      swap1\n      return\n        /* \"contracts/functbehaviours.sol\":1048:1157  function secondfunctioncontract(uint x,uint y,uint z,address a,string memory)... */\n    tag_8:\n        /* \"contracts/functbehaviours.sol\":1150:1154  uint */\n      0x00\n        /* \"contracts/functbehaviours.sol\":1048:1157  function secondfunctioncontract(uint x,uint y,uint z,address a,string memory)... */\n      swap6\n      swap5\n      pop\n      pop\n      pop\n      pop\n      pop\n      jump\t// out\n        /* \"contracts/functbehaviours.sol\":1159:1396  function callfunction() external view returns(address){... */\n    tag_12:\n        /* \"contracts/functbehaviours.sol\":1205:1212  address */\n      0x00\n        /* \"contracts/functbehaviours.sol\":1227:1237  msg.sender */\n      caller\n        /* \"contracts/functbehaviours.sol\":1219:1238  return (msg.sender) */\n      swap1\n      pop\n        /* \"contracts/functbehaviours.sol\":1159:1396  function callfunction() external view returns(address){... */\n      swap1\n      jump\t// out\n        /* \"#utility.yul\":7:82   */\n    tag_17:\n        /* \"#utility.yul\":40:46   */\n      0x00\n        /* \"#utility.yul\":73:75   */\n      0x40\n        /* \"#utility.yul\":67:76   */\n      mload\n        /* \"#utility.yul\":57:76   */\n      swap1\n      pop\n        /* \"#utility.yul\":7:82   */\n      swap1\n      jump\t// out\n        /* \"#utility.yul\":88:205   */\n    tag_18:\n        /* \"#utility.yul\":197:198   */\n      0x00\n        /* \"#utility.yul\":194:195   */\n      dup1\n        /* \"#utility.yul\":187:199   */\n      revert\n        /* \"#utility.yul\":211:328   */\n    tag_19:\n        /* \"#utility.yul\":320:321   */\n      0x00\n        /* \"#utility.yul\":317:318   */\n      dup1\n        /* \"#utility.yul\":310:322   */\n      revert\n        /* \"#utility.yul\":334:411   */\n    tag_20:\n        /* \"#utility.yul\":371:378   */\n      0x00\n        /* \"#utility.yul\":400:405   */\n      dup2\n        /* \"#utility.yul\":389:405   */\n      swap1\n      pop\n        /* \"#utility.yul\":334:411   */\n      swap2\n      swap1\n      pop\n      jump\t// out\n        /* \"#utility.yul\":417:539   */\n    tag_21:\n        /* \"#utility.yul\":490:514   */\n      tag_45\n        /* \"#utility.yul\":508:513   */\n      dup2\n        /* \"#utility.yul\":490:514   */\n      tag_20\n      jump\t// in\n    tag_45:\n        /* \"#utility.yul\":483:488   */\n      dup2\n        /* \"#utility.yul\":480:515   */\n      eq\n        /* \"#utility.yul\":470:533   */\n      tag_46\n      jumpi\n        /* \"#utility.yul\":529:530   */\n      0x00\n        /* \"#utility.yul\":526:527   */\n      dup1\n        /* \"#utility.yul\":519:531   */\n      revert\n        /* \"#utility.yul\":470:533   */\n    tag_46:\n        /* \"#utility.yul\":417:539   */\n      pop\n      jump\t// out\n        /* \"#utility.yul\":545:684   */\n    tag_22:\n        /* \"#utility.yul\":591:596   */\n      0x00\n        /* \"#utility.yul\":629:635   */\n      dup2\n        /* \"#utility.yul\":616:636   */\n      calldataload\n        /* \"#utility.yul\":607:636   */\n      swap1\n      pop\n        /* \"#utility.yul\":645:678   */\n      tag_48\n        /* \"#utility.yul\":672:677   */\n      dup2\n        /* \"#utility.yul\":645:678   */\n      tag_21\n      jump\t// in\n    tag_48:\n        /* \"#utility.yul\":545:684   */\n      swap3\n      swap2\n      pop\n      pop\n      jump\t// out\n        /* \"#utility.yul\":690:816   */\n    tag_23:\n        /* \"#utility.yul\":727:734   */\n      0x00\n        /* \"#utility.yul\":767:809   */\n      0xffffffffffffffffffffffffffffffffffffffff\n        /* \"#utility.yul\":760:765   */\n      dup3\n        /* \"#utility.yul\":756:810   */\n      and\n        /* \"#utility.yul\":745:810   */\n      swap1\n      pop\n        /* \"#utility.yul\":690:816   */\n      swap2\n      swap1\n      pop\n      jump\t// out\n        /* \"#utility.yul\":822:918   */\n    tag_24:\n        /* \"#utility.yul\":859:866   */\n      0x00\n        /* \"#utility.yul\":888:912   */\n      tag_51\n        /* \"#utility.yul\":906:911   */\n      dup3\n        /* \"#utility.yul\":888:912   */\n      tag_23\n      jump\t// in\n    tag_51:\n        /* \"#utility.yul\":877:912   */\n      swap1\n      pop\n        /* \"#utility.yul\":822:918   */\n      swap2\n      swap1\n      pop\n      jump\t// out\n        /* \"#utility.yul\":924:1046   */\n    tag_25:\n        /* \"#utility.yul\":997:1021   */\n      tag_53\n        /* \"#utility.yul\":1015:1020   */\n      dup2\n        /* \"#utility.yul\":997:1021   */\n      tag_24\n      jump\t// in\n    tag_53:\n        /* \"#utility.yul\":990:995   */\n      dup2\n        /* \"#utility.yul\":987:1022   */\n      eq\n        /* \"#utility.yul\":977:1040   */\n      tag_54\n      jumpi\n        /* \"#utility.yul\":1036:1037   */\n      0x00\n        /* \"#utility.yul\":1033:1034   */\n      dup1\n        /* \"#utility.yul\":1026:1038   */\n      revert\n        /* \"#utility.yul\":977:1040   */\n    tag_54:\n        /* \"#utility.yul\":924:1046   */\n      pop\n      jump\t// out\n        /* \"#utility.yul\":1052:1191   */\n    tag_26:\n        /* \"#utility.yul\":1098:1103   */\n      0x00\n        /* \"#utility.yul\":1136:1142   */\n      dup2\n        /* \"#utility.yul\":1123:1143   */\n      calldataload\n        /* \"#utility.yul\":1114:1143   */\n      swap1\n      pop\n        /* \"#utility.yul\":1152:1185   */\n      tag_56\n        /* \"#utility.yul\":1179:1184   */\n      dup2\n        /* \"#utility.yul\":1152:1185   */\n      tag_25\n      jump\t// in\n    tag_56:\n        /* \"#utility.yul\":1052:1191   */\n      swap3\n      swap2\n      pop\n      pop\n      jump\t// out\n        /* \"#utility.yul\":1197:1314   */\n    tag_27:\n        /* \"#utility.yul\":1306:1307   */\n      0x00\n        /* \"#utility.yul\":1303:1304   */\n      dup1\n        /* \"#utility.yul\":1296:1308   */\n      revert\n        /* \"#utility.yul\":1320:1437   */\n    tag_28:\n        /* \"#utility.yul\":1429:1430   */\n      0x00\n        /* \"#utility.yul\":1426:1427   */\n      dup1\n        /* \"#utility.yul\":1419:1431   */\n      revert\n        /* \"#utility.yul\":1443:1545   */\n    tag_29:\n        /* \"#utility.yul\":1484:1490   */\n      0x00\n        /* \"#utility.yul\":1535:1537   */\n      0x1f\n        /* \"#utility.yul\":1531:1538   */\n      not\n        /* \"#utility.yul\":1526:1528   */\n      0x1f\n        /* \"#utility.yul\":1519:1524   */\n      dup4\n        /* \"#utility.yul\":1515:1529   */\n      add\n        /* \"#utility.yul\":1511:1539   */\n      and\n        /* \"#utility.yul\":1501:1539   */\n      swap1\n      pop\n        /* \"#utility.yul\":1443:1545   */\n      swap2\n      swap1\n      pop\n      jump\t// out\n        /* \"#utility.yul\":1551:1731   */\n    tag_30:\n        /* \"#utility.yul\":1599:1676   */\n      0x4e487b7100000000000000000000000000000000000000000000000000000000\n        /* \"#utility.yul\":1596:1597   */\n      0x00\n        /* \"#utility.yul\":1589:1677   */\n      mstore\n        /* \"#utility.yul\":1696:1700   */\n      0x41\n        /* \"#utility.yul\":1693:1694   */\n      0x04\n        /* \"#utility.yul\":1686:1701   */\n      mstore\n        /* \"#utility.yul\":1720:1724   */\n      0x24\n        /* \"#utility.yul\":1717:1718   */\n      0x00\n        /* \"#utility.yul\":1710:1725   */\n      revert\n        /* \"#utility.yul\":1737:2018   */\n    tag_31:\n        /* \"#utility.yul\":1820:1847   */\n      tag_62\n        /* \"#utility.yul\":1842:1846   */\n      dup3\n        /* \"#utility.yul\":1820:1847   */\n      tag_29\n      jump\t// in\n    tag_62:\n        /* \"#utility.yul\":1812:1818   */\n      dup2\n        /* \"#utility.yul\":1808:1848   */\n      add\n        /* \"#utility.yul\":1950:1956   */\n      dup2\n        /* \"#utility.yul\":1938:1948   */\n      dup2\n        /* \"#utility.yul\":1935:1957   */\n      lt\n        /* \"#utility.yul\":1914:1932   */\n      0xffffffffffffffff\n        /* \"#utility.yul\":1902:1912   */\n      dup3\n        /* \"#utility.yul\":1899:1933   */\n      gt\n        /* \"#utility.yul\":1896:1958   */\n      or\n        /* \"#utility.yul\":1893:1981   */\n      iszero\n      tag_63\n      jumpi\n        /* \"#utility.yul\":1961:1979   */\n      tag_64\n      tag_30\n      jump\t// in\n    tag_64:\n        /* \"#utility.yul\":1893:1981   */\n    tag_63:\n        /* \"#utility.yul\":2001:2011   */\n      dup1\n        /* \"#utility.yul\":1997:1999   */\n      0x40\n        /* \"#utility.yul\":1990:2012   */\n      mstore\n        /* \"#utility.yul\":1780:2018   */\n      pop\n        /* \"#utility.yul\":1737:2018   */\n      pop\n      pop\n      jump\t// out\n        /* \"#utility.yul\":2024:2153   */\n    tag_32:\n        /* \"#utility.yul\":2058:2064   */\n      0x00\n        /* \"#utility.yul\":2085:2105   */\n      tag_66\n      tag_17\n      jump\t// in\n    tag_66:\n        /* \"#utility.yul\":2075:2105   */\n      swap1\n      pop\n        /* \"#utility.yul\":2114:2147   */\n      tag_67\n        /* \"#utility.yul\":2142:2146   */\n      dup3\n        /* \"#utility.yul\":2134:2140   */\n      dup3\n        /* \"#utility.yul\":2114:2147   */\n      tag_31\n      jump\t// in\n    tag_67:\n        /* \"#utility.yul\":2024:2153   */\n      swap2\n      swap1\n      pop\n      jump\t// out\n        /* \"#utility.yul\":2159:2467   */\n    tag_33:\n        /* \"#utility.yul\":2221:2225   */\n      0x00\n        /* \"#utility.yul\":2311:2329   */\n      0xffffffffffffffff\n        /* \"#utility.yul\":2303:2309   */\n      dup3\n        /* \"#utility.yul\":2300:2330   */\n      gt\n        /* \"#utility.yul\":2297:2353   */\n      iszero\n      tag_69\n      jumpi\n        /* \"#utility.yul\":2333:2351   */\n      tag_70\n      tag_30\n      jump\t// in\n    tag_70:\n        /* \"#utility.yul\":2297:2353   */\n    tag_69:\n        /* \"#utility.yul\":2371:2400   */\n      tag_71\n        /* \"#utility.yul\":2393:2399   */\n      dup3\n        /* \"#utility.yul\":2371:2400   */\n      tag_29\n      jump\t// in\n    tag_71:\n        /* \"#utility.yul\":2363:2400   */\n      swap1\n      pop\n        /* \"#utility.yul\":2455:2459   */\n      0x20\n        /* \"#utility.yul\":2449:2453   */\n      dup2\n        /* \"#utility.yul\":2445:2460   */\n      add\n        /* \"#utility.yul\":2437:2460   */\n      swap1\n      pop\n        /* \"#utility.yul\":2159:2467   */\n      swap2\n      swap1\n      pop\n      jump\t// out\n        /* \"#utility.yul\":2473:2619   */\n    tag_34:\n        /* \"#utility.yul\":2570:2576   */\n      dup3\n        /* \"#utility.yul\":2565:2568   */\n      dup2\n        /* \"#utility.yul\":2560:2563   */\n      dup4\n        /* \"#utility.yul\":2547:2577   */\n      calldatacopy\n        /* \"#utility.yul\":2611:2612   */\n      0x00\n        /* \"#utility.yul\":2602:2608   */\n      dup4\n        /* \"#utility.yul\":2597:2600   */\n      dup4\n        /* \"#utility.yul\":2593:2609   */\n      add\n        /* \"#utility.yul\":2586:2613   */\n      mstore\n        /* \"#utility.yul\":2473:2619   */\n      pop\n      pop\n      pop\n      jump\t// out\n        /* \"#utility.yul\":2625:3050   */\n    tag_35:\n        /* \"#utility.yul\":2703:2708   */\n      0x00\n        /* \"#utility.yul\":2728:2794   */\n      tag_74\n        /* \"#utility.yul\":2744:2793   */\n      tag_75\n        /* \"#utility.yul\":2786:2792   */\n      dup5\n        /* \"#utility.yul\":2744:2793   */\n      tag_33\n      jump\t// in\n    tag_75:\n        /* \"#utility.yul\":2728:2794   */\n      tag_32\n      jump\t// in\n    tag_74:\n        /* \"#utility.yul\":2719:2794   */\n      swap1\n      pop\n        /* \"#utility.yul\":2817:2823   */\n      dup3\n        /* \"#utility.yul\":2810:2815   */\n      dup2\n        /* \"#utility.yul\":2803:2824   */\n      mstore\n        /* \"#utility.yul\":2855:2859   */\n      0x20\n        /* \"#utility.yul\":2848:2853   */\n      dup2\n        /* \"#utility.yul\":2844:2860   */\n      add\n        /* \"#utility.yul\":2893:2896   */\n      dup5\n        /* \"#utility.yul\":2884:2890   */\n      dup5\n        /* \"#utility.yul\":2879:2882   */\n      dup5\n        /* \"#utility.yul\":2875:2891   */\n      add\n        /* \"#utility.yul\":2872:2897   */\n      gt\n        /* \"#utility.yul\":2869:2981   */\n      iszero\n      tag_76\n      jumpi\n        /* \"#utility.yul\":2900:2979   */\n      tag_77\n      tag_28\n      jump\t// in\n    tag_77:\n        /* \"#utility.yul\":2869:2981   */\n    tag_76:\n        /* \"#utility.yul\":2990:3044   */\n      tag_78\n        /* \"#utility.yul\":3037:3043   */\n      dup5\n        /* \"#utility.yul\":3032:3035   */\n      dup3\n        /* \"#utility.yul\":3027:3030   */\n      dup6\n        /* \"#utility.yul\":2990:3044   */\n      tag_34\n      jump\t// in\n    tag_78:\n        /* \"#utility.yul\":2709:3050   */\n      pop\n        /* \"#utility.yul\":2625:3050   */\n      swap4\n      swap3\n      pop\n      pop\n      pop\n      jump\t// out\n        /* \"#utility.yul\":3070:3410   */\n    tag_36:\n        /* \"#utility.yul\":3126:3131   */\n      0x00\n        /* \"#utility.yul\":3175:3178   */\n      dup3\n        /* \"#utility.yul\":3168:3172   */\n      0x1f\n        /* \"#utility.yul\":3160:3166   */\n      dup4\n        /* \"#utility.yul\":3156:3173   */\n      add\n        /* \"#utility.yul\":3152:3179   */\n      slt\n        /* \"#utility.yul\":3142:3264   */\n      tag_80\n      jumpi\n        /* \"#utility.yul\":3183:3262   */\n      tag_81\n      tag_27\n      jump\t// in\n    tag_81:\n        /* \"#utility.yul\":3142:3264   */\n    tag_80:\n        /* \"#utility.yul\":3300:3306   */\n      dup2\n        /* \"#utility.yul\":3287:3307   */\n      calldataload\n        /* \"#utility.yul\":3325:3404   */\n      tag_82\n        /* \"#utility.yul\":3400:3403   */\n      dup5\n        /* \"#utility.yul\":3392:3398   */\n      dup3\n        /* \"#utility.yul\":3385:3389   */\n      0x20\n        /* \"#utility.yul\":3377:3383   */\n      dup7\n        /* \"#utility.yul\":3373:3390   */\n      add\n        /* \"#utility.yul\":3325:3404   */\n      tag_35\n      jump\t// in\n    tag_82:\n        /* \"#utility.yul\":3316:3404   */\n      swap2\n      pop\n        /* \"#utility.yul\":3132:3410   */\n      pop\n        /* \"#utility.yul\":3070:3410   */\n      swap3\n      swap2\n      pop\n      pop\n      jump\t// out\n        /* \"#utility.yul\":3416:4507   */\n    tag_7:\n        /* \"#utility.yul\":3521:3527   */\n      0x00\n        /* \"#utility.yul\":3529:3535   */\n      dup1\n        /* \"#utility.yul\":3537:3543   */\n      0x00\n        /* \"#utility.yul\":3545:3551   */\n      dup1\n        /* \"#utility.yul\":3553:3559   */\n      0x00\n        /* \"#utility.yul\":3602:3605   */\n      0xa0\n        /* \"#utility.yul\":3590:3599   */\n      dup7\n        /* \"#utility.yul\":3581:3588   */\n      dup9\n        /* \"#utility.yul\":3577:3600   */\n      sub\n        /* \"#utility.yul\":3573:3606   */\n      slt\n        /* \"#utility.yul\":3570:3690   */\n      iszero\n      tag_84\n      jumpi\n        /* \"#utility.yul\":3609:3688   */\n      tag_85\n      tag_18\n      jump\t// in\n    tag_85:\n        /* \"#utility.yul\":3570:3690   */\n    tag_84:\n        /* \"#utility.yul\":3729:3730   */\n      0x00\n        /* \"#utility.yul\":3754:3807   */\n      tag_86\n        /* \"#utility.yul\":3799:3806   */\n      dup9\n        /* \"#utility.yul\":3790:3796   */\n      dup3\n        /* \"#utility.yul\":3779:3788   */\n      dup10\n        /* \"#utility.yul\":3775:3797   */\n      add\n        /* \"#utility.yul\":3754:3807   */\n      tag_22\n      jump\t// in\n    tag_86:\n        /* \"#utility.yul\":3744:3807   */\n      swap6\n      pop\n        /* \"#utility.yul\":3700:3817   */\n      pop\n        /* \"#utility.yul\":3856:3858   */\n      0x20\n        /* \"#utility.yul\":3882:3935   */\n      tag_87\n        /* \"#utility.yul\":3927:3934   */\n      dup9\n        /* \"#utility.yul\":3918:3924   */\n      dup3\n        /* \"#utility.yul\":3907:3916   */\n      dup10\n        /* \"#utility.yul\":3903:3925   */\n      add\n        /* \"#utility.yul\":3882:3935   */\n      tag_22\n      jump\t// in\n    tag_87:\n        /* \"#utility.yul\":3872:3935   */\n      swap5\n      pop\n        /* \"#utility.yul\":3827:3945   */\n      pop\n        /* \"#utility.yul\":3984:3986   */\n      0x40\n        /* \"#utility.yul\":4010:4063   */\n      tag_88\n        /* \"#utility.yul\":4055:4062   */\n      dup9\n        /* \"#utility.yul\":4046:4052   */\n      dup3\n        /* \"#utility.yul\":4035:4044   */\n      dup10\n        /* \"#utility.yul\":4031:4053   */\n      add\n        /* \"#utility.yul\":4010:4063   */\n      tag_22\n      jump\t// in\n    tag_88:\n        /* \"#utility.yul\":4000:4063   */\n      swap4\n      pop\n        /* \"#utility.yul\":3955:4073   */\n      pop\n        /* \"#utility.yul\":4112:4114   */\n      0x60\n        /* \"#utility.yul\":4138:4191   */\n      tag_89\n        /* \"#utility.yul\":4183:4190   */\n      dup9\n        /* \"#utility.yul\":4174:4180   */\n      dup3\n        /* \"#utility.yul\":4163:4172   */\n      dup10\n        /* \"#utility.yul\":4159:4181   */\n      add\n        /* \"#utility.yul\":4138:4191   */\n      tag_26\n      jump\t// in\n    tag_89:\n        /* \"#utility.yul\":4128:4191   */\n      swap3\n      pop\n        /* \"#utility.yul\":4083:4201   */\n      pop\n        /* \"#utility.yul\":4268:4271   */\n      0x80\n        /* \"#utility.yul\":4257:4266   */\n      dup7\n        /* \"#utility.yul\":4253:4272   */\n      add\n        /* \"#utility.yul\":4240:4273   */\n      calldataload\n        /* \"#utility.yul\":4300:4318   */\n      0xffffffffffffffff\n        /* \"#utility.yul\":4292:4298   */\n      dup2\n        /* \"#utility.yul\":4289:4319   */\n      gt\n        /* \"#utility.yul\":4286:4403   */\n      iszero\n      tag_90\n      jumpi\n        /* \"#utility.yul\":4322:4401   */\n      tag_91\n      tag_19\n      jump\t// in\n    tag_91:\n        /* \"#utility.yul\":4286:4403   */\n    tag_90:\n        /* \"#utility.yul\":4427:4490   */\n      tag_92\n        /* \"#utility.yul\":4482:4489   */\n      dup9\n        /* \"#utility.yul\":4473:4479   */\n      dup3\n        /* \"#utility.yul\":4462:4471   */\n      dup10\n        /* \"#utility.yul\":4458:4480   */\n      add\n        /* \"#utility.yul\":4427:4490   */\n      tag_36\n      jump\t// in\n    tag_92:\n        /* \"#utility.yul\":4417:4490   */\n      swap2\n      pop\n        /* \"#utility.yul\":4211:4500   */\n      pop\n        /* \"#utility.yul\":3416:4507   */\n      swap3\n      swap6\n      pop\n      swap3\n      swap6\n      swap1\n      swap4\n      pop\n      jump\t// out\n        /* \"#utility.yul\":4513:4631   */\n    tag_37:\n        /* \"#utility.yul\":4600:4624   */\n      tag_94\n        /* \"#utility.yul\":4618:4623   */\n      dup2\n        /* \"#utility.yul\":4600:4624   */\n      tag_20\n      jump\t// in\n    tag_94:\n        /* \"#utility.yul\":4595:4598   */\n      dup3\n        /* \"#utility.yul\":4588:4625   */\n      mstore\n        /* \"#utility.yul\":4513:4631   */\n      pop\n      pop\n      jump\t// out\n        /* \"#utility.yul\":4637:4859   */\n    tag_10:\n        /* \"#utility.yul\":4730:4734   */\n      0x00\n        /* \"#utility.yul\":4768:4770   */\n      0x20\n        /* \"#utility.yul\":4757:4766   */\n      dup3\n        /* \"#utility.yul\":4753:4771   */\n      add\n        /* \"#utility.yul\":4745:4771   */\n      swap1\n      pop\n        /* \"#utility.yul\":4781:4852   */\n      tag_96\n        /* \"#utility.yul\":4849:4850   */\n      0x00\n        /* \"#utility.yul\":4838:4847   */\n      dup4\n        /* \"#utility.yul\":4834:4851   */\n      add\n        /* \"#utility.yul\":4825:4831   */\n      dup5\n        /* \"#utility.yul\":4781:4852   */\n      tag_37\n      jump\t// in\n    tag_96:\n        /* \"#utility.yul\":4637:4859   */\n      swap3\n      swap2\n      pop\n      pop\n      jump\t// out\n        /* \"#utility.yul\":4865:4983   */\n    tag_38:\n        /* \"#utility.yul\":4952:4976   */\n      tag_98\n        /* \"#utility.yul\":4970:4975   */\n      dup2\n        /* \"#utility.yul\":4952:4976   */\n      tag_24\n      jump\t// in\n    tag_98:\n        /* \"#utility.yul\":4947:4950   */\n      dup3\n        /* \"#utility.yul\":4940:4977   */\n      mstore\n        /* \"#utility.yul\":4865:4983   */\n      pop\n      pop\n      jump\t// out\n        /* \"#utility.yul\":4989:5211   */\n    tag_14:\n        /* \"#utility.yul\":5082:5086   */\n      0x00\n        /* \"#utility.yul\":5120:5122   */\n      0x20\n        /* \"#utility.yul\":5109:5118   */\n      dup3\n        /* \"#utility.yul\":5105:5123   */\n      add\n        /* \"#utility.yul\":5097:5123   */\n      swap1\n      pop\n        /* \"#utility.yul\":5133:5204   */\n      tag_100\n        /* \"#utility.yul\":5201:5202   */\n      0x00\n        /* \"#utility.yul\":5190:5199   */\n      dup4\n        /* \"#utility.yul\":5186:5203   */\n      add\n        /* \"#utility.yul\":5177:5183   */\n      dup5\n        /* \"#utility.yul\":5133:5204   */\n      tag_38\n      jump\t// in\n    tag_100:\n        /* \"#utility.yul\":4989:5211   */\n      swap3\n      swap2\n      pop\n      pop\n      jump\t// out\n\n    auxdata: 0xa2646970667358221220a29210a6619999536492e0bdf6cfc78ba903d71a9587c3d380a76571181cbe0464736f6c63430008120033\n}\n",
				"bytecode": {
					"linkReferences": {},
					"object": "608060405234801561001057600080fd5b506103ab806100206000396000f3fe608060405234801561001057600080fd5b50600436106100365760003560e01c8063b285240f1461003b578063b3de0a961461006b575b600080fd5b6100556004803603810190610050919061028a565b610089565b6040516100629190610330565b60405180910390f35b610073610094565b604051610080919061035a565b60405180910390f35b600095945050505050565b600033905090565b6000604051905090565b600080fd5b600080fd5b6000819050919050565b6100c3816100b0565b81146100ce57600080fd5b50565b6000813590506100e0816100ba565b92915050565b600073ffffffffffffffffffffffffffffffffffffffff82169050919050565b6000610111826100e6565b9050919050565b61012181610106565b811461012c57600080fd5b50565b60008135905061013e81610118565b92915050565b600080fd5b600080fd5b6000601f19601f8301169050919050565b7f4e487b7100000000000000000000000000000000000000000000000000000000600052604160045260246000fd5b6101978261014e565b810181811067ffffffffffffffff821117156101b6576101b561015f565b5b80604052505050565b60006101c961009c565b90506101d5828261018e565b919050565b600067ffffffffffffffff8211156101f5576101f461015f565b5b6101fe8261014e565b9050602081019050919050565b82818337600083830152505050565b600061022d610228846101da565b6101bf565b90508281526020810184848401111561024957610248610149565b5b61025484828561020b565b509392505050565b600082601f83011261027157610270610144565b5b813561028184826020860161021a565b91505092915050565b600080600080600060a086880312156102a6576102a56100a6565b5b60006102b4888289016100d1565b95505060206102c5888289016100d1565b94505060406102d6888289016100d1565b93505060606102e78882890161012f565b925050608086013567ffffffffffffffff811115610308576103076100ab565b5b6103148882890161025c565b9150509295509295909350565b61032a816100b0565b82525050565b60006020820190506103456000830184610321565b92915050565b61035481610106565b82525050565b600060208201905061036f600083018461034b565b9291505056fea2646970667358221220a29210a6619999536492e0bdf6cfc78ba903d71a9587c3d380a76571181cbe0464736f6c63430008120033",
					"opcodes": "PUSH1 0x80 PUSH1 0x40 MSTORE CALLVALUE DUP1 ISZERO PUSH2 0x10 JUMPI PUSH1 0x0 DUP1 REVERT JUMPDEST POP PUSH2 0x3AB DUP1 PUSH2 0x20 PUSH1 0x0 CODECOPY PUSH1 0x0 RETURN INVALID PUSH1 0x80 PUSH1 0x40 MSTORE CALLVALUE DUP1 ISZERO PUSH2 0x10 JUMPI PUSH1 0x0 DUP1 REVERT JUMPDEST POP PUSH1 0x4 CALLDATASIZE LT PUSH2 0x36 JUMPI PUSH1 0x0 CALLDATALOAD PUSH1 0xE0 SHR DUP1 PUSH4 0xB285240F EQ PUSH2 0x3B JUMPI DUP1 PUSH4 0xB3DE0A96 EQ PUSH2 0x6B JUMPI JUMPDEST PUSH1 0x0 DUP1 REVERT JUMPDEST PUSH2 0x55 PUSH1 0x4 DUP1 CALLDATASIZE SUB DUP2 ADD SWAP1 PUSH2 0x50 SWAP2 SWAP1 PUSH2 0x28A JUMP JUMPDEST PUSH2 0x89 JUMP JUMPDEST PUSH1 0x40 MLOAD PUSH2 0x62 SWAP2 SWAP1 PUSH2 0x330 JUMP JUMPDEST PUSH1 0x40 MLOAD DUP1 SWAP2 SUB SWAP1 RETURN JUMPDEST PUSH2 0x73 PUSH2 0x94 JUMP JUMPDEST PUSH1 0x40 MLOAD PUSH2 0x80 SWAP2 SWAP1 PUSH2 0x35A JUMP JUMPDEST PUSH1 0x40 MLOAD DUP1 SWAP2 SUB SWAP1 RETURN JUMPDEST PUSH1 0x0 SWAP6 SWAP5 POP POP POP POP POP JUMP JUMPDEST PUSH1 0x0 CALLER SWAP1 POP SWAP1 JUMP JUMPDEST PUSH1 0x0 PUSH1 0x40 MLOAD SWAP1 POP SWAP1 JUMP JUMPDEST PUSH1 0x0 DUP1 REVERT JUMPDEST PUSH1 0x0 DUP1 REVERT JUMPDEST PUSH1 0x0 DUP2 SWAP1 POP SWAP2 SWAP1 POP JUMP JUMPDEST PUSH2 0xC3 DUP2 PUSH2 0xB0 JUMP JUMPDEST DUP2 EQ PUSH2 0xCE JUMPI PUSH1 0x0 DUP1 REVERT JUMPDEST POP JUMP JUMPDEST PUSH1 0x0 DUP2 CALLDATALOAD SWAP1 POP PUSH2 0xE0 DUP2 PUSH2 0xBA JUMP JUMPDEST SWAP3 SWAP2 POP POP JUMP JUMPDEST PUSH1 0x0 PUSH20 0xFFFFFFFFFFFFFFFFFFFFFFFFFFFFFFFFFFFFFFFF DUP3 AND SWAP1 POP SWAP2 SWAP1 POP JUMP JUMPDEST PUSH1 0x0 PUSH2 0x111 DUP3 PUSH2 0xE6 JUMP JUMPDEST SWAP1 POP SWAP2 SWAP1 POP JUMP JUMPDEST PUSH2 0x121 DUP2 PUSH2 0x106 JUMP JUMPDEST DUP2 EQ PUSH2 0x12C JUMPI PUSH1 0x0 DUP1 REVERT JUMPDEST POP JUMP JUMPDEST PUSH1 0x0 DUP2 CALLDATALOAD SWAP1 POP PUSH2 0x13E DUP2 PUSH2 0x118 JUMP JUMPDEST SWAP3 SWAP2 POP POP JUMP JUMPDEST PUSH1 0x0 DUP1 REVERT JUMPDEST PUSH1 0x0 DUP1 REVERT JUMPDEST PUSH1 0x0 PUSH1 0x1F NOT PUSH1 0x1F DUP4 ADD AND SWAP1 POP SWAP2 SWAP1 POP JUMP JUMPDEST PUSH32 0x4E487B7100000000000000000000000000000000000000000000000000000000 PUSH1 0x0 MSTORE PUSH1 0x41 PUSH1 0x4 MSTORE PUSH1 0x24 PUSH1 0x0 REVERT JUMPDEST PUSH2 0x197 DUP3 PUSH2 0x14E JUMP JUMPDEST DUP2 ADD DUP2 DUP2 LT PUSH8 0xFFFFFFFFFFFFFFFF DUP3 GT OR ISZERO PUSH2 0x1B6 JUMPI PUSH2 0x1B5 PUSH2 0x15F JUMP JUMPDEST JUMPDEST DUP1 PUSH1 0x40 MSTORE POP POP POP JUMP JUMPDEST PUSH1 0x0 PUSH2 0x1C9 PUSH2 0x9C JUMP JUMPDEST SWAP1 POP PUSH2 0x1D5 DUP3 DUP3 PUSH2 0x18E JUMP JUMPDEST SWAP2 SWAP1 POP JUMP JUMPDEST PUSH1 0x0 PUSH8 0xFFFFFFFFFFFFFFFF DUP3 GT ISZERO PUSH2 0x1F5 JUMPI PUSH2 0x1F4 PUSH2 0x15F JUMP JUMPDEST JUMPDEST PUSH2 0x1FE DUP3 PUSH2 0x14E JUMP JUMPDEST SWAP1 POP PUSH1 0x20 DUP2 ADD SWAP1 POP SWAP2 SWAP1 POP JUMP JUMPDEST DUP3 DUP2 DUP4 CALLDATACOPY PUSH1 0x0 DUP4 DUP4 ADD MSTORE POP POP POP JUMP JUMPDEST PUSH1 0x0 PUSH2 0x22D PUSH2 0x228 DUP5 PUSH2 0x1DA JUMP JUMPDEST PUSH2 0x1BF JUMP JUMPDEST SWAP1 POP DUP3 DUP2 MSTORE PUSH1 0x20 DUP2 ADD DUP5 DUP5 DUP5 ADD GT ISZERO PUSH2 0x249 JUMPI PUSH2 0x248 PUSH2 0x149 JUMP JUMPDEST JUMPDEST PUSH2 0x254 DUP5 DUP3 DUP6 PUSH2 0x20B JUMP JUMPDEST POP SWAP4 SWAP3 POP POP POP JUMP JUMPDEST PUSH1 0x0 DUP3 PUSH1 0x1F DUP4 ADD SLT PUSH2 0x271 JUMPI PUSH2 0x270 PUSH2 0x144 JUMP JUMPDEST JUMPDEST DUP2 CALLDATALOAD PUSH2 0x281 DUP5 DUP3 PUSH1 0x20 DUP7 ADD PUSH2 0x21A JUMP JUMPDEST SWAP2 POP POP SWAP3 SWAP2 POP POP JUMP JUMPDEST PUSH1 0x0 DUP1 PUSH1 0x0 DUP1 PUSH1 0x0 PUSH1 0xA0 DUP7 DUP9 SUB SLT ISZERO PUSH2 0x2A6 JUMPI PUSH2 0x2A5 PUSH2 0xA6 JUMP JUMPDEST JUMPDEST PUSH1 0x0 PUSH2 0x2B4 DUP9 DUP3 DUP10 ADD PUSH2 0xD1 JUMP JUMPDEST SWAP6 POP POP PUSH1 0x20 PUSH2 0x2C5 DUP9 DUP3 DUP10 ADD PUSH2 0xD1 JUMP JUMPDEST SWAP5 POP POP PUSH1 0x40 PUSH2 0x2D6 DUP9 DUP3 DUP10 ADD PUSH2 0xD1 JUMP JUMPDEST SWAP4 POP POP PUSH1 0x60 PUSH2 0x2E7 DUP9 DUP3 DUP10 ADD PUSH2 0x12F JUMP JUMPDEST SWAP3 POP POP PUSH1 0x80 DUP7 ADD CALLDATALOAD PUSH8 0xFFFFFFFFFFFFFFFF DUP2 GT ISZERO PUSH2 0x308 JUMPI PUSH2 0x307 PUSH2 0xAB JUMP JUMPDEST JUMPDEST PUSH2 0x314 DUP9 DUP3 DUP10 ADD PUSH2 0x25C JUMP JUMPDEST SWAP2 POP POP SWAP3 SWAP6 POP SWAP3 SWAP6 SWAP1 SWAP4 POP JUMP JUMPDEST PUSH2 0x32A DUP2 PUSH2 0xB0 JUMP JUMPDEST DUP3 MSTORE POP POP JUMP JUMPDEST PUSH1 0x0 PUSH1 0x20 DUP3 ADD SWAP1 POP PUSH2 0x345 PUSH1 0x0 DUP4 ADD DUP5 PUSH2 0x321 JUMP JUMPDEST SWAP3 SWAP2 POP POP JUMP JUMPDEST PUSH2 0x354 DUP2 PUSH2 0x106 JUMP JUMPDEST DUP3 MSTORE POP POP JUMP JUMPDEST PUSH1 0x0 PUSH1 0x20 DUP3 ADD SWAP1 POP PUSH2 0x36F PUSH1 0x0 DUP4 ADD DUP5 PUSH2 0x34B JUMP JUMPDEST SWAP3 SWAP2 POP POP JUMP INVALID LOG2 PUSH5 0x6970667358 0x22 SLT KECCAK256 LOG2 SWAP3 LT 0xA6 PUSH2 0x9999 MSTORE8 PUSH5 0x92E0BDF6CF 0xC7 DUP12 0xA9 SUB 0xD7 BYTE SWAP6 DUP8 0xC3 0xD3 DUP1 0xA7 PUSH6 0x71181CBE0464 PUSH20 0x6F6C634300081200330000000000000000000000 "
				},
				"gasEstimates": {
					"creation": {
						"codeDepositCost": "187800",
						"executionCost": "232",
						"totalCost": "188032"
					},
					"external": {
						"callfunction()": "385",
						"secondfunctioncontract(uint256,uint256,uint256,address,string)": "infinite"
					}
				},
				"methodIdentifiers": {
					"callfunction()": "b3de0a96",
					"secondfunctioncontract(uint256,uint256,uint256,address,string)": "b285240f"
				}
			},
			"storageLayout": {
				"storage": [],
				"types": null
			},
			"userdoc": {
				"kind": "user",
				"methods": {},
				"version": 1
			}
		}
	}
}