{
	"contracts/datatype.sol": {
		"Primitive_datatype": {
			"abi": [
				{
					"inputs": [],
					"name": "addr",
					"outputs": [
						{
							"internalType": "address",
							"name": "",
							"type": "address"
						}
					],
					"stateMutability": "view",
					"type": "function"
				},
				{
					"inputs": [],
					"name": "boo1",
					"outputs": [
						{
							"internalType": "bool",
							"name": "",
							"type": "bool"
						}
					],
					"stateMutability": "view",
					"type": "function"
				},
				{
					"inputs": [],
					"name": "boo2",
					"outputs": [
						{
							"internalType": "bool",
							"name": "",
							"type": "bool"
						}
					],
					"stateMutability": "view",
					"type": "function"
				},
				{
					"inputs": [],
					"name": "i8",
					"outputs": [
						{
							"internalType": "int8",
							"name": "",
							"type": "int8"
						}
					],
					"stateMutability": "view",
					"type": "function"
				},
				{
					"inputs": [],
					"name": "maxInt",
					"outputs": [
						{
							"internalType": "int256",
							"name": "",
							"type": "int256"
						}
					],
					"stateMutability": "view",
					"type": "function"
				},
				{
					"inputs": [],
					"name": "minInt",
					"outputs": [
						{
							"internalType": "int256",
							"name": "",
							"type": "int256"
						}
					],
					"stateMutability": "view",
					"type": "function"
				},
				{
					"inputs": [],
					"name": "u16",
					"outputs": [
						{
							"internalType": "uint16",
							"name": "",
							"type": "uint16"
						}
					],
					"stateMutability": "view",
					"type": "function"
				},
				{
					"inputs": [],
					"name": "u256",
					"outputs": [
						{
							"internalType": "uint256",
							"name": "",
							"type": "uint256"
						}
					],
					"stateMutability": "view",
					"type": "function"
				},
				{
					"inputs": [],
					"name": "u8",
					"outputs": [
						{
							"internalType": "uint8",
							"name": "",
							"type": "uint8"
						}
					],
					"stateMutability": "view",
					"type": "function"
				}
			],
			"devdoc": {
				"kind": "dev",
				"methods": {},
				"version": 1
			},
			"evm": {
				"assembly": "    /* \"contracts/datatype.sol\":146:632  contract Primitive_datatype{... */\n  mstore(0x40, 0x80)\n    /* \"contracts/datatype.sol\":195:199  true */\n  0x01\n    /* \"contracts/datatype.sol\":176:199  bool public boo1 = true */\n  0x00\n  dup1\n  0x0100\n  exp\n  dup2\n  sload\n  dup2\n  0xff\n  mul\n  not\n  and\n  swap1\n  dup4\n  iszero\n  iszero\n  mul\n  or\n  swap1\n  sstore\n  pop\n    /* \"contracts/datatype.sol\":221:226  false */\n  0x00\n    /* \"contracts/datatype.sol\":202:226  bool public boo2 = false */\n  dup1\n  exp(0x0100, 0x01)\n  dup2\n  sload\n  dup2\n  0xff\n  mul\n  not\n  and\n  swap1\n  dup4\n  iszero\n  iszero\n  mul\n  or\n  swap1\n  sstore\n  pop\n    /* \"contracts/datatype.sol\":247:249  10 */\n  0x0a\n    /* \"contracts/datatype.sol\":229:249  uint8 public u8 = 10 */\n  0x00\n  exp(0x0100, 0x02)\n  dup2\n  sload\n  dup2\n  0xff\n  mul\n  not\n  and\n  swap1\n  dup4\n  0xff\n  and\n  mul\n  or\n  swap1\n  sstore\n  pop\n    /* \"contracts/datatype.sol\":272:274  58 */\n  0x3a\n    /* \"contracts/datatype.sol\":252:274  uint16 public u16 = 58 */\n  0x00\n  exp(0x0100, 0x03)\n  dup2\n  sload\n  dup2\n  0xffff\n  mul\n  not\n  and\n  swap1\n  dup4\n  0xffff\n  and\n  mul\n  or\n  swap1\n  sstore\n  pop\n    /* \"contracts/datatype.sol\":296:303  2651331 */\n  0x2874c3\n    /* \"contracts/datatype.sol\":277:303  uint public u256 = 2651331 */\n  0x01\n  sstore\n    /* \"contracts/datatype.sol\":323:325  74 */\n  0x4a\n    /* \"contracts/datatype.sol\":306:325  int8 public i8 = 74 */\n  0x02\n  exp(0x0100, 0x00)\n  dup2\n  sload\n  dup2\n  0xff\n  mul\n  not\n  and\n  swap1\n  dup4\n  0x00\n  signextend\n  0xff\n  and\n  mul\n  or\n  swap1\n  sstore\n  pop\n    /* \"contracts/datatype.sol\":350:363  type(int).min */\n  0x8000000000000000000000000000000000000000000000000000000000000000\n    /* \"contracts/datatype.sol\":330:363  int public minInt = type(int).min */\n  0x03\n  sstore\n    /* \"contracts/datatype.sol\":386:399  type(int).max */\n  0x7fffffffffffffffffffffffffffffffffffffffffffffffffffffffffffffff\n    /* \"contracts/datatype.sol\":366:399  int public maxInt = type(int).max */\n  0x04\n  sstore\n    /* \"contracts/datatype.sol\":424:466  0x5B38Da6a701c568545dCfcB03FcB875f56beddC4 */\n  0x5b38da6a701c568545dcfcb03fcb875f56beddc4\n    /* \"contracts/datatype.sol\":402:466  address public addr = 0x5B38Da6a701c568545dCfcB03FcB875f56beddC4 */\n  0x05\n  exp(0x0100, 0x00)\n  dup2\n  sload\n  dup2\n  0xffffffffffffffffffffffffffffffffffffffff\n  mul\n  not\n  and\n  swap1\n  dup4\n  0xffffffffffffffffffffffffffffffffffffffff\n  and\n  mul\n  or\n  swap1\n  sstore\n  pop\n    /* \"contracts/datatype.sol\":146:632  contract Primitive_datatype{... */\n  callvalue\n  dup1\n  iszero\n  tag_1\n  jumpi\n  0x00\n  dup1\n  revert\ntag_1:\n  pop\n  dataSize(sub_0)\n  dup1\n  dataOffset(sub_0)\n  0x00\n  codecopy\n  0x00\n  return\nstop\n\nsub_0: assembly {\n        /* \"contracts/datatype.sol\":146:632  contract Primitive_datatype{... */\n      mstore(0x40, 0x80)\n      callvalue\n      dup1\n      iszero\n      tag_1\n      jumpi\n      0x00\n      dup1\n      revert\n    tag_1:\n      pop\n      jumpi(tag_2, lt(calldatasize, 0x04))\n      shr(0xe0, calldataload(0x00))\n      dup1\n      0x7a4c2571\n      gt\n      tag_12\n      jumpi\n      dup1\n      0x7a4c2571\n      eq\n      tag_7\n      jumpi\n      dup1\n      0x7e4e14cc\n      eq\n      tag_8\n      jumpi\n      dup1\n      0x921cda74\n      eq\n      tag_9\n      jumpi\n      dup1\n      0xab3a58a3\n      eq\n      tag_10\n      jumpi\n      dup1\n      0xff57603d\n      eq\n      tag_11\n      jumpi\n      jump(tag_2)\n    tag_12:\n      dup1\n      0x0a6b4e06\n      eq\n      tag_3\n      jumpi\n      dup1\n      0x32998752\n      eq\n      tag_4\n      jumpi\n      dup1\n      0x459b1acf\n      eq\n      tag_5\n      jumpi\n      dup1\n      0x767800de\n      eq\n      tag_6\n      jumpi\n    tag_2:\n      0x00\n      dup1\n      revert\n        /* \"contracts/datatype.sol\":252:274  uint16 public u16 = 58 */\n    tag_3:\n      tag_13\n      tag_14\n      jump\t// in\n    tag_13:\n      mload(0x40)\n      tag_15\n      swap2\n      swap1\n      tag_16\n      jump\t// in\n    tag_15:\n      mload(0x40)\n      dup1\n      swap2\n      sub\n      swap1\n      return\n        /* \"contracts/datatype.sol\":176:199  bool public boo1 = true */\n    tag_4:\n      tag_17\n      tag_18\n      jump\t// in\n    tag_17:\n      mload(0x40)\n      tag_19\n      swap2\n      swap1\n      tag_20\n      jump\t// in\n    tag_19:\n      mload(0x40)\n      dup1\n      swap2\n      sub\n      swap1\n      return\n        /* \"contracts/datatype.sol\":277:303  uint public u256 = 2651331 */\n    tag_5:\n      tag_21\n      tag_22\n      jump\t// in\n    tag_21:\n      mload(0x40)\n      tag_23\n      swap2\n      swap1\n      tag_24\n      jump\t// in\n    tag_23:\n      mload(0x40)\n      dup1\n      swap2\n      sub\n      swap1\n      return\n        /* \"contracts/datatype.sol\":402:466  address public addr = 0x5B38Da6a701c568545dCfcB03FcB875f56beddC4 */\n    tag_6:\n      tag_25\n      tag_26\n      jump\t// in\n    tag_25:\n      mload(0x40)\n      tag_27\n      swap2\n      swap1\n      tag_28\n      jump\t// in\n    tag_27:\n      mload(0x40)\n      dup1\n      swap2\n      sub\n      swap1\n      return\n        /* \"contracts/datatype.sol\":366:399  int public maxInt = type(int).max */\n    tag_7:\n      tag_29\n      tag_30\n      jump\t// in\n    tag_29:\n      mload(0x40)\n      tag_31\n      swap2\n      swap1\n      tag_32\n      jump\t// in\n    tag_31:\n      mload(0x40)\n      dup1\n      swap2\n      sub\n      swap1\n      return\n        /* \"contracts/datatype.sol\":330:363  int public minInt = type(int).min */\n    tag_8:\n      tag_33\n      tag_34\n      jump\t// in\n    tag_33:\n      mload(0x40)\n      tag_35\n      swap2\n      swap1\n      tag_32\n      jump\t// in\n    tag_35:\n      mload(0x40)\n      dup1\n      swap2\n      sub\n      swap1\n      return\n        /* \"contracts/datatype.sol\":306:325  int8 public i8 = 74 */\n    tag_9:\n      tag_36\n      tag_37\n      jump\t// in\n    tag_36:\n      mload(0x40)\n      tag_38\n      swap2\n      swap1\n      tag_39\n      jump\t// in\n    tag_38:\n      mload(0x40)\n      dup1\n      swap2\n      sub\n      swap1\n      return\n        /* \"contracts/datatype.sol\":229:249  uint8 public u8 = 10 */\n    tag_10:\n      tag_40\n      tag_41\n      jump\t// in\n    tag_40:\n      mload(0x40)\n      tag_42\n      swap2\n      swap1\n      tag_43\n      jump\t// in\n    tag_42:\n      mload(0x40)\n      dup1\n      swap2\n      sub\n      swap1\n      return\n        /* \"contracts/datatype.sol\":202:226  bool public boo2 = false */\n    tag_11:\n      tag_44\n      tag_45\n      jump\t// in\n    tag_44:\n      mload(0x40)\n      tag_46\n      swap2\n      swap1\n      tag_20\n      jump\t// in\n    tag_46:\n      mload(0x40)\n      dup1\n      swap2\n      sub\n      swap1\n      return\n        /* \"contracts/datatype.sol\":252:274  uint16 public u16 = 58 */\n    tag_14:\n      0x00\n      0x03\n      swap1\n      sload\n      swap1\n      0x0100\n      exp\n      swap1\n      div\n      0xffff\n      and\n      dup2\n      jump\t// out\n        /* \"contracts/datatype.sol\":176:199  bool public boo1 = true */\n    tag_18:\n      0x00\n      dup1\n      sload\n      swap1\n      0x0100\n      exp\n      swap1\n      div\n      0xff\n      and\n      dup2\n      jump\t// out\n        /* \"contracts/datatype.sol\":277:303  uint public u256 = 2651331 */\n    tag_22:\n      sload(0x01)\n      dup2\n      jump\t// out\n        /* \"contracts/datatype.sol\":402:466  address public addr = 0x5B38Da6a701c568545dCfcB03FcB875f56beddC4 */\n    tag_26:\n      0x05\n      0x00\n      swap1\n      sload\n      swap1\n      0x0100\n      exp\n      swap1\n      div\n      0xffffffffffffffffffffffffffffffffffffffff\n      and\n      dup2\n      jump\t// out\n        /* \"contracts/datatype.sol\":366:399  int public maxInt = type(int).max */\n    tag_30:\n      sload(0x04)\n      dup2\n      jump\t// out\n        /* \"contracts/datatype.sol\":330:363  int public minInt = type(int).min */\n    tag_34:\n      sload(0x03)\n      dup2\n      jump\t// out\n        /* \"contracts/datatype.sol\":306:325  int8 public i8 = 74 */\n    tag_37:\n      0x02\n      0x00\n      swap1\n      sload\n      swap1\n      0x0100\n      exp\n      swap1\n      div\n      0x00\n      signextend\n      dup2\n      jump\t// out\n        /* \"contracts/datatype.sol\":229:249  uint8 public u8 = 10 */\n    tag_41:\n      0x00\n      0x02\n      swap1\n      sload\n      swap1\n      0x0100\n      exp\n      swap1\n      div\n      0xff\n      and\n      dup2\n      jump\t// out\n        /* \"contracts/datatype.sol\":202:226  bool public boo2 = false */\n    tag_45:\n      0x00\n      0x01\n      swap1\n      sload\n      swap1\n      0x0100\n      exp\n      swap1\n      div\n      0xff\n      and\n      dup2\n      jump\t// out\n        /* \"#utility.yul\":7:96   */\n    tag_47:\n        /* \"#utility.yul\":43:50   */\n      0x00\n        /* \"#utility.yul\":83:89   */\n      0xffff\n        /* \"#utility.yul\":76:81   */\n      dup3\n        /* \"#utility.yul\":72:90   */\n      and\n        /* \"#utility.yul\":61:90   */\n      swap1\n      pop\n        /* \"#utility.yul\":7:96   */\n      swap2\n      swap1\n      pop\n      jump\t// out\n        /* \"#utility.yul\":102:217   */\n    tag_48:\n        /* \"#utility.yul\":187:210   */\n      tag_65\n        /* \"#utility.yul\":204:209   */\n      dup2\n        /* \"#utility.yul\":187:210   */\n      tag_47\n      jump\t// in\n    tag_65:\n        /* \"#utility.yul\":182:185   */\n      dup3\n        /* \"#utility.yul\":175:211   */\n      mstore\n        /* \"#utility.yul\":102:217   */\n      pop\n      pop\n      jump\t// out\n        /* \"#utility.yul\":223:441   */\n    tag_16:\n        /* \"#utility.yul\":314:318   */\n      0x00\n        /* \"#utility.yul\":352:354   */\n      0x20\n        /* \"#utility.yul\":341:350   */\n      dup3\n        /* \"#utility.yul\":337:355   */\n      add\n        /* \"#utility.yul\":329:355   */\n      swap1\n      pop\n        /* \"#utility.yul\":365:434   */\n      tag_67\n        /* \"#utility.yul\":431:432   */\n      0x00\n        /* \"#utility.yul\":420:429   */\n      dup4\n        /* \"#utility.yul\":416:433   */\n      add\n        /* \"#utility.yul\":407:413   */\n      dup5\n        /* \"#utility.yul\":365:434   */\n      tag_48\n      jump\t// in\n    tag_67:\n        /* \"#utility.yul\":223:441   */\n      swap3\n      swap2\n      pop\n      pop\n      jump\t// out\n        /* \"#utility.yul\":447:537   */\n    tag_49:\n        /* \"#utility.yul\":481:488   */\n      0x00\n        /* \"#utility.yul\":524:529   */\n      dup2\n        /* \"#utility.yul\":517:530   */\n      iszero\n        /* \"#utility.yul\":510:531   */\n      iszero\n        /* \"#utility.yul\":499:531   */\n      swap1\n      pop\n        /* \"#utility.yul\":447:537   */\n      swap2\n      swap1\n      pop\n      jump\t// out\n        /* \"#utility.yul\":543:652   */\n    tag_50:\n        /* \"#utility.yul\":624:645   */\n      tag_70\n        /* \"#utility.yul\":639:644   */\n      dup2\n        /* \"#utility.yul\":624:645   */\n      tag_49\n      jump\t// in\n    tag_70:\n        /* \"#utility.yul\":619:622   */\n      dup3\n        /* \"#utility.yul\":612:646   */\n      mstore\n        /* \"#utility.yul\":543:652   */\n      pop\n      pop\n      jump\t// out\n        /* \"#utility.yul\":658:868   */\n    tag_20:\n        /* \"#utility.yul\":745:749   */\n      0x00\n        /* \"#utility.yul\":783:785   */\n      0x20\n        /* \"#utility.yul\":772:781   */\n      dup3\n        /* \"#utility.yul\":768:786   */\n      add\n        /* \"#utility.yul\":760:786   */\n      swap1\n      pop\n        /* \"#utility.yul\":796:861   */\n      tag_72\n        /* \"#utility.yul\":858:859   */\n      0x00\n        /* \"#utility.yul\":847:856   */\n      dup4\n        /* \"#utility.yul\":843:860   */\n      add\n        /* \"#utility.yul\":834:840   */\n      dup5\n        /* \"#utility.yul\":796:861   */\n      tag_50\n      jump\t// in\n    tag_72:\n        /* \"#utility.yul\":658:868   */\n      swap3\n      swap2\n      pop\n      pop\n      jump\t// out\n        /* \"#utility.yul\":874:951   */\n    tag_51:\n        /* \"#utility.yul\":911:918   */\n      0x00\n        /* \"#utility.yul\":940:945   */\n      dup2\n        /* \"#utility.yul\":929:945   */\n      swap1\n      pop\n        /* \"#utility.yul\":874:951   */\n      swap2\n      swap1\n      pop\n      jump\t// out\n        /* \"#utility.yul\":957:1075   */\n    tag_52:\n        /* \"#utility.yul\":1044:1068   */\n      tag_75\n        /* \"#utility.yul\":1062:1067   */\n      dup2\n        /* \"#utility.yul\":1044:1068   */\n      tag_51\n      jump\t// in\n    tag_75:\n        /* \"#utility.yul\":1039:1042   */\n      dup3\n        /* \"#utility.yul\":1032:1069   */\n      mstore\n        /* \"#utility.yul\":957:1075   */\n      pop\n      pop\n      jump\t// out\n        /* \"#utility.yul\":1081:1303   */\n    tag_24:\n        /* \"#utility.yul\":1174:1178   */\n      0x00\n        /* \"#utility.yul\":1212:1214   */\n      0x20\n        /* \"#utility.yul\":1201:1210   */\n      dup3\n        /* \"#utility.yul\":1197:1215   */\n      add\n        /* \"#utility.yul\":1189:1215   */\n      swap1\n      pop\n        /* \"#utility.yul\":1225:1296   */\n      tag_77\n        /* \"#utility.yul\":1293:1294   */\n      0x00\n        /* \"#utility.yul\":1282:1291   */\n      dup4\n        /* \"#utility.yul\":1278:1295   */\n      add\n        /* \"#utility.yul\":1269:1275   */\n      dup5\n        /* \"#utility.yul\":1225:1296   */\n      tag_52\n      jump\t// in\n    tag_77:\n        /* \"#utility.yul\":1081:1303   */\n      swap3\n      swap2\n      pop\n      pop\n      jump\t// out\n        /* \"#utility.yul\":1309:1435   */\n    tag_53:\n        /* \"#utility.yul\":1346:1353   */\n      0x00\n        /* \"#utility.yul\":1386:1428   */\n      0xffffffffffffffffffffffffffffffffffffffff\n        /* \"#utility.yul\":1379:1384   */\n      dup3\n        /* \"#utility.yul\":1375:1429   */\n      and\n        /* \"#utility.yul\":1364:1429   */\n      swap1\n      pop\n        /* \"#utility.yul\":1309:1435   */\n      swap2\n      swap1\n      pop\n      jump\t// out\n        /* \"#utility.yul\":1441:1537   */\n    tag_54:\n        /* \"#utility.yul\":1478:1485   */\n      0x00\n        /* \"#utility.yul\":1507:1531   */\n      tag_80\n        /* \"#utility.yul\":1525:1530   */\n      dup3\n        /* \"#utility.yul\":1507:1531   */\n      tag_53\n      jump\t// in\n    tag_80:\n        /* \"#utility.yul\":1496:1531   */\n      swap1\n      pop\n        /* \"#utility.yul\":1441:1537   */\n      swap2\n      swap1\n      pop\n      jump\t// out\n        /* \"#utility.yul\":1543:1661   */\n    tag_55:\n        /* \"#utility.yul\":1630:1654   */\n      tag_82\n        /* \"#utility.yul\":1648:1653   */\n      dup2\n        /* \"#utility.yul\":1630:1654   */\n      tag_54\n      jump\t// in\n    tag_82:\n        /* \"#utility.yul\":1625:1628   */\n      dup3\n        /* \"#utility.yul\":1618:1655   */\n      mstore\n        /* \"#utility.yul\":1543:1661   */\n      pop\n      pop\n      jump\t// out\n        /* \"#utility.yul\":1667:1889   */\n    tag_28:\n        /* \"#utility.yul\":1760:1764   */\n      0x00\n        /* \"#utility.yul\":1798:1800   */\n      0x20\n        /* \"#utility.yul\":1787:1796   */\n      dup3\n        /* \"#utility.yul\":1783:1801   */\n      add\n        /* \"#utility.yul\":1775:1801   */\n      swap1\n      pop\n        /* \"#utility.yul\":1811:1882   */\n      tag_84\n        /* \"#utility.yul\":1879:1880   */\n      0x00\n        /* \"#utility.yul\":1868:1877   */\n      dup4\n        /* \"#utility.yul\":1864:1881   */\n      add\n        /* \"#utility.yul\":1855:1861   */\n      dup5\n        /* \"#utility.yul\":1811:1882   */\n      tag_55\n      jump\t// in\n    tag_84:\n        /* \"#utility.yul\":1667:1889   */\n      swap3\n      swap2\n      pop\n      pop\n      jump\t// out\n        /* \"#utility.yul\":1895:1971   */\n    tag_56:\n        /* \"#utility.yul\":1931:1938   */\n      0x00\n        /* \"#utility.yul\":1960:1965   */\n      dup2\n        /* \"#utility.yul\":1949:1965   */\n      swap1\n      pop\n        /* \"#utility.yul\":1895:1971   */\n      swap2\n      swap1\n      pop\n      jump\t// out\n        /* \"#utility.yul\":1977:2092   */\n    tag_57:\n        /* \"#utility.yul\":2062:2085   */\n      tag_87\n        /* \"#utility.yul\":2079:2084   */\n      dup2\n        /* \"#utility.yul\":2062:2085   */\n      tag_56\n      jump\t// in\n    tag_87:\n        /* \"#utility.yul\":2057:2060   */\n      dup3\n        /* \"#utility.yul\":2050:2086   */\n      mstore\n        /* \"#utility.yul\":1977:2092   */\n      pop\n      pop\n      jump\t// out\n        /* \"#utility.yul\":2098:2316   */\n    tag_32:\n        /* \"#utility.yul\":2189:2193   */\n      0x00\n        /* \"#utility.yul\":2227:2229   */\n      0x20\n        /* \"#utility.yul\":2216:2225   */\n      dup3\n        /* \"#utility.yul\":2212:2230   */\n      add\n        /* \"#utility.yul\":2204:2230   */\n      swap1\n      pop\n        /* \"#utility.yul\":2240:2309   */\n      tag_89\n        /* \"#utility.yul\":2306:2307   */\n      0x00\n        /* \"#utility.yul\":2295:2304   */\n      dup4\n        /* \"#utility.yul\":2291:2308   */\n      add\n        /* \"#utility.yul\":2282:2288   */\n      dup5\n        /* \"#utility.yul\":2240:2309   */\n      tag_57\n      jump\t// in\n    tag_89:\n        /* \"#utility.yul\":2098:2316   */\n      swap3\n      swap2\n      pop\n      pop\n      jump\t// out\n        /* \"#utility.yul\":2322:2411   */\n    tag_58:\n        /* \"#utility.yul\":2356:2363   */\n      0x00\n        /* \"#utility.yul\":2399:2404   */\n      dup2\n        /* \"#utility.yul\":2396:2397   */\n      0x00\n        /* \"#utility.yul\":2385:2405   */\n      signextend\n        /* \"#utility.yul\":2374:2405   */\n      swap1\n      pop\n        /* \"#utility.yul\":2322:2411   */\n      swap2\n      swap1\n      pop\n      jump\t// out\n        /* \"#utility.yul\":2417:2526   */\n    tag_59:\n        /* \"#utility.yul\":2498:2519   */\n      tag_92\n        /* \"#utility.yul\":2513:2518   */\n      dup2\n        /* \"#utility.yul\":2498:2519   */\n      tag_58\n      jump\t// in\n    tag_92:\n        /* \"#utility.yul\":2493:2496   */\n      dup3\n        /* \"#utility.yul\":2486:2520   */\n      mstore\n        /* \"#utility.yul\":2417:2526   */\n      pop\n      pop\n      jump\t// out\n        /* \"#utility.yul\":2532:2742   */\n    tag_39:\n        /* \"#utility.yul\":2619:2623   */\n      0x00\n        /* \"#utility.yul\":2657:2659   */\n      0x20\n        /* \"#utility.yul\":2646:2655   */\n      dup3\n        /* \"#utility.yul\":2642:2660   */\n      add\n        /* \"#utility.yul\":2634:2660   */\n      swap1\n      pop\n        /* \"#utility.yul\":2670:2735   */\n      tag_94\n        /* \"#utility.yul\":2732:2733   */\n      0x00\n        /* \"#utility.yul\":2721:2730   */\n      dup4\n        /* \"#utility.yul\":2717:2734   */\n      add\n        /* \"#utility.yul\":2708:2714   */\n      dup5\n        /* \"#utility.yul\":2670:2735   */\n      tag_59\n      jump\t// in\n    tag_94:\n        /* \"#utility.yul\":2532:2742   */\n      swap3\n      swap2\n      pop\n      pop\n      jump\t// out\n        /* \"#utility.yul\":2748:2834   */\n    tag_60:\n        /* \"#utility.yul\":2783:2790   */\n      0x00\n        /* \"#utility.yul\":2823:2827   */\n      0xff\n        /* \"#utility.yul\":2816:2821   */\n      dup3\n        /* \"#utility.yul\":2812:2828   */\n      and\n        /* \"#utility.yul\":2801:2828   */\n      swap1\n      pop\n        /* \"#utility.yul\":2748:2834   */\n      swap2\n      swap1\n      pop\n      jump\t// out\n        /* \"#utility.yul\":2840:2952   */\n    tag_61:\n        /* \"#utility.yul\":2923:2945   */\n      tag_97\n        /* \"#utility.yul\":2939:2944   */\n      dup2\n        /* \"#utility.yul\":2923:2945   */\n      tag_60\n      jump\t// in\n    tag_97:\n        /* \"#utility.yul\":2918:2921   */\n      dup3\n        /* \"#utility.yul\":2911:2946   */\n      mstore\n        /* \"#utility.yul\":2840:2952   */\n      pop\n      pop\n      jump\t// out\n        /* \"#utility.yul\":2958:3172   */\n    tag_43:\n        /* \"#utility.yul\":3047:3051   */\n      0x00\n        /* \"#utility.yul\":3085:3087   */\n      0x20\n        /* \"#utility.yul\":3074:3083   */\n      dup3\n        /* \"#utility.yul\":3070:3088   */\n      add\n        /* \"#utility.yul\":3062:3088   */\n      swap1\n      pop\n        /* \"#utility.yul\":3098:3165   */\n      tag_99\n        /* \"#utility.yul\":3162:3163   */\n      0x00\n        /* \"#utility.yul\":3151:3160   */\n      dup4\n        /* \"#utility.yul\":3147:3164   */\n      add\n        /* \"#utility.yul\":3138:3144   */\n      dup5\n        /* \"#utility.yul\":3098:3165   */\n      tag_61\n      jump\t// in\n    tag_99:\n        /* \"#utility.yul\":2958:3172   */\n      swap3\n      swap2\n      pop\n      pop\n      jump\t// out\n\n    auxdata: 0xa26469706673582212205153959818e9f9d7d289fdd85817d7507b9129d2d14fa48ad8d777a863cc489f64736f6c63430008120033\n}\n",
				"bytecode": {
					"linkReferences": {},
					"object": "608060405260016000806101000a81548160ff02191690831515021790555060008060016101000a81548160ff021916908315150217905550600a600060026101000a81548160ff021916908360ff160217905550603a600060036101000a81548161ffff021916908361ffff160217905550622874c3600155604a600260006101000a81548160ff021916908360000b60ff1602179055507f80000000000000000000000000000000000000000000000000000000000000006003557f7fffffffffffffffffffffffffffffffffffffffffffffffffffffffffffffff600455735b38da6a701c568545dcfcb03fcb875f56beddc4600560006101000a81548173ffffffffffffffffffffffffffffffffffffffff021916908373ffffffffffffffffffffffffffffffffffffffff16021790555034801561014157600080fd5b50610412806101516000396000f3fe608060405234801561001057600080fd5b50600436106100935760003560e01c80637a4c2571116100665780637a4c2571146101105780637e4e14cc1461012e578063921cda741461014c578063ab3a58a31461016a578063ff57603d1461018857610093565b80630a6b4e061461009857806332998752146100b6578063459b1acf146100d4578063767800de146100f2575b600080fd5b6100a06101a6565b6040516100ad9190610259565b60405180910390f35b6100be6101ba565b6040516100cb919061028f565b60405180910390f35b6100dc6101cb565b6040516100e991906102c3565b60405180910390f35b6100fa6101d1565b604051610107919061031f565b60405180910390f35b6101186101f7565b6040516101259190610353565b60405180910390f35b6101366101fd565b6040516101439190610353565b60405180910390f35b610154610203565b604051610161919061038a565b60405180910390f35b610172610216565b60405161017f91906103c1565b60405180910390f35b610190610229565b60405161019d919061028f565b60405180910390f35b600060039054906101000a900461ffff1681565b60008054906101000a900460ff1681565b60015481565b600560009054906101000a900473ffffffffffffffffffffffffffffffffffffffff1681565b60045481565b60035481565b600260009054906101000a900460000b81565b600060029054906101000a900460ff1681565b600060019054906101000a900460ff1681565b600061ffff82169050919050565b6102538161023c565b82525050565b600060208201905061026e600083018461024a565b92915050565b60008115159050919050565b61028981610274565b82525050565b60006020820190506102a46000830184610280565b92915050565b6000819050919050565b6102bd816102aa565b82525050565b60006020820190506102d860008301846102b4565b92915050565b600073ffffffffffffffffffffffffffffffffffffffff82169050919050565b6000610309826102de565b9050919050565b610319816102fe565b82525050565b60006020820190506103346000830184610310565b92915050565b6000819050919050565b61034d8161033a565b82525050565b60006020820190506103686000830184610344565b92915050565b60008160000b9050919050565b6103848161036e565b82525050565b600060208201905061039f600083018461037b565b92915050565b600060ff82169050919050565b6103bb816103a5565b82525050565b60006020820190506103d660008301846103b2565b9291505056fea26469706673582212205153959818e9f9d7d289fdd85817d7507b9129d2d14fa48ad8d777a863cc489f64736f6c63430008120033",
					"opcodes": "PUSH1 0x80 PUSH1 0x40 MSTORE PUSH1 0x1 PUSH1 0x0 DUP1 PUSH2 0x100 EXP DUP2 SLOAD DUP2 PUSH1 0xFF MUL NOT AND SWAP1 DUP4 ISZERO ISZERO MUL OR SWAP1 SSTORE POP PUSH1 0x0 DUP1 PUSH1 0x1 PUSH2 0x100 EXP DUP2 SLOAD DUP2 PUSH1 0xFF MUL NOT AND SWAP1 DUP4 ISZERO ISZERO MUL OR SWAP1 SSTORE POP PUSH1 0xA PUSH1 0x0 PUSH1 0x2 PUSH2 0x100 EXP DUP2 SLOAD DUP2 PUSH1 0xFF MUL NOT AND SWAP1 DUP4 PUSH1 0xFF AND MUL OR SWAP1 SSTORE POP PUSH1 0x3A PUSH1 0x0 PUSH1 0x3 PUSH2 0x100 EXP DUP2 SLOAD DUP2 PUSH2 0xFFFF MUL NOT AND SWAP1 DUP4 PUSH2 0xFFFF AND MUL OR SWAP1 SSTORE POP PUSH3 0x2874C3 PUSH1 0x1 SSTORE PUSH1 0x4A PUSH1 0x2 PUSH1 0x0 PUSH2 0x100 EXP DUP2 SLOAD DUP2 PUSH1 0xFF MUL NOT AND SWAP1 DUP4 PUSH1 0x0 SIGNEXTEND PUSH1 0xFF AND MUL OR SWAP1 SSTORE POP PUSH32 0x8000000000000000000000000000000000000000000000000000000000000000 PUSH1 0x3 SSTORE PUSH32 0x7FFFFFFFFFFFFFFFFFFFFFFFFFFFFFFFFFFFFFFFFFFFFFFFFFFFFFFFFFFFFFFF PUSH1 0x4 SSTORE PUSH20 0x5B38DA6A701C568545DCFCB03FCB875F56BEDDC4 PUSH1 0x5 PUSH1 0x0 PUSH2 0x100 EXP DUP2 SLOAD DUP2 PUSH20 0xFFFFFFFFFFFFFFFFFFFFFFFFFFFFFFFFFFFFFFFF MUL NOT AND SWAP1 DUP4 PUSH20 0xFFFFFFFFFFFFFFFFFFFFFFFFFFFFFFFFFFFFFFFF AND MUL OR SWAP1 SSTORE POP CALLVALUE DUP1 ISZERO PUSH2 0x141 JUMPI PUSH1 0x0 DUP1 REVERT JUMPDEST POP PUSH2 0x412 DUP1 PUSH2 0x151 PUSH1 0x0 CODECOPY PUSH1 0x0 RETURN INVALID PUSH1 0x80 PUSH1 0x40 MSTORE CALLVALUE DUP1 ISZERO PUSH2 0x10 JUMPI PUSH1 0x0 DUP1 REVERT JUMPDEST POP PUSH1 0x4 CALLDATASIZE LT PUSH2 0x93 JUMPI PUSH1 0x0 CALLDATALOAD PUSH1 0xE0 SHR DUP1 PUSH4 0x7A4C2571 GT PUSH2 0x66 JUMPI DUP1 PUSH4 0x7A4C2571 EQ PUSH2 0x110 JUMPI DUP1 PUSH4 0x7E4E14CC EQ PUSH2 0x12E JUMPI DUP1 PUSH4 0x921CDA74 EQ PUSH2 0x14C JUMPI DUP1 PUSH4 0xAB3A58A3 EQ PUSH2 0x16A JUMPI DUP1 PUSH4 0xFF57603D EQ PUSH2 0x188 JUMPI PUSH2 0x93 JUMP JUMPDEST DUP1 PUSH4 0xA6B4E06 EQ PUSH2 0x98 JUMPI DUP1 PUSH4 0x32998752 EQ PUSH2 0xB6 JUMPI DUP1 PUSH4 0x459B1ACF EQ PUSH2 0xD4 JUMPI DUP1 PUSH4 0x767800DE EQ PUSH2 0xF2 JUMPI JUMPDEST PUSH1 0x0 DUP1 REVERT JUMPDEST PUSH2 0xA0 PUSH2 0x1A6 JUMP JUMPDEST PUSH1 0x40 MLOAD PUSH2 0xAD SWAP2 SWAP1 PUSH2 0x259 JUMP JUMPDEST PUSH1 0x40 MLOAD DUP1 SWAP2 SUB SWAP1 RETURN JUMPDEST PUSH2 0xBE PUSH2 0x1BA JUMP JUMPDEST PUSH1 0x40 MLOAD PUSH2 0xCB SWAP2 SWAP1 PUSH2 0x28F JUMP JUMPDEST PUSH1 0x40 MLOAD DUP1 SWAP2 SUB SWAP1 RETURN JUMPDEST PUSH2 0xDC PUSH2 0x1CB JUMP JUMPDEST PUSH1 0x40 MLOAD PUSH2 0xE9 SWAP2 SWAP1 PUSH2 0x2C3 JUMP JUMPDEST PUSH1 0x40 MLOAD DUP1 SWAP2 SUB SWAP1 RETURN JUMPDEST PUSH2 0xFA PUSH2 0x1D1 JUMP JUMPDEST PUSH1 0x40 MLOAD PUSH2 0x107 SWAP2 SWAP1 PUSH2 0x31F JUMP JUMPDEST PUSH1 0x40 MLOAD DUP1 SWAP2 SUB SWAP1 RETURN JUMPDEST PUSH2 0x118 PUSH2 0x1F7 JUMP JUMPDEST PUSH1 0x40 MLOAD PUSH2 0x125 SWAP2 SWAP1 PUSH2 0x353 JUMP JUMPDEST PUSH1 0x40 MLOAD DUP1 SWAP2 SUB SWAP1 RETURN JUMPDEST PUSH2 0x136 PUSH2 0x1FD JUMP JUMPDEST PUSH1 0x40 MLOAD PUSH2 0x143 SWAP2 SWAP1 PUSH2 0x353 JUMP JUMPDEST PUSH1 0x40 MLOAD DUP1 SWAP2 SUB SWAP1 RETURN JUMPDEST PUSH2 0x154 PUSH2 0x203 JUMP JUMPDEST PUSH1 0x40 MLOAD PUSH2 0x161 SWAP2 SWAP1 PUSH2 0x38A JUMP JUMPDEST PUSH1 0x40 MLOAD DUP1 SWAP2 SUB SWAP1 RETURN JUMPDEST PUSH2 0x172 PUSH2 0x216 JUMP JUMPDEST PUSH1 0x40 MLOAD PUSH2 0x17F SWAP2 SWAP1 PUSH2 0x3C1 JUMP JUMPDEST PUSH1 0x40 MLOAD DUP1 SWAP2 SUB SWAP1 RETURN JUMPDEST PUSH2 0x190 PUSH2 0x229 JUMP JUMPDEST PUSH1 0x40 MLOAD PUSH2 0x19D SWAP2 SWAP1 PUSH2 0x28F JUMP JUMPDEST PUSH1 0x40 MLOAD DUP1 SWAP2 SUB SWAP1 RETURN JUMPDEST PUSH1 0x0 PUSH1 0x3 SWAP1 SLOAD SWAP1 PUSH2 0x100 EXP SWAP1 DIV PUSH2 0xFFFF AND DUP2 JUMP JUMPDEST PUSH1 0x0 DUP1 SLOAD SWAP1 PUSH2 0x100 EXP SWAP1 DIV PUSH1 0xFF AND DUP2 JUMP JUMPDEST PUSH1 0x1 SLOAD DUP2 JUMP JUMPDEST PUSH1 0x5 PUSH1 0x0 SWAP1 SLOAD SWAP1 PUSH2 0x100 EXP SWAP1 DIV PUSH20 0xFFFFFFFFFFFFFFFFFFFFFFFFFFFFFFFFFFFFFFFF AND DUP2 JUMP JUMPDEST PUSH1 0x4 SLOAD DUP2 JUMP JUMPDEST PUSH1 0x3 SLOAD DUP2 JUMP JUMPDEST PUSH1 0x2 PUSH1 0x0 SWAP1 SLOAD SWAP1 PUSH2 0x100 EXP SWAP1 DIV PUSH1 0x0 SIGNEXTEND DUP2 JUMP JUMPDEST PUSH1 0x0 PUSH1 0x2 SWAP1 SLOAD SWAP1 PUSH2 0x100 EXP SWAP1 DIV PUSH1 0xFF AND DUP2 JUMP JUMPDEST PUSH1 0x0 PUSH1 0x1 SWAP1 SLOAD SWAP1 PUSH2 0x100 EXP SWAP1 DIV PUSH1 0xFF AND DUP2 JUMP JUMPDEST PUSH1 0x0 PUSH2 0xFFFF DUP3 AND SWAP1 POP SWAP2 SWAP1 POP JUMP JUMPDEST PUSH2 0x253 DUP2 PUSH2 0x23C JUMP JUMPDEST DUP3 MSTORE POP POP JUMP JUMPDEST PUSH1 0x0 PUSH1 0x20 DUP3 ADD SWAP1 POP PUSH2 0x26E PUSH1 0x0 DUP4 ADD DUP5 PUSH2 0x24A JUMP JUMPDEST SWAP3 SWAP2 POP POP JUMP JUMPDEST PUSH1 0x0 DUP2 ISZERO ISZERO SWAP1 POP SWAP2 SWAP1 POP JUMP JUMPDEST PUSH2 0x289 DUP2 PUSH2 0x274 JUMP JUMPDEST DUP3 MSTORE POP POP JUMP JUMPDEST PUSH1 0x0 PUSH1 0x20 DUP3 ADD SWAP1 POP PUSH2 0x2A4 PUSH1 0x0 DUP4 ADD DUP5 PUSH2 0x280 JUMP JUMPDEST SWAP3 SWAP2 POP POP JUMP JUMPDEST PUSH1 0x0 DUP2 SWAP1 POP SWAP2 SWAP1 POP JUMP JUMPDEST PUSH2 0x2BD DUP2 PUSH2 0x2AA JUMP JUMPDEST DUP3 MSTORE POP POP JUMP JUMPDEST PUSH1 0x0 PUSH1 0x20 DUP3 ADD SWAP1 POP PUSH2 0x2D8 PUSH1 0x0 DUP4 ADD DUP5 PUSH2 0x2B4 JUMP JUMPDEST SWAP3 SWAP2 POP POP JUMP JUMPDEST PUSH1 0x0 PUSH20 0xFFFFFFFFFFFFFFFFFFFFFFFFFFFFFFFFFFFFFFFF DUP3 AND SWAP1 POP SWAP2 SWAP1 POP JUMP JUMPDEST PUSH1 0x0 PUSH2 0x309 DUP3 PUSH2 0x2DE JUMP JUMPDEST SWAP1 POP SWAP2 SWAP1 POP JUMP JUMPDEST PUSH2 0x319 DUP2 PUSH2 0x2FE JUMP JUMPDEST DUP3 MSTORE POP POP JUMP JUMPDEST PUSH1 0x0 PUSH1 0x20 DUP3 ADD SWAP1 POP PUSH2 0x334 PUSH1 0x0 DUP4 ADD DUP5 PUSH2 0x310 JUMP JUMPDEST SWAP3 SWAP2 POP POP JUMP JUMPDEST PUSH1 0x0 DUP2 SWAP1 POP SWAP2 SWAP1 POP JUMP JUMPDEST PUSH2 0x34D DUP2 PUSH2 0x33A JUMP JUMPDEST DUP3 MSTORE POP POP JUMP JUMPDEST PUSH1 0x0 PUSH1 0x20 DUP3 ADD SWAP1 POP PUSH2 0x368 PUSH1 0x0 DUP4 ADD DUP5 PUSH2 0x344 JUMP JUMPDEST SWAP3 SWAP2 POP POP JUMP JUMPDEST PUSH1 0x0 DUP2 PUSH1 0x0 SIGNEXTEND SWAP1 POP SWAP2 SWAP1 POP JUMP JUMPDEST PUSH2 0x384 DUP2 PUSH2 0x36E JUMP JUMPDEST DUP3 MSTORE POP POP JUMP JUMPDEST PUSH1 0x0 PUSH1 0x20 DUP3 ADD SWAP1 POP PUSH2 0x39F PUSH1 0x0 DUP4 ADD DUP5 PUSH2 0x37B JUMP JUMPDEST SWAP3 SWAP2 POP POP JUMP JUMPDEST PUSH1 0x0 PUSH1 0xFF DUP3 AND SWAP1 POP SWAP2 SWAP1 POP JUMP JUMPDEST PUSH2 0x3BB DUP2 PUSH2 0x3A5 JUMP JUMPDEST DUP3 MSTORE POP POP JUMP JUMPDEST PUSH1 0x0 PUSH1 0x20 DUP3 ADD SWAP1 POP PUSH2 0x3D6 PUSH1 0x0 DUP4 ADD DUP5 PUSH2 0x3B2 JUMP JUMPDEST SWAP3 SWAP2 POP POP JUMP INVALID LOG2 PUSH5 0x6970667358 0x22 SLT KECCAK256 MLOAD MSTORE8 SWAP6 SWAP9 XOR 0xE9 0xF9 0xD7 0xD2 DUP10 REVERT 0xD8 PC OR 0xD7 POP PUSH28 0x9129D2D14FA48AD8D777A863CC489F64736F6C634300081200330000 "
				},
				"gasEstimates": {
					"creation": {
						"codeDepositCost": "208400",
						"executionCost": "212329",
						"totalCost": "420729"
					},
					"external": {
						"addr()": "2581",
						"boo1()": "2491",
						"boo2()": "2609",
						"i8()": "2519",
						"maxInt()": "2429",
						"minInt()": "2451",
						"u16()": "2522",
						"u256()": "2474",
						"u8()": "2587"
					}
				},
				"methodIdentifiers": {
					"addr()": "767800de",
					"boo1()": "32998752",
					"boo2()": "ff57603d",
					"i8()": "921cda74",
					"maxInt()": "7a4c2571",
					"minInt()": "7e4e14cc",
					"u16()": "0a6b4e06",
					"u256()": "459b1acf",
					"u8()": "ab3a58a3"
				}
			},
			"storageLayout": {
				"storage": [
					{
						"astId": 4,
						"contract": "contracts/datatype.sol:Primitive_datatype",
						"label": "boo1",
						"offset": 0,
						"slot": "0",
						"type": "t_bool"
					},
					{
						"astId": 7,
						"contract": "contracts/datatype.sol:Primitive_datatype",
						"label": "boo2",
						"offset": 1,
						"slot": "0",
						"type": "t_bool"
					},
					{
						"astId": 10,
						"contract": "contracts/datatype.sol:Primitive_datatype",
						"label": "u8",
						"offset": 2,
						"slot": "0",
						"type": "t_uint8"
					},
					{
						"astId": 13,
						"contract": "contracts/datatype.sol:Primitive_datatype",
						"label": "u16",
						"offset": 3,
						"slot": "0",
						"type": "t_uint16"
					},
					{
						"astId": 16,
						"contract": "contracts/datatype.sol:Primitive_datatype",
						"label": "u256",
						"offset": 0,
						"slot": "1",
						"type": "t_uint256"
					},
					{
						"astId": 19,
						"contract": "contracts/datatype.sol:Primitive_datatype",
						"label": "i8",
						"offset": 0,
						"slot": "2",
						"type": "t_int8"
					},
					{
						"astId": 26,
						"contract": "contracts/datatype.sol:Primitive_datatype",
						"label": "minInt",
						"offset": 0,
						"slot": "3",
						"type": "t_int256"
					},
					{
						"astId": 33,
						"contract": "contracts/datatype.sol:Primitive_datatype",
						"label": "maxInt",
						"offset": 0,
						"slot": "4",
						"type": "t_int256"
					},
					{
						"astId": 36,
						"contract": "contracts/datatype.sol:Primitive_datatype",
						"label": "addr",
						"offset": 0,
						"slot": "5",
						"type": "t_address"
					}
				],
				"types": {
					"t_address": {
						"encoding": "inplace",
						"label": "address",
						"numberOfBytes": "20"
					},
					"t_bool": {
						"encoding": "inplace",
						"label": "bool",
						"numberOfBytes": "1"
					},
					"t_int256": {
						"encoding": "inplace",
						"label": "int256",
						"numberOfBytes": "32"
					},
					"t_int8": {
						"encoding": "inplace",
						"label": "int8",
						"numberOfBytes": "1"
					},
					"t_uint16": {
						"encoding": "inplace",
						"label": "uint16",
						"numberOfBytes": "2"
					},
					"t_uint256": {
						"encoding": "inplace",
						"label": "uint256",
						"numberOfBytes": "32"
					},
					"t_uint8": {
						"encoding": "inplace",
						"label": "uint8",
						"numberOfBytes": "1"
					}
				}
			},
			"userdoc": {
				"kind": "user",
				"methods": {},
				"version": 1
			}
		}
	}
}