{
	"contracts/callsendtrns.sol": {
		"SendingFunds": {
			"abi": [
				{
					"inputs": [
						{
							"internalType": "address payable",
							"name": "_to",
							"type": "address"
						}
					],
					"name": "SendEtherCall",
					"outputs": [],
					"stateMutability": "payable",
					"type": "function"
				},
				{
					"inputs": [
						{
							"internalType": "address payable",
							"name": "_to",
							"type": "address"
						}
					],
					"name": "SendEtherSend",
					"outputs": [],
					"stateMutability": "payable",
					"type": "function"
				},
				{
					"inputs": [
						{
							"internalType": "address payable",
							"name": "_to",
							"type": "address"
						}
					],
					"name": "sendEtherTransfer",
					"outputs": [],
					"stateMutability": "payable",
					"type": "function"
				}
			],
			"devdoc": {
				"kind": "dev",
				"methods": {},
				"version": 1
			},
			"evm": {
				"assembly": "    /* \"contracts/callsendtrns.sol\":73:684  contract SendingFunds{... */\n  mstore(0x40, 0x80)\n  callvalue\n  dup1\n  iszero\n  tag_1\n  jumpi\n  0x00\n  dup1\n  revert\ntag_1:\n  pop\n  dataSize(sub_0)\n  dup1\n  dataOffset(sub_0)\n  0x00\n  codecopy\n  0x00\n  return\nstop\n\nsub_0: assembly {\n        /* \"contracts/callsendtrns.sol\":73:684  contract SendingFunds{... */\n      mstore(0x40, 0x80)\n      jumpi(tag_1, lt(calldatasize, 0x04))\n      shr(0xe0, calldataload(0x00))\n      dup1\n      0x1a7e1004\n      eq\n      tag_2\n      jumpi\n      dup1\n      0x50fe88fe\n      eq\n      tag_3\n      jumpi\n      dup1\n      0x843f9f4f\n      eq\n      tag_4\n      jumpi\n    tag_1:\n      0x00\n      dup1\n      revert\n        /* \"contracts/callsendtrns.sol\":101:256  function sendEtherTransfer(address payable _to) public payable{... */\n    tag_2:\n      tag_5\n      0x04\n      dup1\n      calldatasize\n      sub\n      dup2\n      add\n      swap1\n      tag_6\n      swap2\n      swap1\n      tag_7\n      jump\t// in\n    tag_6:\n      tag_8\n      jump\t// in\n    tag_5:\n      stop\n        /* \"contracts/callsendtrns.sol\":264:462  function SendEtherSend(address payable _to) public payable{... */\n    tag_3:\n      tag_9\n      0x04\n      dup1\n      calldatasize\n      sub\n      dup2\n      add\n      swap1\n      tag_10\n      swap2\n      swap1\n      tag_7\n      jump\t// in\n    tag_10:\n      tag_11\n      jump\t// in\n    tag_9:\n      stop\n        /* \"contracts/callsendtrns.sol\":470:681  function SendEtherCall(address payable _to) public payable{... */\n    tag_4:\n      tag_12\n      0x04\n      dup1\n      calldatasize\n      sub\n      dup2\n      add\n      swap1\n      tag_13\n      swap2\n      swap1\n      tag_7\n      jump\t// in\n    tag_13:\n      tag_14\n      jump\t// in\n    tag_12:\n      stop\n        /* \"contracts/callsendtrns.sol\":101:256  function sendEtherTransfer(address payable _to) public payable{... */\n    tag_8:\n        /* \"contracts/callsendtrns.sol\":208:211  _to */\n      dup1\n        /* \"contracts/callsendtrns.sol\":208:220  _to.transfer */\n      0xffffffffffffffffffffffffffffffffffffffff\n      and\n        /* \"contracts/callsendtrns.sol\":208:231  _to.transfer(msg.value) */\n      0x08fc\n        /* \"contracts/callsendtrns.sol\":221:230  msg.value */\n      callvalue\n        /* \"contracts/callsendtrns.sol\":208:231  _to.transfer(msg.value) */\n      swap1\n      dup2\n      iszero\n      mul\n      swap1\n      mload(0x40)\n      0x00\n      mload(0x40)\n      dup1\n      dup4\n      sub\n      dup2\n      dup6\n      dup9\n      dup9\n      call\n      swap4\n      pop\n      pop\n      pop\n      pop\n      iszero\n      dup1\n      iszero\n      tag_17\n      jumpi\n      returndatasize\n      0x00\n      dup1\n      returndatacopy\n      revert(0x00, returndatasize)\n    tag_17:\n      pop\n        /* \"contracts/callsendtrns.sol\":101:256  function sendEtherTransfer(address payable _to) public payable{... */\n      pop\n      jump\t// out\n        /* \"contracts/callsendtrns.sol\":264:462  function SendEtherSend(address payable _to) public payable{... */\n    tag_11:\n        /* \"contracts/callsendtrns.sol\":333:342  bool sent */\n      0x00\n        /* \"contracts/callsendtrns.sol\":343:346  _to */\n      dup2\n        /* \"contracts/callsendtrns.sol\":343:351  _to.send */\n      0xffffffffffffffffffffffffffffffffffffffff\n      and\n        /* \"contracts/callsendtrns.sol\":343:362  _to.send(msg.value) */\n      0x08fc\n        /* \"contracts/callsendtrns.sol\":352:361  msg.value */\n      callvalue\n        /* \"contracts/callsendtrns.sol\":343:362  _to.send(msg.value) */\n      swap1\n      dup2\n      iszero\n      mul\n      swap1\n      mload(0x40)\n      0x00\n      mload(0x40)\n      dup1\n      dup4\n      sub\n      dup2\n      dup6\n      dup9\n      dup9\n      call\n      swap4\n      pop\n      pop\n      pop\n      pop\n        /* \"contracts/callsendtrns.sol\":333:362  bool sent=_to.send(msg.value) */\n      swap1\n      pop\n        /* \"contracts/callsendtrns.sol\":425:429  sent */\n      dup1\n        /* \"contracts/callsendtrns.sol\":417:454  require(sent,\"Failed to send ether \") */\n      tag_20\n      jumpi\n      mload(0x40)\n      0x08c379a000000000000000000000000000000000000000000000000000000000\n      dup2\n      mstore\n      0x04\n      add\n      tag_21\n      swap1\n      tag_22\n      jump\t// in\n    tag_21:\n      mload(0x40)\n      dup1\n      swap2\n      sub\n      swap1\n      revert\n    tag_20:\n        /* \"contracts/callsendtrns.sol\":322:462  {... */\n      pop\n        /* \"contracts/callsendtrns.sol\":264:462  function SendEtherSend(address payable _to) public payable{... */\n      pop\n      jump\t// out\n        /* \"contracts/callsendtrns.sol\":470:681  function SendEtherCall(address payable _to) public payable{... */\n    tag_14:\n        /* \"contracts/callsendtrns.sol\":540:549  bool sent */\n      0x00\n        /* \"contracts/callsendtrns.sol\":552:555  _to */\n      dup2\n        /* \"contracts/callsendtrns.sol\":552:560  _to.call */\n      0xffffffffffffffffffffffffffffffffffffffff\n      and\n        /* \"contracts/callsendtrns.sol\":565:570  10000 */\n      0x2710\n        /* \"contracts/callsendtrns.sol\":577:586  msg.value */\n      callvalue\n        /* \"contracts/callsendtrns.sol\":552:591  _to.call{gas:10000,value:msg.value}(\"\") */\n      mload(0x40)\n      tag_24\n      swap1\n      tag_25\n      jump\t// in\n    tag_24:\n      0x00\n      mload(0x40)\n      dup1\n      dup4\n      sub\n      dup2\n      dup6\n      dup9\n      dup9\n      call\n      swap4\n      pop\n      pop\n      pop\n      pop\n      returndatasize\n      dup1\n      0x00\n      dup2\n      eq\n      tag_28\n      jumpi\n      mload(0x40)\n      swap2\n      pop\n      and(add(returndatasize, 0x3f), not(0x1f))\n      dup3\n      add\n      0x40\n      mstore\n      returndatasize\n      dup3\n      mstore\n      returndatasize\n      0x00\n      0x20\n      dup5\n      add\n      returndatacopy\n      jump(tag_27)\n    tag_28:\n      0x60\n      swap2\n      pop\n    tag_27:\n      pop\n        /* \"contracts/callsendtrns.sol\":539:591  (bool sent,)=_to.call{gas:10000,value:msg.value}(\"\") */\n      pop\n      swap1\n      pop\n        /* \"contracts/callsendtrns.sol\":645:649  sent */\n      dup1\n        /* \"contracts/callsendtrns.sol\":637:673  require(sent,\"failed to send ether\") */\n      tag_29\n      jumpi\n      mload(0x40)\n      0x08c379a000000000000000000000000000000000000000000000000000000000\n      dup2\n      mstore\n      0x04\n      add\n      tag_30\n      swap1\n      tag_31\n      jump\t// in\n    tag_30:\n      mload(0x40)\n      dup1\n      swap2\n      sub\n      swap1\n      revert\n    tag_29:\n        /* \"contracts/callsendtrns.sol\":528:681  {... */\n      pop\n        /* \"contracts/callsendtrns.sol\":470:681  function SendEtherCall(address payable _to) public payable{... */\n      pop\n      jump\t// out\n        /* \"#utility.yul\":88:205   */\n    tag_33:\n        /* \"#utility.yul\":197:198   */\n      0x00\n        /* \"#utility.yul\":194:195   */\n      dup1\n        /* \"#utility.yul\":187:199   */\n      revert\n        /* \"#utility.yul\":334:460   */\n    tag_35:\n        /* \"#utility.yul\":371:378   */\n      0x00\n        /* \"#utility.yul\":411:453   */\n      0xffffffffffffffffffffffffffffffffffffffff\n        /* \"#utility.yul\":404:409   */\n      dup3\n        /* \"#utility.yul\":400:454   */\n      and\n        /* \"#utility.yul\":389:454   */\n      swap1\n      pop\n        /* \"#utility.yul\":334:460   */\n      swap2\n      swap1\n      pop\n      jump\t// out\n        /* \"#utility.yul\":466:570   */\n    tag_36:\n        /* \"#utility.yul\":511:518   */\n      0x00\n        /* \"#utility.yul\":540:564   */\n      tag_53\n        /* \"#utility.yul\":558:563   */\n      dup3\n        /* \"#utility.yul\":540:564   */\n      tag_35\n      jump\t// in\n    tag_53:\n        /* \"#utility.yul\":529:564   */\n      swap1\n      pop\n        /* \"#utility.yul\":466:570   */\n      swap2\n      swap1\n      pop\n      jump\t// out\n        /* \"#utility.yul\":576:714   */\n    tag_37:\n        /* \"#utility.yul\":657:689   */\n      tag_55\n        /* \"#utility.yul\":683:688   */\n      dup2\n        /* \"#utility.yul\":657:689   */\n      tag_36\n      jump\t// in\n    tag_55:\n        /* \"#utility.yul\":650:655   */\n      dup2\n        /* \"#utility.yul\":647:690   */\n      eq\n        /* \"#utility.yul\":637:708   */\n      tag_56\n      jumpi\n        /* \"#utility.yul\":704:705   */\n      0x00\n        /* \"#utility.yul\":701:702   */\n      dup1\n        /* \"#utility.yul\":694:706   */\n      revert\n        /* \"#utility.yul\":637:708   */\n    tag_56:\n        /* \"#utility.yul\":576:714   */\n      pop\n      jump\t// out\n        /* \"#utility.yul\":720:875   */\n    tag_38:\n        /* \"#utility.yul\":774:779   */\n      0x00\n        /* \"#utility.yul\":812:818   */\n      dup2\n        /* \"#utility.yul\":799:819   */\n      calldataload\n        /* \"#utility.yul\":790:819   */\n      swap1\n      pop\n        /* \"#utility.yul\":828:869   */\n      tag_58\n        /* \"#utility.yul\":863:868   */\n      dup2\n        /* \"#utility.yul\":828:869   */\n      tag_37\n      jump\t// in\n    tag_58:\n        /* \"#utility.yul\":720:875   */\n      swap3\n      swap2\n      pop\n      pop\n      jump\t// out\n        /* \"#utility.yul\":881:1226   */\n    tag_7:\n        /* \"#utility.yul\":948:954   */\n      0x00\n        /* \"#utility.yul\":997:999   */\n      0x20\n        /* \"#utility.yul\":985:994   */\n      dup3\n        /* \"#utility.yul\":976:983   */\n      dup5\n        /* \"#utility.yul\":972:995   */\n      sub\n        /* \"#utility.yul\":968:1000   */\n      slt\n        /* \"#utility.yul\":965:1084   */\n      iszero\n      tag_60\n      jumpi\n        /* \"#utility.yul\":1003:1082   */\n      tag_61\n      tag_33\n      jump\t// in\n    tag_61:\n        /* \"#utility.yul\":965:1084   */\n    tag_60:\n        /* \"#utility.yul\":1123:1124   */\n      0x00\n        /* \"#utility.yul\":1148:1209   */\n      tag_62\n        /* \"#utility.yul\":1201:1208   */\n      dup5\n        /* \"#utility.yul\":1192:1198   */\n      dup3\n        /* \"#utility.yul\":1181:1190   */\n      dup6\n        /* \"#utility.yul\":1177:1199   */\n      add\n        /* \"#utility.yul\":1148:1209   */\n      tag_38\n      jump\t// in\n    tag_62:\n        /* \"#utility.yul\":1138:1209   */\n      swap2\n      pop\n        /* \"#utility.yul\":1094:1219   */\n      pop\n        /* \"#utility.yul\":881:1226   */\n      swap3\n      swap2\n      pop\n      pop\n      jump\t// out\n        /* \"#utility.yul\":1232:1401   */\n    tag_39:\n        /* \"#utility.yul\":1316:1327   */\n      0x00\n        /* \"#utility.yul\":1350:1356   */\n      dup3\n        /* \"#utility.yul\":1345:1348   */\n      dup3\n        /* \"#utility.yul\":1338:1357   */\n      mstore\n        /* \"#utility.yul\":1390:1394   */\n      0x20\n        /* \"#utility.yul\":1385:1388   */\n      dup3\n        /* \"#utility.yul\":1381:1395   */\n      add\n        /* \"#utility.yul\":1366:1395   */\n      swap1\n      pop\n        /* \"#utility.yul\":1232:1401   */\n      swap3\n      swap2\n      pop\n      pop\n      jump\t// out\n        /* \"#utility.yul\":1407:1578   */\n    tag_40:\n        /* \"#utility.yul\":1547:1570   */\n      0x4661696c656420746f2073656e64206574686572200000000000000000000000\n        /* \"#utility.yul\":1543:1544   */\n      0x00\n        /* \"#utility.yul\":1535:1541   */\n      dup3\n        /* \"#utility.yul\":1531:1545   */\n      add\n        /* \"#utility.yul\":1524:1571   */\n      mstore\n        /* \"#utility.yul\":1407:1578   */\n      pop\n      jump\t// out\n        /* \"#utility.yul\":1584:1950   */\n    tag_41:\n        /* \"#utility.yul\":1726:1729   */\n      0x00\n        /* \"#utility.yul\":1747:1814   */\n      tag_66\n        /* \"#utility.yul\":1811:1813   */\n      0x15\n        /* \"#utility.yul\":1806:1809   */\n      dup4\n        /* \"#utility.yul\":1747:1814   */\n      tag_39\n      jump\t// in\n    tag_66:\n        /* \"#utility.yul\":1740:1814   */\n      swap2\n      pop\n        /* \"#utility.yul\":1823:1916   */\n      tag_67\n        /* \"#utility.yul\":1912:1915   */\n      dup3\n        /* \"#utility.yul\":1823:1916   */\n      tag_40\n      jump\t// in\n    tag_67:\n        /* \"#utility.yul\":1941:1943   */\n      0x20\n        /* \"#utility.yul\":1936:1939   */\n      dup3\n        /* \"#utility.yul\":1932:1944   */\n      add\n        /* \"#utility.yul\":1925:1944   */\n      swap1\n      pop\n        /* \"#utility.yul\":1584:1950   */\n      swap2\n      swap1\n      pop\n      jump\t// out\n        /* \"#utility.yul\":1956:2375   */\n    tag_22:\n        /* \"#utility.yul\":2122:2126   */\n      0x00\n        /* \"#utility.yul\":2160:2162   */\n      0x20\n        /* \"#utility.yul\":2149:2158   */\n      dup3\n        /* \"#utility.yul\":2145:2163   */\n      add\n        /* \"#utility.yul\":2137:2163   */\n      swap1\n      pop\n        /* \"#utility.yul\":2209:2218   */\n      dup2\n        /* \"#utility.yul\":2203:2207   */\n      dup2\n        /* \"#utility.yul\":2199:2219   */\n      sub\n        /* \"#utility.yul\":2195:2196   */\n      0x00\n        /* \"#utility.yul\":2184:2193   */\n      dup4\n        /* \"#utility.yul\":2180:2197   */\n      add\n        /* \"#utility.yul\":2173:2220   */\n      mstore\n        /* \"#utility.yul\":2237:2368   */\n      tag_69\n        /* \"#utility.yul\":2363:2367   */\n      dup2\n        /* \"#utility.yul\":2237:2368   */\n      tag_41\n      jump\t// in\n    tag_69:\n        /* \"#utility.yul\":2229:2368   */\n      swap1\n      pop\n        /* \"#utility.yul\":1956:2375   */\n      swap2\n      swap1\n      pop\n      jump\t// out\n        /* \"#utility.yul\":2381:2528   */\n    tag_42:\n        /* \"#utility.yul\":2482:2493   */\n      0x00\n        /* \"#utility.yul\":2519:2522   */\n      dup2\n        /* \"#utility.yul\":2504:2522   */\n      swap1\n      pop\n        /* \"#utility.yul\":2381:2528   */\n      swap3\n      swap2\n      pop\n      pop\n      jump\t// out\n        /* \"#utility.yul\":2534:2648   */\n    tag_43:\n      pop\n      jump\t// out\n        /* \"#utility.yul\":2654:3052   */\n    tag_44:\n        /* \"#utility.yul\":2813:2816   */\n      0x00\n        /* \"#utility.yul\":2834:2917   */\n      tag_73\n        /* \"#utility.yul\":2915:2916   */\n      0x00\n        /* \"#utility.yul\":2910:2913   */\n      dup4\n        /* \"#utility.yul\":2834:2917   */\n      tag_42\n      jump\t// in\n    tag_73:\n        /* \"#utility.yul\":2827:2917   */\n      swap2\n      pop\n        /* \"#utility.yul\":2926:3019   */\n      tag_74\n        /* \"#utility.yul\":3015:3018   */\n      dup3\n        /* \"#utility.yul\":2926:3019   */\n      tag_43\n      jump\t// in\n    tag_74:\n        /* \"#utility.yul\":3044:3045   */\n      0x00\n        /* \"#utility.yul\":3039:3042   */\n      dup3\n        /* \"#utility.yul\":3035:3046   */\n      add\n        /* \"#utility.yul\":3028:3046   */\n      swap1\n      pop\n        /* \"#utility.yul\":2654:3052   */\n      swap2\n      swap1\n      pop\n      jump\t// out\n        /* \"#utility.yul\":3058:3437   */\n    tag_25:\n        /* \"#utility.yul\":3242:3245   */\n      0x00\n        /* \"#utility.yul\":3264:3411   */\n      tag_76\n        /* \"#utility.yul\":3407:3410   */\n      dup3\n        /* \"#utility.yul\":3264:3411   */\n      tag_44\n      jump\t// in\n    tag_76:\n        /* \"#utility.yul\":3257:3411   */\n      swap2\n      pop\n        /* \"#utility.yul\":3428:3431   */\n      dup2\n        /* \"#utility.yul\":3421:3431   */\n      swap1\n      pop\n        /* \"#utility.yul\":3058:3437   */\n      swap2\n      swap1\n      pop\n      jump\t// out\n        /* \"#utility.yul\":3443:3613   */\n    tag_45:\n        /* \"#utility.yul\":3583:3605   */\n      0x6661696c656420746f2073656e64206574686572000000000000000000000000\n        /* \"#utility.yul\":3579:3580   */\n      0x00\n        /* \"#utility.yul\":3571:3577   */\n      dup3\n        /* \"#utility.yul\":3567:3581   */\n      add\n        /* \"#utility.yul\":3560:3606   */\n      mstore\n        /* \"#utility.yul\":3443:3613   */\n      pop\n      jump\t// out\n        /* \"#utility.yul\":3619:3985   */\n    tag_46:\n        /* \"#utility.yul\":3761:3764   */\n      0x00\n        /* \"#utility.yul\":3782:3849   */\n      tag_79\n        /* \"#utility.yul\":3846:3848   */\n      0x14\n        /* \"#utility.yul\":3841:3844   */\n      dup4\n        /* \"#utility.yul\":3782:3849   */\n      tag_39\n      jump\t// in\n    tag_79:\n        /* \"#utility.yul\":3775:3849   */\n      swap2\n      pop\n        /* \"#utility.yul\":3858:3951   */\n      tag_80\n        /* \"#utility.yul\":3947:3950   */\n      dup3\n        /* \"#utility.yul\":3858:3951   */\n      tag_45\n      jump\t// in\n    tag_80:\n        /* \"#utility.yul\":3976:3978   */\n      0x20\n        /* \"#utility.yul\":3971:3974   */\n      dup3\n        /* \"#utility.yul\":3967:3979   */\n      add\n        /* \"#utility.yul\":3960:3979   */\n      swap1\n      pop\n        /* \"#utility.yul\":3619:3985   */\n      swap2\n      swap1\n      pop\n      jump\t// out\n        /* \"#utility.yul\":3991:4410   */\n    tag_31:\n        /* \"#utility.yul\":4157:4161   */\n      0x00\n        /* \"#utility.yul\":4195:4197   */\n      0x20\n        /* \"#utility.yul\":4184:4193   */\n      dup3\n        /* \"#utility.yul\":4180:4198   */\n      add\n        /* \"#utility.yul\":4172:4198   */\n      swap1\n      pop\n        /* \"#utility.yul\":4244:4253   */\n      dup2\n        /* \"#utility.yul\":4238:4242   */\n      dup2\n        /* \"#utility.yul\":4234:4254   */\n      sub\n        /* \"#utility.yul\":4230:4231   */\n      0x00\n        /* \"#utility.yul\":4219:4228   */\n      dup4\n        /* \"#utility.yul\":4215:4232   */\n      add\n        /* \"#utility.yul\":4208:4255   */\n      mstore\n        /* \"#utility.yul\":4272:4403   */\n      tag_82\n        /* \"#utility.yul\":4398:4402   */\n      dup2\n        /* \"#utility.yul\":4272:4403   */\n      tag_46\n      jump\t// in\n    tag_82:\n        /* \"#utility.yul\":4264:4403   */\n      swap1\n      pop\n        /* \"#utility.yul\":3991:4410   */\n      swap2\n      swap1\n      pop\n      jump\t// out\n\n    auxdata: 0xa264697066735822122072689f6d7e92f75b5e48b19e9ada75b8d7ec66f3aa4b2930817b0b923a25c83f64736f6c63430008120033\n}\n",
				"bytecode": {
					"linkReferences": {},
					"object": "608060405234801561001057600080fd5b506103fd806100206000396000f3fe6080604052600436106100345760003560e01c80631a7e10041461003957806350fe88fe14610055578063843f9f4f14610071575b600080fd5b610053600480360381019061004e919061026b565b61008d565b005b61006f600480360381019061006a919061026b565b6100d7565b005b61008b6004803603810190610086919061026b565b610154565b005b8073ffffffffffffffffffffffffffffffffffffffff166108fc349081150290604051600060405180830381858888f193505050501580156100d3573d6000803e3d6000fd5b5050565b60008173ffffffffffffffffffffffffffffffffffffffff166108fc349081150290604051600060405180830381858888f19350505050905080610150576040517f08c379a0000000000000000000000000000000000000000000000000000000008152600401610147906102f5565b60405180910390fd5b5050565b60008173ffffffffffffffffffffffffffffffffffffffff166127103460405161017d90610346565b600060405180830381858888f193505050503d80600081146101bb576040519150601f19603f3d011682016040523d82523d6000602084013e6101c0565b606091505b5050905080610204576040517f08c379a00000000000000000000000000000000000000000000000000000000081526004016101fb906103a7565b60405180910390fd5b5050565b600080fd5b600073ffffffffffffffffffffffffffffffffffffffff82169050919050565b60006102388261020d565b9050919050565b6102488161022d565b811461025357600080fd5b50565b6000813590506102658161023f565b92915050565b60006020828403121561028157610280610208565b5b600061028f84828501610256565b91505092915050565b600082825260208201905092915050565b7f4661696c656420746f2073656e64206574686572200000000000000000000000600082015250565b60006102df601583610298565b91506102ea826102a9565b602082019050919050565b6000602082019050818103600083015261030e816102d2565b9050919050565b600081905092915050565b50565b6000610330600083610315565b915061033b82610320565b600082019050919050565b600061035182610323565b9150819050919050565b7f6661696c656420746f2073656e64206574686572000000000000000000000000600082015250565b6000610391601483610298565b915061039c8261035b565b602082019050919050565b600060208201905081810360008301526103c081610384565b905091905056fea264697066735822122072689f6d7e92f75b5e48b19e9ada75b8d7ec66f3aa4b2930817b0b923a25c83f64736f6c63430008120033",
					"opcodes": "PUSH1 0x80 PUSH1 0x40 MSTORE CALLVALUE DUP1 ISZERO PUSH2 0x10 JUMPI PUSH1 0x0 DUP1 REVERT JUMPDEST POP PUSH2 0x3FD DUP1 PUSH2 0x20 PUSH1 0x0 CODECOPY PUSH1 0x0 RETURN INVALID PUSH1 0x80 PUSH1 0x40 MSTORE PUSH1 0x4 CALLDATASIZE LT PUSH2 0x34 JUMPI PUSH1 0x0 CALLDATALOAD PUSH1 0xE0 SHR DUP1 PUSH4 0x1A7E1004 EQ PUSH2 0x39 JUMPI DUP1 PUSH4 0x50FE88FE EQ PUSH2 0x55 JUMPI DUP1 PUSH4 0x843F9F4F EQ PUSH2 0x71 JUMPI JUMPDEST PUSH1 0x0 DUP1 REVERT JUMPDEST PUSH2 0x53 PUSH1 0x4 DUP1 CALLDATASIZE SUB DUP2 ADD SWAP1 PUSH2 0x4E SWAP2 SWAP1 PUSH2 0x26B JUMP JUMPDEST PUSH2 0x8D JUMP JUMPDEST STOP JUMPDEST PUSH2 0x6F PUSH1 0x4 DUP1 CALLDATASIZE SUB DUP2 ADD SWAP1 PUSH2 0x6A SWAP2 SWAP1 PUSH2 0x26B JUMP JUMPDEST PUSH2 0xD7 JUMP JUMPDEST STOP JUMPDEST PUSH2 0x8B PUSH1 0x4 DUP1 CALLDATASIZE SUB DUP2 ADD SWAP1 PUSH2 0x86 SWAP2 SWAP1 PUSH2 0x26B JUMP JUMPDEST PUSH2 0x154 JUMP JUMPDEST STOP JUMPDEST DUP1 PUSH20 0xFFFFFFFFFFFFFFFFFFFFFFFFFFFFFFFFFFFFFFFF AND PUSH2 0x8FC CALLVALUE SWAP1 DUP2 ISZERO MUL SWAP1 PUSH1 0x40 MLOAD PUSH1 0x0 PUSH1 0x40 MLOAD DUP1 DUP4 SUB DUP2 DUP6 DUP9 DUP9 CALL SWAP4 POP POP POP POP ISZERO DUP1 ISZERO PUSH2 0xD3 JUMPI RETURNDATASIZE PUSH1 0x0 DUP1 RETURNDATACOPY RETURNDATASIZE PUSH1 0x0 REVERT JUMPDEST POP POP JUMP JUMPDEST PUSH1 0x0 DUP2 PUSH20 0xFFFFFFFFFFFFFFFFFFFFFFFFFFFFFFFFFFFFFFFF AND PUSH2 0x8FC CALLVALUE SWAP1 DUP2 ISZERO MUL SWAP1 PUSH1 0x40 MLOAD PUSH1 0x0 PUSH1 0x40 MLOAD DUP1 DUP4 SUB DUP2 DUP6 DUP9 DUP9 CALL SWAP4 POP POP POP POP SWAP1 POP DUP1 PUSH2 0x150 JUMPI PUSH1 0x40 MLOAD PUSH32 0x8C379A000000000000000000000000000000000000000000000000000000000 DUP2 MSTORE PUSH1 0x4 ADD PUSH2 0x147 SWAP1 PUSH2 0x2F5 JUMP JUMPDEST PUSH1 0x40 MLOAD DUP1 SWAP2 SUB SWAP1 REVERT JUMPDEST POP POP JUMP JUMPDEST PUSH1 0x0 DUP2 PUSH20 0xFFFFFFFFFFFFFFFFFFFFFFFFFFFFFFFFFFFFFFFF AND PUSH2 0x2710 CALLVALUE PUSH1 0x40 MLOAD PUSH2 0x17D SWAP1 PUSH2 0x346 JUMP JUMPDEST PUSH1 0x0 PUSH1 0x40 MLOAD DUP1 DUP4 SUB DUP2 DUP6 DUP9 DUP9 CALL SWAP4 POP POP POP POP RETURNDATASIZE DUP1 PUSH1 0x0 DUP2 EQ PUSH2 0x1BB JUMPI PUSH1 0x40 MLOAD SWAP2 POP PUSH1 0x1F NOT PUSH1 0x3F RETURNDATASIZE ADD AND DUP3 ADD PUSH1 0x40 MSTORE RETURNDATASIZE DUP3 MSTORE RETURNDATASIZE PUSH1 0x0 PUSH1 0x20 DUP5 ADD RETURNDATACOPY PUSH2 0x1C0 JUMP JUMPDEST PUSH1 0x60 SWAP2 POP JUMPDEST POP POP SWAP1 POP DUP1 PUSH2 0x204 JUMPI PUSH1 0x40 MLOAD PUSH32 0x8C379A000000000000000000000000000000000000000000000000000000000 DUP2 MSTORE PUSH1 0x4 ADD PUSH2 0x1FB SWAP1 PUSH2 0x3A7 JUMP JUMPDEST PUSH1 0x40 MLOAD DUP1 SWAP2 SUB SWAP1 REVERT JUMPDEST POP POP JUMP JUMPDEST PUSH1 0x0 DUP1 REVERT JUMPDEST PUSH1 0x0 PUSH20 0xFFFFFFFFFFFFFFFFFFFFFFFFFFFFFFFFFFFFFFFF DUP3 AND SWAP1 POP SWAP2 SWAP1 POP JUMP JUMPDEST PUSH1 0x0 PUSH2 0x238 DUP3 PUSH2 0x20D JUMP JUMPDEST SWAP1 POP SWAP2 SWAP1 POP JUMP JUMPDEST PUSH2 0x248 DUP2 PUSH2 0x22D JUMP JUMPDEST DUP2 EQ PUSH2 0x253 JUMPI PUSH1 0x0 DUP1 REVERT JUMPDEST POP JUMP JUMPDEST PUSH1 0x0 DUP2 CALLDATALOAD SWAP1 POP PUSH2 0x265 DUP2 PUSH2 0x23F JUMP JUMPDEST SWAP3 SWAP2 POP POP JUMP JUMPDEST PUSH1 0x0 PUSH1 0x20 DUP3 DUP5 SUB SLT ISZERO PUSH2 0x281 JUMPI PUSH2 0x280 PUSH2 0x208 JUMP JUMPDEST JUMPDEST PUSH1 0x0 PUSH2 0x28F DUP5 DUP3 DUP6 ADD PUSH2 0x256 JUMP JUMPDEST SWAP2 POP POP SWAP3 SWAP2 POP POP JUMP JUMPDEST PUSH1 0x0 DUP3 DUP3 MSTORE PUSH1 0x20 DUP3 ADD SWAP1 POP SWAP3 SWAP2 POP POP JUMP JUMPDEST PUSH32 0x4661696C656420746F2073656E64206574686572200000000000000000000000 PUSH1 0x0 DUP3 ADD MSTORE POP JUMP JUMPDEST PUSH1 0x0 PUSH2 0x2DF PUSH1 0x15 DUP4 PUSH2 0x298 JUMP JUMPDEST SWAP2 POP PUSH2 0x2EA DUP3 PUSH2 0x2A9 JUMP JUMPDEST PUSH1 0x20 DUP3 ADD SWAP1 POP SWAP2 SWAP1 POP JUMP JUMPDEST PUSH1 0x0 PUSH1 0x20 DUP3 ADD SWAP1 POP DUP2 DUP2 SUB PUSH1 0x0 DUP4 ADD MSTORE PUSH2 0x30E DUP2 PUSH2 0x2D2 JUMP JUMPDEST SWAP1 POP SWAP2 SWAP1 POP JUMP JUMPDEST PUSH1 0x0 DUP2 SWAP1 POP SWAP3 SWAP2 POP POP JUMP JUMPDEST POP JUMP JUMPDEST PUSH1 0x0 PUSH2 0x330 PUSH1 0x0 DUP4 PUSH2 0x315 JUMP JUMPDEST SWAP2 POP PUSH2 0x33B DUP3 PUSH2 0x320 JUMP JUMPDEST PUSH1 0x0 DUP3 ADD SWAP1 POP SWAP2 SWAP1 POP JUMP JUMPDEST PUSH1 0x0 PUSH2 0x351 DUP3 PUSH2 0x323 JUMP JUMPDEST SWAP2 POP DUP2 SWAP1 POP SWAP2 SWAP1 POP JUMP JUMPDEST PUSH32 0x6661696C656420746F2073656E64206574686572000000000000000000000000 PUSH1 0x0 DUP3 ADD MSTORE POP JUMP JUMPDEST PUSH1 0x0 PUSH2 0x391 PUSH1 0x14 DUP4 PUSH2 0x298 JUMP JUMPDEST SWAP2 POP PUSH2 0x39C DUP3 PUSH2 0x35B JUMP JUMPDEST PUSH1 0x20 DUP3 ADD SWAP1 POP SWAP2 SWAP1 POP JUMP JUMPDEST PUSH1 0x0 PUSH1 0x20 DUP3 ADD SWAP1 POP DUP2 DUP2 SUB PUSH1 0x0 DUP4 ADD MSTORE PUSH2 0x3C0 DUP2 PUSH2 0x384 JUMP JUMPDEST SWAP1 POP SWAP2 SWAP1 POP JUMP INVALID LOG2 PUSH5 0x6970667358 0x22 SLT KECCAK256 PUSH19 0x689F6D7E92F75B5E48B19E9ADA75B8D7EC66F3 0xAA 0x4B 0x29 ADDRESS DUP2 PUSH28 0xB923A25C83F64736F6C634300081200330000000000000000000000 "
				},
				"gasEstimates": {
					"creation": {
						"codeDepositCost": "204200",
						"executionCost": "245",
						"totalCost": "204445"
					},
					"external": {
						"SendEtherCall(address)": "infinite",
						"SendEtherSend(address)": "infinite",
						"sendEtherTransfer(address)": "infinite"
					}
				},
				"methodIdentifiers": {
					"SendEtherCall(address)": "843f9f4f",
					"SendEtherSend(address)": "50fe88fe",
					"sendEtherTransfer(address)": "1a7e1004"
				}
			},
			"storageLayout": {
				"storage": [],
				"types": null
			},
			"userdoc": {
				"kind": "user",
				"methods": {},
				"version": 1
			}
		}
	}
}