{
	"contracts/Address.sol": {
		"Function": {
			"abi": [
				{
					"inputs": [],
					"name": "AssignValues",
					"outputs": [
						{
							"internalType": "uint256",
							"name": "x",
							"type": "uint256"
						},
						{
							"internalType": "bool",
							"name": "b",
							"type": "bool"
						},
						{
							"internalType": "int256",
							"name": "y",
							"type": "int256"
						}
					],
					"stateMutability": "pure",
					"type": "function"
				},
				{
					"inputs": [],
					"name": "destructuring",
					"outputs": [
						{
							"internalType": "uint256",
							"name": "",
							"type": "uint256"
						},
						{
							"internalType": "bool",
							"name": "",
							"type": "bool"
						},
						{
							"internalType": "uint256",
							"name": "",
							"type": "uint256"
						},
						{
							"internalType": "uint256",
							"name": "",
							"type": "uint256"
						}
					],
					"stateMutability": "pure",
					"type": "function"
				},
				{
					"inputs": [],
					"name": "returnMultiple",
					"outputs": [
						{
							"internalType": "uint256",
							"name": "",
							"type": "uint256"
						},
						{
							"internalType": "bool",
							"name": "",
							"type": "bool"
						},
						{
							"internalType": "uint256",
							"name": "",
							"type": "uint256"
						}
					],
					"stateMutability": "pure",
					"type": "function"
				},
				{
					"inputs": [],
					"name": "returnNamed",
					"outputs": [
						{
							"internalType": "uint256",
							"name": "x",
							"type": "uint256"
						},
						{
							"internalType": "bool",
							"name": "b",
							"type": "bool"
						},
						{
							"internalType": "int256",
							"name": "y",
							"type": "int256"
						}
					],
					"stateMutability": "pure",
					"type": "function"
				}
			],
			"devdoc": {
				"kind": "dev",
				"methods": {},
				"version": 1
			},
			"evm": {
				"assembly": "    /* \"contracts/Address.sol\":55:1024  contract Function {... */\n  mstore(0x40, 0x80)\n  callvalue\n  dup1\n  iszero\n  tag_1\n  jumpi\n  0x00\n  dup1\n  revert\ntag_1:\n  pop\n  dataSize(sub_0)\n  dup1\n  dataOffset(sub_0)\n  0x00\n  codecopy\n  0x00\n  return\nstop\n\nsub_0: assembly {\n        /* \"contracts/Address.sol\":55:1024  contract Function {... */\n      mstore(0x40, 0x80)\n      callvalue\n      dup1\n      iszero\n      tag_1\n      jumpi\n      0x00\n      dup1\n      revert\n    tag_1:\n      pop\n      jumpi(tag_2, lt(calldatasize, 0x04))\n      shr(0xe0, calldataload(0x00))\n      dup1\n      0x3dece511\n      eq\n      tag_3\n      jumpi\n      dup1\n      0x7297237f\n      eq\n      tag_4\n      jumpi\n      dup1\n      0xe61e4008\n      eq\n      tag_5\n      jumpi\n      dup1\n      0xeb0faae8\n      eq\n      tag_6\n      jumpi\n    tag_2:\n      0x00\n      dup1\n      revert\n        /* \"contracts/Address.sol\":79:263  function returnNamed()... */\n    tag_3:\n      tag_7\n      tag_8\n      jump\t// in\n    tag_7:\n      mload(0x40)\n      tag_9\n      swap4\n      swap3\n      swap2\n      swap1\n      tag_10\n      jump\t// in\n    tag_9:\n      mload(0x40)\n      dup1\n      swap2\n      sub\n      swap1\n      return\n        /* \"contracts/Address.sol\":456:792  function destructuring()... */\n    tag_4:\n      tag_11\n      tag_12\n      jump\t// in\n    tag_11:\n      mload(0x40)\n      tag_13\n      swap5\n      swap4\n      swap3\n      swap2\n      swap1\n      tag_14\n      jump\t// in\n    tag_13:\n      mload(0x40)\n      dup1\n      swap2\n      sub\n      swap1\n      return\n        /* \"contracts/Address.sol\":839:1022  function returnMultiple()... */\n    tag_5:\n      tag_15\n      tag_16\n      jump\t// in\n    tag_15:\n      mload(0x40)\n      tag_17\n      swap4\n      swap3\n      swap2\n      swap1\n      tag_18\n      jump\t// in\n    tag_17:\n      mload(0x40)\n      dup1\n      swap2\n      sub\n      swap1\n      return\n        /* \"contracts/Address.sol\":269:450  function AssignValues()... */\n    tag_6:\n      tag_19\n      tag_20\n      jump\t// in\n    tag_19:\n      mload(0x40)\n      tag_21\n      swap4\n      swap3\n      swap2\n      swap1\n      tag_10\n      jump\t// in\n    tag_21:\n      mload(0x40)\n      dup1\n      swap2\n      sub\n      swap1\n      return\n        /* \"contracts/Address.sol\":79:263  function returnNamed()... */\n    tag_8:\n        /* \"contracts/Address.sol\":160:169  uint256 x */\n      0x00\n        /* \"contracts/Address.sol\":183:189  bool b */\n      dup1\n        /* \"contracts/Address.sol\":203:211  int256 y */\n      0x00\n        /* \"contracts/Address.sol\":244:245  1 */\n      0x01\n        /* \"contracts/Address.sol\":247:251  true */\n      dup1\n        /* \"contracts/Address.sol\":253:255  -5 */\n      0xfffffffffffffffffffffffffffffffffffffffffffffffffffffffffffffffb\n        /* \"contracts/Address.sol\":236:256  return (1, true, -5) */\n      swap3\n      pop\n      swap3\n      pop\n      swap3\n      pop\n        /* \"contracts/Address.sol\":79:263  function returnNamed()... */\n      swap1\n      swap2\n      swap3\n      jump\t// out\n        /* \"contracts/Address.sol\":456:792  function destructuring()... */\n    tag_12:\n        /* \"contracts/Address.sol\":539:546  uint256 */\n      0x00\n        /* \"contracts/Address.sol\":560:564  bool */\n      dup1\n        /* \"contracts/Address.sol\":578:585  uint256 */\n      0x00\n        /* \"contracts/Address.sol\":599:606  uint256 */\n      dup1\n        /* \"contracts/Address.sol\":632:641  uint256 i */\n      0x00\n        /* \"contracts/Address.sol\":643:649  bool b */\n      dup1\n        /* \"contracts/Address.sol\":651:660  uint256 j */\n      0x00\n        /* \"contracts/Address.sol\":664:680  returnMultiple() */\n      tag_24\n        /* \"contracts/Address.sol\":664:678  returnMultiple */\n      tag_16\n        /* \"contracts/Address.sol\":664:680  returnMultiple() */\n      jump\t// in\n    tag_24:\n        /* \"contracts/Address.sol\":631:680  (uint256 i, bool b, uint256 j) = returnMultiple() */\n      swap3\n      pop\n      swap3\n      pop\n      swap3\n      pop\n        /* \"contracts/Address.sol\":694:697  300 */\n      0x012c\n        /* \"contracts/Address.sol\":690:697  i = 300 */\n      swap3\n      pop\n        /* \"contracts/Address.sol\":708:717  uint256 x */\n      0x00\n        /* \"contracts/Address.sol\":719:728  uint256 m */\n      dup1\n        /* \"contracts/Address.sol\":730:739  uint256 y */\n      0x00\n        /* \"contracts/Address.sol\":744:746  10 */\n      0x0a\n        /* \"contracts/Address.sol\":748:750  15 */\n      0x0f\n        /* \"contracts/Address.sol\":752:754  20 */\n      0x14\n        /* \"contracts/Address.sol\":707:755  (uint256 x, uint256 m, uint256 y) = (10, 15, 20) */\n      swap3\n      pop\n      swap3\n      pop\n      swap3\n      pop\n        /* \"contracts/Address.sol\":774:775  i */\n      dup6\n        /* \"contracts/Address.sol\":777:778  b */\n      dup6\n        /* \"contracts/Address.sol\":780:781  j */\n      dup6\n        /* \"contracts/Address.sol\":783:784  m */\n      dup5\n        /* \"contracts/Address.sol\":766:785  return (i, b, j, m) */\n      swap10\n      pop\n      swap10\n      pop\n      swap10\n      pop\n      swap10\n      pop\n      pop\n      pop\n      pop\n      pop\n      pop\n      pop\n        /* \"contracts/Address.sol\":456:792  function destructuring()... */\n      swap1\n      swap2\n      swap3\n      swap4\n      jump\t// out\n        /* \"contracts/Address.sol\":839:1022  function returnMultiple()... */\n    tag_16:\n        /* \"contracts/Address.sol\":923:930  uint256 */\n      0x00\n        /* \"contracts/Address.sol\":944:948  bool */\n      dup1\n        /* \"contracts/Address.sol\":962:969  uint256 */\n      0x00\n        /* \"contracts/Address.sol\":1002:1003  5 */\n      0x05\n        /* \"contracts/Address.sol\":1005:1010  false */\n      0x00\n        /* \"contracts/Address.sol\":1012:1014  10 */\n      0x0a\n        /* \"contracts/Address.sol\":994:1015  return (5, false, 10) */\n      swap3\n      pop\n      swap3\n      pop\n      swap3\n      pop\n        /* \"contracts/Address.sol\":839:1022  function returnMultiple()... */\n      swap1\n      swap2\n      swap3\n      jump\t// out\n        /* \"contracts/Address.sol\":269:450  function AssignValues()... */\n    tag_20:\n        /* \"contracts/Address.sol\":351:360  uint256 x */\n      0x00\n        /* \"contracts/Address.sol\":374:380  bool b */\n      dup1\n        /* \"contracts/Address.sol\":394:402  int256 y */\n      0x00\n        /* \"contracts/Address.sol\":269:450  function AssignValues()... */\n      swap1\n      swap2\n      swap3\n      jump\t// out\n        /* \"#utility.yul\":7:84   */\n    tag_27:\n        /* \"#utility.yul\":44:51   */\n      0x00\n        /* \"#utility.yul\":73:78   */\n      dup2\n        /* \"#utility.yul\":62:78   */\n      swap1\n      pop\n        /* \"#utility.yul\":7:84   */\n      swap2\n      swap1\n      pop\n      jump\t// out\n        /* \"#utility.yul\":90:208   */\n    tag_28:\n        /* \"#utility.yul\":177:201   */\n      tag_36\n        /* \"#utility.yul\":195:200   */\n      dup2\n        /* \"#utility.yul\":177:201   */\n      tag_27\n      jump\t// in\n    tag_36:\n        /* \"#utility.yul\":172:175   */\n      dup3\n        /* \"#utility.yul\":165:202   */\n      mstore\n        /* \"#utility.yul\":90:208   */\n      pop\n      pop\n      jump\t// out\n        /* \"#utility.yul\":214:304   */\n    tag_29:\n        /* \"#utility.yul\":248:255   */\n      0x00\n        /* \"#utility.yul\":291:296   */\n      dup2\n        /* \"#utility.yul\":284:297   */\n      iszero\n        /* \"#utility.yul\":277:298   */\n      iszero\n        /* \"#utility.yul\":266:298   */\n      swap1\n      pop\n        /* \"#utility.yul\":214:304   */\n      swap2\n      swap1\n      pop\n      jump\t// out\n        /* \"#utility.yul\":310:419   */\n    tag_30:\n        /* \"#utility.yul\":391:412   */\n      tag_39\n        /* \"#utility.yul\":406:411   */\n      dup2\n        /* \"#utility.yul\":391:412   */\n      tag_29\n      jump\t// in\n    tag_39:\n        /* \"#utility.yul\":386:389   */\n      dup3\n        /* \"#utility.yul\":379:413   */\n      mstore\n        /* \"#utility.yul\":310:419   */\n      pop\n      pop\n      jump\t// out\n        /* \"#utility.yul\":425:501   */\n    tag_31:\n        /* \"#utility.yul\":461:468   */\n      0x00\n        /* \"#utility.yul\":490:495   */\n      dup2\n        /* \"#utility.yul\":479:495   */\n      swap1\n      pop\n        /* \"#utility.yul\":425:501   */\n      swap2\n      swap1\n      pop\n      jump\t// out\n        /* \"#utility.yul\":507:622   */\n    tag_32:\n        /* \"#utility.yul\":592:615   */\n      tag_42\n        /* \"#utility.yul\":609:614   */\n      dup2\n        /* \"#utility.yul\":592:615   */\n      tag_31\n      jump\t// in\n    tag_42:\n        /* \"#utility.yul\":587:590   */\n      dup3\n        /* \"#utility.yul\":580:616   */\n      mstore\n        /* \"#utility.yul\":507:622   */\n      pop\n      pop\n      jump\t// out\n        /* \"#utility.yul\":628:1054   */\n    tag_10:\n        /* \"#utility.yul\":769:773   */\n      0x00\n        /* \"#utility.yul\":807:809   */\n      0x60\n        /* \"#utility.yul\":796:805   */\n      dup3\n        /* \"#utility.yul\":792:810   */\n      add\n        /* \"#utility.yul\":784:810   */\n      swap1\n      pop\n        /* \"#utility.yul\":820:891   */\n      tag_44\n        /* \"#utility.yul\":888:889   */\n      0x00\n        /* \"#utility.yul\":877:886   */\n      dup4\n        /* \"#utility.yul\":873:890   */\n      add\n        /* \"#utility.yul\":864:870   */\n      dup7\n        /* \"#utility.yul\":820:891   */\n      tag_28\n      jump\t// in\n    tag_44:\n        /* \"#utility.yul\":901:967   */\n      tag_45\n        /* \"#utility.yul\":963:965   */\n      0x20\n        /* \"#utility.yul\":952:961   */\n      dup4\n        /* \"#utility.yul\":948:966   */\n      add\n        /* \"#utility.yul\":939:945   */\n      dup6\n        /* \"#utility.yul\":901:967   */\n      tag_30\n      jump\t// in\n    tag_45:\n        /* \"#utility.yul\":977:1047   */\n      tag_46\n        /* \"#utility.yul\":1043:1045   */\n      0x40\n        /* \"#utility.yul\":1032:1041   */\n      dup4\n        /* \"#utility.yul\":1028:1046   */\n      add\n        /* \"#utility.yul\":1019:1025   */\n      dup5\n        /* \"#utility.yul\":977:1047   */\n      tag_32\n      jump\t// in\n    tag_46:\n        /* \"#utility.yul\":628:1054   */\n      swap5\n      swap4\n      pop\n      pop\n      pop\n      pop\n      jump\t// out\n        /* \"#utility.yul\":1060:1601   */\n    tag_14:\n        /* \"#utility.yul\":1231:1235   */\n      0x00\n        /* \"#utility.yul\":1269:1272   */\n      0x80\n        /* \"#utility.yul\":1258:1267   */\n      dup3\n        /* \"#utility.yul\":1254:1273   */\n      add\n        /* \"#utility.yul\":1246:1273   */\n      swap1\n      pop\n        /* \"#utility.yul\":1283:1354   */\n      tag_48\n        /* \"#utility.yul\":1351:1352   */\n      0x00\n        /* \"#utility.yul\":1340:1349   */\n      dup4\n        /* \"#utility.yul\":1336:1353   */\n      add\n        /* \"#utility.yul\":1327:1333   */\n      dup8\n        /* \"#utility.yul\":1283:1354   */\n      tag_28\n      jump\t// in\n    tag_48:\n        /* \"#utility.yul\":1364:1430   */\n      tag_49\n        /* \"#utility.yul\":1426:1428   */\n      0x20\n        /* \"#utility.yul\":1415:1424   */\n      dup4\n        /* \"#utility.yul\":1411:1429   */\n      add\n        /* \"#utility.yul\":1402:1408   */\n      dup7\n        /* \"#utility.yul\":1364:1430   */\n      tag_30\n      jump\t// in\n    tag_49:\n        /* \"#utility.yul\":1440:1512   */\n      tag_50\n        /* \"#utility.yul\":1508:1510   */\n      0x40\n        /* \"#utility.yul\":1497:1506   */\n      dup4\n        /* \"#utility.yul\":1493:1511   */\n      add\n        /* \"#utility.yul\":1484:1490   */\n      dup6\n        /* \"#utility.yul\":1440:1512   */\n      tag_28\n      jump\t// in\n    tag_50:\n        /* \"#utility.yul\":1522:1594   */\n      tag_51\n        /* \"#utility.yul\":1590:1592   */\n      0x60\n        /* \"#utility.yul\":1579:1588   */\n      dup4\n        /* \"#utility.yul\":1575:1593   */\n      add\n        /* \"#utility.yul\":1566:1572   */\n      dup5\n        /* \"#utility.yul\":1522:1594   */\n      tag_28\n      jump\t// in\n    tag_51:\n        /* \"#utility.yul\":1060:1601   */\n      swap6\n      swap5\n      pop\n      pop\n      pop\n      pop\n      pop\n      jump\t// out\n        /* \"#utility.yul\":1607:2037   */\n    tag_18:\n        /* \"#utility.yul\":1750:1754   */\n      0x00\n        /* \"#utility.yul\":1788:1790   */\n      0x60\n        /* \"#utility.yul\":1777:1786   */\n      dup3\n        /* \"#utility.yul\":1773:1791   */\n      add\n        /* \"#utility.yul\":1765:1791   */\n      swap1\n      pop\n        /* \"#utility.yul\":1801:1872   */\n      tag_53\n        /* \"#utility.yul\":1869:1870   */\n      0x00\n        /* \"#utility.yul\":1858:1867   */\n      dup4\n        /* \"#utility.yul\":1854:1871   */\n      add\n        /* \"#utility.yul\":1845:1851   */\n      dup7\n        /* \"#utility.yul\":1801:1872   */\n      tag_28\n      jump\t// in\n    tag_53:\n        /* \"#utility.yul\":1882:1948   */\n      tag_54\n        /* \"#utility.yul\":1944:1946   */\n      0x20\n        /* \"#utility.yul\":1933:1942   */\n      dup4\n        /* \"#utility.yul\":1929:1947   */\n      add\n        /* \"#utility.yul\":1920:1926   */\n      dup6\n        /* \"#utility.yul\":1882:1948   */\n      tag_30\n      jump\t// in\n    tag_54:\n        /* \"#utility.yul\":1958:2030   */\n      tag_55\n        /* \"#utility.yul\":2026:2028   */\n      0x40\n        /* \"#utility.yul\":2015:2024   */\n      dup4\n        /* \"#utility.yul\":2011:2029   */\n      add\n        /* \"#utility.yul\":2002:2008   */\n      dup5\n        /* \"#utility.yul\":1958:2030   */\n      tag_28\n      jump\t// in\n    tag_55:\n        /* \"#utility.yul\":1607:2037   */\n      swap5\n      swap4\n      pop\n      pop\n      pop\n      pop\n      jump\t// out\n\n    auxdata: 0xa2646970667358221220c84f1c835659d8fddd67acfc499480284ae46ee4931f2e9b59ebfdebe65c5ff064736f6c63430008120033\n}\n",
				"bytecode": {
					"linkReferences": {},
					"object": "608060405234801561001057600080fd5b506102a3806100206000396000f3fe608060405234801561001057600080fd5b506004361061004c5760003560e01c80633dece511146100515780637297237f14610071578063e61e400814610092578063eb0faae8146100b2575b600080fd5b6100596100d2565b604051610068939291906101ba565b60405180910390f35b610079610106565b60405161008994939291906101f1565b60405180910390f35b61009a61014d565b6040516100a993929190610236565b60405180910390f35b6100ba610163565b6040516100c9939291906101ba565b60405180910390f35b60008060006001807ffffffffffffffffffffffffffffffffffffffffffffffffffffffffffffffffb925092509250909192565b600080600080600080600061011961014d565b92509250925061012c92506000806000600a600f601492509250925085858584995099509950995050505050505090919293565b600080600060056000600a925092509250909192565b6000806000909192565b6000819050919050565b6101808161016d565b82525050565b60008115159050919050565b61019b81610186565b82525050565b6000819050919050565b6101b4816101a1565b82525050565b60006060820190506101cf6000830186610177565b6101dc6020830185610192565b6101e960408301846101ab565b949350505050565b60006080820190506102066000830187610177565b6102136020830186610192565b6102206040830185610177565b61022d6060830184610177565b95945050505050565b600060608201905061024b6000830186610177565b6102586020830185610192565b6102656040830184610177565b94935050505056fea2646970667358221220c84f1c835659d8fddd67acfc499480284ae46ee4931f2e9b59ebfdebe65c5ff064736f6c63430008120033",
					"opcodes": "PUSH1 0x80 PUSH1 0x40 MSTORE CALLVALUE DUP1 ISZERO PUSH2 0x10 JUMPI PUSH1 0x0 DUP1 REVERT JUMPDEST POP PUSH2 0x2A3 DUP1 PUSH2 0x20 PUSH1 0x0 CODECOPY PUSH1 0x0 RETURN INVALID PUSH1 0x80 PUSH1 0x40 MSTORE CALLVALUE DUP1 ISZERO PUSH2 0x10 JUMPI PUSH1 0x0 DUP1 REVERT JUMPDEST POP PUSH1 0x4 CALLDATASIZE LT PUSH2 0x4C JUMPI PUSH1 0x0 CALLDATALOAD PUSH1 0xE0 SHR DUP1 PUSH4 0x3DECE511 EQ PUSH2 0x51 JUMPI DUP1 PUSH4 0x7297237F EQ PUSH2 0x71 JUMPI DUP1 PUSH4 0xE61E4008 EQ PUSH2 0x92 JUMPI DUP1 PUSH4 0xEB0FAAE8 EQ PUSH2 0xB2 JUMPI JUMPDEST PUSH1 0x0 DUP1 REVERT JUMPDEST PUSH2 0x59 PUSH2 0xD2 JUMP JUMPDEST PUSH1 0x40 MLOAD PUSH2 0x68 SWAP4 SWAP3 SWAP2 SWAP1 PUSH2 0x1BA JUMP JUMPDEST PUSH1 0x40 MLOAD DUP1 SWAP2 SUB SWAP1 RETURN JUMPDEST PUSH2 0x79 PUSH2 0x106 JUMP JUMPDEST PUSH1 0x40 MLOAD PUSH2 0x89 SWAP5 SWAP4 SWAP3 SWAP2 SWAP1 PUSH2 0x1F1 JUMP JUMPDEST PUSH1 0x40 MLOAD DUP1 SWAP2 SUB SWAP1 RETURN JUMPDEST PUSH2 0x9A PUSH2 0x14D JUMP JUMPDEST PUSH1 0x40 MLOAD PUSH2 0xA9 SWAP4 SWAP3 SWAP2 SWAP1 PUSH2 0x236 JUMP JUMPDEST PUSH1 0x40 MLOAD DUP1 SWAP2 SUB SWAP1 RETURN JUMPDEST PUSH2 0xBA PUSH2 0x163 JUMP JUMPDEST PUSH1 0x40 MLOAD PUSH2 0xC9 SWAP4 SWAP3 SWAP2 SWAP1 PUSH2 0x1BA JUMP JUMPDEST PUSH1 0x40 MLOAD DUP1 SWAP2 SUB SWAP1 RETURN JUMPDEST PUSH1 0x0 DUP1 PUSH1 0x0 PUSH1 0x1 DUP1 PUSH32 0xFFFFFFFFFFFFFFFFFFFFFFFFFFFFFFFFFFFFFFFFFFFFFFFFFFFFFFFFFFFFFFFB SWAP3 POP SWAP3 POP SWAP3 POP SWAP1 SWAP2 SWAP3 JUMP JUMPDEST PUSH1 0x0 DUP1 PUSH1 0x0 DUP1 PUSH1 0x0 DUP1 PUSH1 0x0 PUSH2 0x119 PUSH2 0x14D JUMP JUMPDEST SWAP3 POP SWAP3 POP SWAP3 POP PUSH2 0x12C SWAP3 POP PUSH1 0x0 DUP1 PUSH1 0x0 PUSH1 0xA PUSH1 0xF PUSH1 0x14 SWAP3 POP SWAP3 POP SWAP3 POP DUP6 DUP6 DUP6 DUP5 SWAP10 POP SWAP10 POP SWAP10 POP SWAP10 POP POP POP POP POP POP POP SWAP1 SWAP2 SWAP3 SWAP4 JUMP JUMPDEST PUSH1 0x0 DUP1 PUSH1 0x0 PUSH1 0x5 PUSH1 0x0 PUSH1 0xA SWAP3 POP SWAP3 POP SWAP3 POP SWAP1 SWAP2 SWAP3 JUMP JUMPDEST PUSH1 0x0 DUP1 PUSH1 0x0 SWAP1 SWAP2 SWAP3 JUMP JUMPDEST PUSH1 0x0 DUP2 SWAP1 POP SWAP2 SWAP1 POP JUMP JUMPDEST PUSH2 0x180 DUP2 PUSH2 0x16D JUMP JUMPDEST DUP3 MSTORE POP POP JUMP JUMPDEST PUSH1 0x0 DUP2 ISZERO ISZERO SWAP1 POP SWAP2 SWAP1 POP JUMP JUMPDEST PUSH2 0x19B DUP2 PUSH2 0x186 JUMP JUMPDEST DUP3 MSTORE POP POP JUMP JUMPDEST PUSH1 0x0 DUP2 SWAP1 POP SWAP2 SWAP1 POP JUMP JUMPDEST PUSH2 0x1B4 DUP2 PUSH2 0x1A1 JUMP JUMPDEST DUP3 MSTORE POP POP JUMP JUMPDEST PUSH1 0x0 PUSH1 0x60 DUP3 ADD SWAP1 POP PUSH2 0x1CF PUSH1 0x0 DUP4 ADD DUP7 PUSH2 0x177 JUMP JUMPDEST PUSH2 0x1DC PUSH1 0x20 DUP4 ADD DUP6 PUSH2 0x192 JUMP JUMPDEST PUSH2 0x1E9 PUSH1 0x40 DUP4 ADD DUP5 PUSH2 0x1AB JUMP JUMPDEST SWAP5 SWAP4 POP POP POP POP JUMP JUMPDEST PUSH1 0x0 PUSH1 0x80 DUP3 ADD SWAP1 POP PUSH2 0x206 PUSH1 0x0 DUP4 ADD DUP8 PUSH2 0x177 JUMP JUMPDEST PUSH2 0x213 PUSH1 0x20 DUP4 ADD DUP7 PUSH2 0x192 JUMP JUMPDEST PUSH2 0x220 PUSH1 0x40 DUP4 ADD DUP6 PUSH2 0x177 JUMP JUMPDEST PUSH2 0x22D PUSH1 0x60 DUP4 ADD DUP5 PUSH2 0x177 JUMP JUMPDEST SWAP6 SWAP5 POP POP POP POP POP JUMP JUMPDEST PUSH1 0x0 PUSH1 0x60 DUP3 ADD SWAP1 POP PUSH2 0x24B PUSH1 0x0 DUP4 ADD DUP7 PUSH2 0x177 JUMP JUMPDEST PUSH2 0x258 PUSH1 0x20 DUP4 ADD DUP6 PUSH2 0x192 JUMP JUMPDEST PUSH2 0x265 PUSH1 0x40 DUP4 ADD DUP5 PUSH2 0x177 JUMP JUMPDEST SWAP5 SWAP4 POP POP POP POP JUMP INVALID LOG2 PUSH5 0x6970667358 0x22 SLT KECCAK256 0xC8 0x4F SHR DUP4 JUMP MSIZE 0xD8 REVERT 0xDD PUSH8 0xACFC499480284AE4 PUSH15 0xE4931F2E9B59EBFDEBE65C5FF06473 PUSH16 0x6C634300081200330000000000000000 "
				},
				"gasEstimates": {
					"creation": {
						"codeDepositCost": "135000",
						"executionCost": "183",
						"totalCost": "135183"
					},
					"external": {
						"AssignValues()": "591",
						"destructuring()": "infinite",
						"returnMultiple()": "infinite",
						"returnNamed()": "549"
					}
				},
				"methodIdentifiers": {
					"AssignValues()": "eb0faae8",
					"destructuring()": "7297237f",
					"returnMultiple()": "e61e4008",
					"returnNamed()": "3dece511"
				}
			},
			"storageLayout": {
				"storage": [],
				"types": null
			},
			"userdoc": {
				"kind": "user",
				"methods": {},
				"version": 1
			}
		}
	}
}