{
	"contracts/payable.sol": {
		"Payable": {
			"abi": [
				{
					"inputs": [],
					"stateMutability": "payable",
					"type": "constructor"
				},
				{
					"inputs": [],
					"name": "deposit",
					"outputs": [],
					"stateMutability": "payable",
					"type": "function"
				},
				{
					"inputs": [],
					"name": "nonPayable",
					"outputs": [],
					"stateMutability": "nonpayable",
					"type": "function"
				},
				{
					"inputs": [],
					"name": "owner",
					"outputs": [
						{
							"internalType": "address payable",
							"name": "",
							"type": "address"
						}
					],
					"stateMutability": "view",
					"type": "function"
				},
				{
					"inputs": [
						{
							"internalType": "address payable",
							"name": "_to",
							"type": "address"
						},
						{
							"internalType": "uint256",
							"name": "_amount",
							"type": "uint256"
						}
					],
					"name": "transfer",
					"outputs": [],
					"stateMutability": "payable",
					"type": "function"
				},
				{
					"inputs": [],
					"name": "withdraw",
					"outputs": [],
					"stateMutability": "nonpayable",
					"type": "function"
				}
			],
			"devdoc": {
				"kind": "dev",
				"methods": {},
				"version": 1
			},
			"evm": {
				"assembly": "    /* \"contracts/payable.sol\":70:1175  contract Payable {... */\n  mstore(0x40, 0x80)\n    /* \"contracts/payable.sol\":297:307  msg.sender */\n  caller\n    /* \"contracts/payable.sol\":281:286  owner */\n  0x00\n  dup1\n    /* \"contracts/payable.sol\":281:308  owner = payable(msg.sender) */\n  0x0100\n  exp\n  dup2\n  sload\n  dup2\n  0xffffffffffffffffffffffffffffffffffffffff\n  mul\n  not\n  and\n  swap1\n  dup4\n  0xffffffffffffffffffffffffffffffffffffffff\n  and\n  mul\n  or\n  swap1\n  sstore\n  pop\n    /* \"contracts/payable.sol\":70:1175  contract Payable {... */\n  dataSize(sub_0)\n  dup1\n  dataOffset(sub_0)\n  0x00\n  codecopy\n  0x00\n  return\nstop\n\nsub_0: assembly {\n        /* \"contracts/payable.sol\":70:1175  contract Payable {... */\n      mstore(0x40, 0x80)\n      jumpi(tag_1, lt(calldatasize, 0x04))\n      shr(0xe0, calldataload(0x00))\n      dup1\n      0x3ccfd60b\n      eq\n      tag_2\n      jumpi\n      dup1\n      0x52da86d5\n      eq\n      tag_3\n      jumpi\n      dup1\n      0x8da5cb5b\n      eq\n      tag_4\n      jumpi\n      dup1\n      0xa9059cbb\n      eq\n      tag_5\n      jumpi\n      dup1\n      0xd0e30db0\n      eq\n      tag_6\n      jumpi\n    tag_1:\n      0x00\n      dup1\n      revert\n        /* \"contracts/payable.sol\":473:910  function withdraw() public {... */\n    tag_2:\n      callvalue\n      dup1\n      iszero\n      tag_7\n      jumpi\n      0x00\n      dup1\n      revert\n    tag_7:\n      pop\n      tag_8\n      tag_9\n      jump\t// in\n    tag_8:\n      stop\n        /* \"contracts/payable.sol\":436:467  function nonPayable() public {} */\n    tag_3:\n      callvalue\n      dup1\n      iszero\n      tag_10\n      jumpi\n      0x00\n      dup1\n      revert\n    tag_10:\n      pop\n      tag_11\n      tag_12\n      jump\t// in\n    tag_11:\n      stop\n        /* \"contracts/payable.sol\":142:170  address payable public owner */\n    tag_4:\n      callvalue\n      dup1\n      iszero\n      tag_13\n      jumpi\n      0x00\n      dup1\n      revert\n    tag_13:\n      pop\n      tag_14\n      tag_15\n      jump\t// in\n    tag_14:\n      mload(0x40)\n      tag_16\n      swap2\n      swap1\n      tag_17\n      jump\t// in\n    tag_16:\n      mload(0x40)\n      dup1\n      swap2\n      sub\n      swap1\n      return\n        /* \"contracts/payable.sol\":916:1173  function transfer(address payable _to, uint256 _amount) public payable {... */\n    tag_5:\n      tag_18\n      0x04\n      dup1\n      calldatasize\n      sub\n      dup2\n      add\n      swap1\n      tag_19\n      swap2\n      swap1\n      tag_20\n      jump\t// in\n    tag_19:\n      tag_21\n      jump\t// in\n    tag_18:\n      stop\n        /* \"contracts/payable.sol\":362:398  function deposit() public payable {} */\n    tag_6:\n      tag_22\n      tag_23\n      jump\t// in\n    tag_22:\n      stop\n        /* \"contracts/payable.sol\":473:910  function withdraw() public {... */\n    tag_9:\n        /* \"contracts/payable.sol\":510:524  uint256 amount */\n      0x00\n        /* \"contracts/payable.sol\":527:548  address(this).balance */\n      selfbalance\n        /* \"contracts/payable.sol\":510:548  uint256 amount = address(this).balance */\n      swap1\n      pop\n        /* \"contracts/payable.sol\":661:673  bool success */\n      0x00\n        /* \"contracts/payable.sol\":679:684  owner */\n      dup1\n      0x00\n      swap1\n      sload\n      swap1\n      0x0100\n      exp\n      swap1\n      div\n      0xffffffffffffffffffffffffffffffffffffffff\n      and\n        /* \"contracts/payable.sol\":679:689  owner.call */\n      0xffffffffffffffffffffffffffffffffffffffff\n      and\n        /* \"contracts/payable.sol\":697:703  amount */\n      dup3\n        /* \"contracts/payable.sol\":679:741  owner.call{value: amount}(\"Amount withdraw from the contract\") */\n      mload(0x40)\n      tag_25\n      swap1\n      tag_26\n      jump\t// in\n    tag_25:\n      0x00\n      mload(0x40)\n      dup1\n      dup4\n      sub\n      dup2\n      dup6\n      dup8\n      gas\n      call\n      swap3\n      pop\n      pop\n      pop\n      returndatasize\n      dup1\n      0x00\n      dup2\n      eq\n      tag_29\n      jumpi\n      mload(0x40)\n      swap2\n      pop\n      and(add(returndatasize, 0x3f), not(0x1f))\n      dup3\n      add\n      0x40\n      mstore\n      returndatasize\n      dup3\n      mstore\n      returndatasize\n      0x00\n      0x20\n      dup5\n      add\n      returndatacopy\n      jump(tag_28)\n    tag_29:\n      0x60\n      swap2\n      pop\n    tag_28:\n      pop\n        /* \"contracts/payable.sol\":660:741  (bool success, ) = owner.call{value: amount}(\"Amount withdraw from the contract\") */\n      pop\n      swap1\n      pop\n        /* \"contracts/payable.sol\":868:875  success */\n      dup1\n        /* \"contracts/payable.sol\":860:903  require(success, \"Failed to receive ether\") */\n      tag_30\n      jumpi\n      mload(0x40)\n      0x08c379a000000000000000000000000000000000000000000000000000000000\n      dup2\n      mstore\n      0x04\n      add\n      tag_31\n      swap1\n      tag_32\n      jump\t// in\n    tag_31:\n      mload(0x40)\n      dup1\n      swap2\n      sub\n      swap1\n      revert\n    tag_30:\n        /* \"contracts/payable.sol\":500:910  {... */\n      pop\n      pop\n        /* \"contracts/payable.sol\":473:910  function withdraw() public {... */\n      jump\t// out\n        /* \"contracts/payable.sol\":436:467  function nonPayable() public {} */\n    tag_12:\n      jump\t// out\n        /* \"contracts/payable.sol\":142:170  address payable public owner */\n    tag_15:\n      0x00\n      dup1\n      sload\n      swap1\n      0x0100\n      exp\n      swap1\n      div\n      0xffffffffffffffffffffffffffffffffffffffff\n      and\n      dup2\n      jump\t// out\n        /* \"contracts/payable.sol\":916:1173  function transfer(address payable _to, uint256 _amount) public payable {... */\n    tag_21:\n        /* \"contracts/payable.sol\":998:1010  bool success */\n      0x00\n        /* \"contracts/payable.sol\":1016:1019  _to */\n      dup3\n        /* \"contracts/payable.sol\":1016:1024  _to.call */\n      0xffffffffffffffffffffffffffffffffffffffff\n      and\n        /* \"contracts/payable.sol\":1032:1039  _amount */\n      dup3\n        /* \"contracts/payable.sol\":1016:1044  _to.call{value: _amount}(\"\") */\n      mload(0x40)\n      tag_35\n      swap1\n      tag_36\n      jump\t// in\n    tag_35:\n      0x00\n      mload(0x40)\n      dup1\n      dup4\n      sub\n      dup2\n      dup6\n      dup8\n      gas\n      call\n      swap3\n      pop\n      pop\n      pop\n      returndatasize\n      dup1\n      0x00\n      dup2\n      eq\n      tag_39\n      jumpi\n      mload(0x40)\n      swap2\n      pop\n      and(add(returndatasize, 0x3f), not(0x1f))\n      dup3\n      add\n      0x40\n      mstore\n      returndatasize\n      dup3\n      mstore\n      returndatasize\n      0x00\n      0x20\n      dup5\n      add\n      returndatacopy\n      jump(tag_38)\n    tag_39:\n      0x60\n      swap2\n      pop\n    tag_38:\n      pop\n        /* \"contracts/payable.sol\":997:1044  (bool success, ) = _to.call{value: _amount}(\"\") */\n      pop\n      swap1\n      pop\n        /* \"contracts/payable.sol\":1123:1130  success */\n      dup1\n        /* \"contracts/payable.sol\":1115:1166  require(success, \"Failed to send ether to address\") */\n      tag_40\n      jumpi\n      mload(0x40)\n      0x08c379a000000000000000000000000000000000000000000000000000000000\n      dup2\n      mstore\n      0x04\n      add\n      tag_41\n      swap1\n      tag_42\n      jump\t// in\n    tag_41:\n      mload(0x40)\n      dup1\n      swap2\n      sub\n      swap1\n      revert\n    tag_40:\n        /* \"contracts/payable.sol\":987:1173  {... */\n      pop\n        /* \"contracts/payable.sol\":916:1173  function transfer(address payable _to, uint256 _amount) public payable {... */\n      pop\n      pop\n      jump\t// out\n        /* \"contracts/payable.sol\":362:398  function deposit() public payable {} */\n    tag_23:\n      jump\t// out\n        /* \"#utility.yul\":7:133   */\n    tag_44:\n        /* \"#utility.yul\":44:51   */\n      0x00\n        /* \"#utility.yul\":84:126   */\n      0xffffffffffffffffffffffffffffffffffffffff\n        /* \"#utility.yul\":77:82   */\n      dup3\n        /* \"#utility.yul\":73:127   */\n      and\n        /* \"#utility.yul\":62:127   */\n      swap1\n      pop\n        /* \"#utility.yul\":7:133   */\n      swap2\n      swap1\n      pop\n      jump\t// out\n        /* \"#utility.yul\":139:243   */\n    tag_45:\n        /* \"#utility.yul\":184:191   */\n      0x00\n        /* \"#utility.yul\":213:237   */\n      tag_68\n        /* \"#utility.yul\":231:236   */\n      dup3\n        /* \"#utility.yul\":213:237   */\n      tag_44\n      jump\t// in\n    tag_68:\n        /* \"#utility.yul\":202:237   */\n      swap1\n      pop\n        /* \"#utility.yul\":139:243   */\n      swap2\n      swap1\n      pop\n      jump\t// out\n        /* \"#utility.yul\":249:391   */\n    tag_46:\n        /* \"#utility.yul\":352:384   */\n      tag_70\n        /* \"#utility.yul\":378:383   */\n      dup2\n        /* \"#utility.yul\":352:384   */\n      tag_45\n      jump\t// in\n    tag_70:\n        /* \"#utility.yul\":347:350   */\n      dup3\n        /* \"#utility.yul\":340:385   */\n      mstore\n        /* \"#utility.yul\":249:391   */\n      pop\n      pop\n      jump\t// out\n        /* \"#utility.yul\":397:651   */\n    tag_17:\n        /* \"#utility.yul\":506:510   */\n      0x00\n        /* \"#utility.yul\":544:546   */\n      0x20\n        /* \"#utility.yul\":533:542   */\n      dup3\n        /* \"#utility.yul\":529:547   */\n      add\n        /* \"#utility.yul\":521:547   */\n      swap1\n      pop\n        /* \"#utility.yul\":557:644   */\n      tag_72\n        /* \"#utility.yul\":641:642   */\n      0x00\n        /* \"#utility.yul\":630:639   */\n      dup4\n        /* \"#utility.yul\":626:643   */\n      add\n        /* \"#utility.yul\":617:623   */\n      dup5\n        /* \"#utility.yul\":557:644   */\n      tag_46\n      jump\t// in\n    tag_72:\n        /* \"#utility.yul\":397:651   */\n      swap3\n      swap2\n      pop\n      pop\n      jump\t// out\n        /* \"#utility.yul\":738:855   */\n    tag_48:\n        /* \"#utility.yul\":847:848   */\n      0x00\n        /* \"#utility.yul\":844:845   */\n      dup1\n        /* \"#utility.yul\":837:849   */\n      revert\n        /* \"#utility.yul\":984:1122   */\n    tag_50:\n        /* \"#utility.yul\":1065:1097   */\n      tag_77\n        /* \"#utility.yul\":1091:1096   */\n      dup2\n        /* \"#utility.yul\":1065:1097   */\n      tag_45\n      jump\t// in\n    tag_77:\n        /* \"#utility.yul\":1058:1063   */\n      dup2\n        /* \"#utility.yul\":1055:1098   */\n      eq\n        /* \"#utility.yul\":1045:1116   */\n      tag_78\n      jumpi\n        /* \"#utility.yul\":1112:1113   */\n      0x00\n        /* \"#utility.yul\":1109:1110   */\n      dup1\n        /* \"#utility.yul\":1102:1114   */\n      revert\n        /* \"#utility.yul\":1045:1116   */\n    tag_78:\n        /* \"#utility.yul\":984:1122   */\n      pop\n      jump\t// out\n        /* \"#utility.yul\":1128:1283   */\n    tag_51:\n        /* \"#utility.yul\":1182:1187   */\n      0x00\n        /* \"#utility.yul\":1220:1226   */\n      dup2\n        /* \"#utility.yul\":1207:1227   */\n      calldataload\n        /* \"#utility.yul\":1198:1227   */\n      swap1\n      pop\n        /* \"#utility.yul\":1236:1277   */\n      tag_80\n        /* \"#utility.yul\":1271:1276   */\n      dup2\n        /* \"#utility.yul\":1236:1277   */\n      tag_50\n      jump\t// in\n    tag_80:\n        /* \"#utility.yul\":1128:1283   */\n      swap3\n      swap2\n      pop\n      pop\n      jump\t// out\n        /* \"#utility.yul\":1289:1366   */\n    tag_52:\n        /* \"#utility.yul\":1326:1333   */\n      0x00\n        /* \"#utility.yul\":1355:1360   */\n      dup2\n        /* \"#utility.yul\":1344:1360   */\n      swap1\n      pop\n        /* \"#utility.yul\":1289:1366   */\n      swap2\n      swap1\n      pop\n      jump\t// out\n        /* \"#utility.yul\":1372:1494   */\n    tag_53:\n        /* \"#utility.yul\":1445:1469   */\n      tag_83\n        /* \"#utility.yul\":1463:1468   */\n      dup2\n        /* \"#utility.yul\":1445:1469   */\n      tag_52\n      jump\t// in\n    tag_83:\n        /* \"#utility.yul\":1438:1443   */\n      dup2\n        /* \"#utility.yul\":1435:1470   */\n      eq\n        /* \"#utility.yul\":1425:1488   */\n      tag_84\n      jumpi\n        /* \"#utility.yul\":1484:1485   */\n      0x00\n        /* \"#utility.yul\":1481:1482   */\n      dup1\n        /* \"#utility.yul\":1474:1486   */\n      revert\n        /* \"#utility.yul\":1425:1488   */\n    tag_84:\n        /* \"#utility.yul\":1372:1494   */\n      pop\n      jump\t// out\n        /* \"#utility.yul\":1500:1639   */\n    tag_54:\n        /* \"#utility.yul\":1546:1551   */\n      0x00\n        /* \"#utility.yul\":1584:1590   */\n      dup2\n        /* \"#utility.yul\":1571:1591   */\n      calldataload\n        /* \"#utility.yul\":1562:1591   */\n      swap1\n      pop\n        /* \"#utility.yul\":1600:1633   */\n      tag_86\n        /* \"#utility.yul\":1627:1632   */\n      dup2\n        /* \"#utility.yul\":1600:1633   */\n      tag_53\n      jump\t// in\n    tag_86:\n        /* \"#utility.yul\":1500:1639   */\n      swap3\n      swap2\n      pop\n      pop\n      jump\t// out\n        /* \"#utility.yul\":1645:2135   */\n    tag_20:\n        /* \"#utility.yul\":1721:1727   */\n      0x00\n        /* \"#utility.yul\":1729:1735   */\n      dup1\n        /* \"#utility.yul\":1778:1780   */\n      0x40\n        /* \"#utility.yul\":1766:1775   */\n      dup4\n        /* \"#utility.yul\":1757:1764   */\n      dup6\n        /* \"#utility.yul\":1753:1776   */\n      sub\n        /* \"#utility.yul\":1749:1781   */\n      slt\n        /* \"#utility.yul\":1746:1865   */\n      iszero\n      tag_88\n      jumpi\n        /* \"#utility.yul\":1784:1863   */\n      tag_89\n      tag_48\n      jump\t// in\n    tag_89:\n        /* \"#utility.yul\":1746:1865   */\n    tag_88:\n        /* \"#utility.yul\":1904:1905   */\n      0x00\n        /* \"#utility.yul\":1929:1990   */\n      tag_90\n        /* \"#utility.yul\":1982:1989   */\n      dup6\n        /* \"#utility.yul\":1973:1979   */\n      dup3\n        /* \"#utility.yul\":1962:1971   */\n      dup7\n        /* \"#utility.yul\":1958:1980   */\n      add\n        /* \"#utility.yul\":1929:1990   */\n      tag_51\n      jump\t// in\n    tag_90:\n        /* \"#utility.yul\":1919:1990   */\n      swap3\n      pop\n        /* \"#utility.yul\":1875:2000   */\n      pop\n        /* \"#utility.yul\":2039:2041   */\n      0x20\n        /* \"#utility.yul\":2065:2118   */\n      tag_91\n        /* \"#utility.yul\":2110:2117   */\n      dup6\n        /* \"#utility.yul\":2101:2107   */\n      dup3\n        /* \"#utility.yul\":2090:2099   */\n      dup7\n        /* \"#utility.yul\":2086:2108   */\n      add\n        /* \"#utility.yul\":2065:2118   */\n      tag_54\n      jump\t// in\n    tag_91:\n        /* \"#utility.yul\":2055:2118   */\n      swap2\n      pop\n        /* \"#utility.yul\":2010:2128   */\n      pop\n        /* \"#utility.yul\":1645:2135   */\n      swap3\n      pop\n      swap3\n      swap1\n      pop\n      jump\t// out\n        /* \"#utility.yul\":2141:2288   */\n    tag_55:\n        /* \"#utility.yul\":2242:2253   */\n      0x00\n        /* \"#utility.yul\":2279:2282   */\n      dup2\n        /* \"#utility.yul\":2264:2282   */\n      swap1\n      pop\n        /* \"#utility.yul\":2141:2288   */\n      swap3\n      swap2\n      pop\n      pop\n      jump\t// out\n        /* \"#utility.yul\":2294:2514   */\n    tag_56:\n        /* \"#utility.yul\":2434:2468   */\n      0x416d6f756e742077697468647261772066726f6d2074686520636f6e74726163\n        /* \"#utility.yul\":2430:2431   */\n      0x00\n        /* \"#utility.yul\":2422:2428   */\n      dup3\n        /* \"#utility.yul\":2418:2432   */\n      add\n        /* \"#utility.yul\":2411:2469   */\n      mstore\n        /* \"#utility.yul\":2503:2506   */\n      0x7400000000000000000000000000000000000000000000000000000000000000\n        /* \"#utility.yul\":2498:2500   */\n      0x20\n        /* \"#utility.yul\":2490:2496   */\n      dup3\n        /* \"#utility.yul\":2486:2501   */\n      add\n        /* \"#utility.yul\":2479:2507   */\n      mstore\n        /* \"#utility.yul\":2294:2514   */\n      pop\n      jump\t// out\n        /* \"#utility.yul\":2520:2920   */\n    tag_57:\n        /* \"#utility.yul\":2679:2682   */\n      0x00\n        /* \"#utility.yul\":2700:2784   */\n      tag_95\n        /* \"#utility.yul\":2781:2783   */\n      0x21\n        /* \"#utility.yul\":2776:2779   */\n      dup4\n        /* \"#utility.yul\":2700:2784   */\n      tag_55\n      jump\t// in\n    tag_95:\n        /* \"#utility.yul\":2693:2784   */\n      swap2\n      pop\n        /* \"#utility.yul\":2793:2886   */\n      tag_96\n        /* \"#utility.yul\":2882:2885   */\n      dup3\n        /* \"#utility.yul\":2793:2886   */\n      tag_56\n      jump\t// in\n    tag_96:\n        /* \"#utility.yul\":2911:2913   */\n      0x21\n        /* \"#utility.yul\":2906:2909   */\n      dup3\n        /* \"#utility.yul\":2902:2914   */\n      add\n        /* \"#utility.yul\":2895:2914   */\n      swap1\n      pop\n        /* \"#utility.yul\":2520:2920   */\n      swap2\n      swap1\n      pop\n      jump\t// out\n        /* \"#utility.yul\":2926:3305   */\n    tag_26:\n        /* \"#utility.yul\":3110:3113   */\n      0x00\n        /* \"#utility.yul\":3132:3279   */\n      tag_98\n        /* \"#utility.yul\":3275:3278   */\n      dup3\n        /* \"#utility.yul\":3132:3279   */\n      tag_57\n      jump\t// in\n    tag_98:\n        /* \"#utility.yul\":3125:3279   */\n      swap2\n      pop\n        /* \"#utility.yul\":3296:3299   */\n      dup2\n        /* \"#utility.yul\":3289:3299   */\n      swap1\n      pop\n        /* \"#utility.yul\":2926:3305   */\n      swap2\n      swap1\n      pop\n      jump\t// out\n        /* \"#utility.yul\":3311:3480   */\n    tag_58:\n        /* \"#utility.yul\":3395:3406   */\n      0x00\n        /* \"#utility.yul\":3429:3435   */\n      dup3\n        /* \"#utility.yul\":3424:3427   */\n      dup3\n        /* \"#utility.yul\":3417:3436   */\n      mstore\n        /* \"#utility.yul\":3469:3473   */\n      0x20\n        /* \"#utility.yul\":3464:3467   */\n      dup3\n        /* \"#utility.yul\":3460:3474   */\n      add\n        /* \"#utility.yul\":3445:3474   */\n      swap1\n      pop\n        /* \"#utility.yul\":3311:3480   */\n      swap3\n      swap2\n      pop\n      pop\n      jump\t// out\n        /* \"#utility.yul\":3486:3659   */\n    tag_59:\n        /* \"#utility.yul\":3626:3651   */\n      0x4661696c656420746f2072656365697665206574686572000000000000000000\n        /* \"#utility.yul\":3622:3623   */\n      0x00\n        /* \"#utility.yul\":3614:3620   */\n      dup3\n        /* \"#utility.yul\":3610:3624   */\n      add\n        /* \"#utility.yul\":3603:3652   */\n      mstore\n        /* \"#utility.yul\":3486:3659   */\n      pop\n      jump\t// out\n        /* \"#utility.yul\":3665:4031   */\n    tag_60:\n        /* \"#utility.yul\":3807:3810   */\n      0x00\n        /* \"#utility.yul\":3828:3895   */\n      tag_102\n        /* \"#utility.yul\":3892:3894   */\n      0x17\n        /* \"#utility.yul\":3887:3890   */\n      dup4\n        /* \"#utility.yul\":3828:3895   */\n      tag_58\n      jump\t// in\n    tag_102:\n        /* \"#utility.yul\":3821:3895   */\n      swap2\n      pop\n        /* \"#utility.yul\":3904:3997   */\n      tag_103\n        /* \"#utility.yul\":3993:3996   */\n      dup3\n        /* \"#utility.yul\":3904:3997   */\n      tag_59\n      jump\t// in\n    tag_103:\n        /* \"#utility.yul\":4022:4024   */\n      0x20\n        /* \"#utility.yul\":4017:4020   */\n      dup3\n        /* \"#utility.yul\":4013:4025   */\n      add\n        /* \"#utility.yul\":4006:4025   */\n      swap1\n      pop\n        /* \"#utility.yul\":3665:4031   */\n      swap2\n      swap1\n      pop\n      jump\t// out\n        /* \"#utility.yul\":4037:4456   */\n    tag_32:\n        /* \"#utility.yul\":4203:4207   */\n      0x00\n        /* \"#utility.yul\":4241:4243   */\n      0x20\n        /* \"#utility.yul\":4230:4239   */\n      dup3\n        /* \"#utility.yul\":4226:4244   */\n      add\n        /* \"#utility.yul\":4218:4244   */\n      swap1\n      pop\n        /* \"#utility.yul\":4290:4299   */\n      dup2\n        /* \"#utility.yul\":4284:4288   */\n      dup2\n        /* \"#utility.yul\":4280:4300   */\n      sub\n        /* \"#utility.yul\":4276:4277   */\n      0x00\n        /* \"#utility.yul\":4265:4274   */\n      dup4\n        /* \"#utility.yul\":4261:4278   */\n      add\n        /* \"#utility.yul\":4254:4301   */\n      mstore\n        /* \"#utility.yul\":4318:4449   */\n      tag_105\n        /* \"#utility.yul\":4444:4448   */\n      dup2\n        /* \"#utility.yul\":4318:4449   */\n      tag_60\n      jump\t// in\n    tag_105:\n        /* \"#utility.yul\":4310:4449   */\n      swap1\n      pop\n        /* \"#utility.yul\":4037:4456   */\n      swap2\n      swap1\n      pop\n      jump\t// out\n        /* \"#utility.yul\":4462:4576   */\n    tag_61:\n      pop\n      jump\t// out\n        /* \"#utility.yul\":4582:4980   */\n    tag_62:\n        /* \"#utility.yul\":4741:4744   */\n      0x00\n        /* \"#utility.yul\":4762:4845   */\n      tag_108\n        /* \"#utility.yul\":4843:4844   */\n      0x00\n        /* \"#utility.yul\":4838:4841   */\n      dup4\n        /* \"#utility.yul\":4762:4845   */\n      tag_55\n      jump\t// in\n    tag_108:\n        /* \"#utility.yul\":4755:4845   */\n      swap2\n      pop\n        /* \"#utility.yul\":4854:4947   */\n      tag_109\n        /* \"#utility.yul\":4943:4946   */\n      dup3\n        /* \"#utility.yul\":4854:4947   */\n      tag_61\n      jump\t// in\n    tag_109:\n        /* \"#utility.yul\":4972:4973   */\n      0x00\n        /* \"#utility.yul\":4967:4970   */\n      dup3\n        /* \"#utility.yul\":4963:4974   */\n      add\n        /* \"#utility.yul\":4956:4974   */\n      swap1\n      pop\n        /* \"#utility.yul\":4582:4980   */\n      swap2\n      swap1\n      pop\n      jump\t// out\n        /* \"#utility.yul\":4986:5365   */\n    tag_36:\n        /* \"#utility.yul\":5170:5173   */\n      0x00\n        /* \"#utility.yul\":5192:5339   */\n      tag_111\n        /* \"#utility.yul\":5335:5338   */\n      dup3\n        /* \"#utility.yul\":5192:5339   */\n      tag_62\n      jump\t// in\n    tag_111:\n        /* \"#utility.yul\":5185:5339   */\n      swap2\n      pop\n        /* \"#utility.yul\":5356:5359   */\n      dup2\n        /* \"#utility.yul\":5349:5359   */\n      swap1\n      pop\n        /* \"#utility.yul\":4986:5365   */\n      swap2\n      swap1\n      pop\n      jump\t// out\n        /* \"#utility.yul\":5371:5552   */\n    tag_63:\n        /* \"#utility.yul\":5511:5544   */\n      0x4661696c656420746f2073656e6420657468657220746f206164647265737300\n        /* \"#utility.yul\":5507:5508   */\n      0x00\n        /* \"#utility.yul\":5499:5505   */\n      dup3\n        /* \"#utility.yul\":5495:5509   */\n      add\n        /* \"#utility.yul\":5488:5545   */\n      mstore\n        /* \"#utility.yul\":5371:5552   */\n      pop\n      jump\t// out\n        /* \"#utility.yul\":5558:5924   */\n    tag_64:\n        /* \"#utility.yul\":5700:5703   */\n      0x00\n        /* \"#utility.yul\":5721:5788   */\n      tag_114\n        /* \"#utility.yul\":5785:5787   */\n      0x1f\n        /* \"#utility.yul\":5780:5783   */\n      dup4\n        /* \"#utility.yul\":5721:5788   */\n      tag_58\n      jump\t// in\n    tag_114:\n        /* \"#utility.yul\":5714:5788   */\n      swap2\n      pop\n        /* \"#utility.yul\":5797:5890   */\n      tag_115\n        /* \"#utility.yul\":5886:5889   */\n      dup3\n        /* \"#utility.yul\":5797:5890   */\n      tag_63\n      jump\t// in\n    tag_115:\n        /* \"#utility.yul\":5915:5917   */\n      0x20\n        /* \"#utility.yul\":5910:5913   */\n      dup3\n        /* \"#utility.yul\":5906:5918   */\n      add\n        /* \"#utility.yul\":5899:5918   */\n      swap1\n      pop\n        /* \"#utility.yul\":5558:5924   */\n      swap2\n      swap1\n      pop\n      jump\t// out\n        /* \"#utility.yul\":5930:6349   */\n    tag_42:\n        /* \"#utility.yul\":6096:6100   */\n      0x00\n        /* \"#utility.yul\":6134:6136   */\n      0x20\n        /* \"#utility.yul\":6123:6132   */\n      dup3\n        /* \"#utility.yul\":6119:6137   */\n      add\n        /* \"#utility.yul\":6111:6137   */\n      swap1\n      pop\n        /* \"#utility.yul\":6183:6192   */\n      dup2\n        /* \"#utility.yul\":6177:6181   */\n      dup2\n        /* \"#utility.yul\":6173:6193   */\n      sub\n        /* \"#utility.yul\":6169:6170   */\n      0x00\n        /* \"#utility.yul\":6158:6167   */\n      dup4\n        /* \"#utility.yul\":6154:6171   */\n      add\n        /* \"#utility.yul\":6147:6194   */\n      mstore\n        /* \"#utility.yul\":6211:6342   */\n      tag_117\n        /* \"#utility.yul\":6337:6341   */\n      dup2\n        /* \"#utility.yul\":6211:6342   */\n      tag_64\n      jump\t// in\n    tag_117:\n        /* \"#utility.yul\":6203:6342   */\n      swap1\n      pop\n        /* \"#utility.yul\":5930:6349   */\n      swap2\n      swap1\n      pop\n      jump\t// out\n\n    auxdata: 0xa26469706673582212202e953cf4f894a08fabac3bf961fe697a7c037c61f29cacaf6398becefab154d864736f6c63430008120033\n}\n",
				"bytecode": {
					"linkReferences": {},
					"object": "6080604052336000806101000a81548173ffffffffffffffffffffffffffffffffffffffff021916908373ffffffffffffffffffffffffffffffffffffffff16021790555061056c806100536000396000f3fe60806040526004361061004a5760003560e01c80633ccfd60b1461004f57806352da86d5146100665780638da5cb5b1461007d578063a9059cbb146100a8578063d0e30db0146100c4575b600080fd5b34801561005b57600080fd5b506100646100ce565b005b34801561007257600080fd5b5061007b6101a4565b005b34801561008957600080fd5b506100926101a6565b60405161009f91906102be565b60405180910390f35b6100c260048036038101906100bd9190610340565b6101ca565b005b6100cc61027b565b005b600047905060008060009054906101000a900473ffffffffffffffffffffffffffffffffffffffff1673ffffffffffffffffffffffffffffffffffffffff168260405161011a906103fd565b60006040518083038185875af1925050503d8060008114610157576040519150601f19603f3d011682016040523d82523d6000602084013e61015c565b606091505b50509050806101a0576040517f08c379a00000000000000000000000000000000000000000000000000000000081526004016101979061046f565b60405180910390fd5b5050565b565b60008054906101000a900473ffffffffffffffffffffffffffffffffffffffff1681565b60008273ffffffffffffffffffffffffffffffffffffffff16826040516101f0906104b5565b60006040518083038185875af1925050503d806000811461022d576040519150601f19603f3d011682016040523d82523d6000602084013e610232565b606091505b5050905080610276576040517f08c379a000000000000000000000000000000000000000000000000000000000815260040161026d90610516565b60405180910390fd5b505050565b565b600073ffffffffffffffffffffffffffffffffffffffff82169050919050565b60006102a88261027d565b9050919050565b6102b88161029d565b82525050565b60006020820190506102d360008301846102af565b92915050565b600080fd5b6102e78161029d565b81146102f257600080fd5b50565b600081359050610304816102de565b92915050565b6000819050919050565b61031d8161030a565b811461032857600080fd5b50565b60008135905061033a81610314565b92915050565b60008060408385031215610357576103566102d9565b5b6000610365858286016102f5565b92505060206103768582860161032b565b9150509250929050565b600081905092915050565b7f416d6f756e742077697468647261772066726f6d2074686520636f6e7472616360008201527f7400000000000000000000000000000000000000000000000000000000000000602082015250565b60006103e7602183610380565b91506103f28261038b565b602182019050919050565b6000610408826103da565b9150819050919050565b600082825260208201905092915050565b7f4661696c656420746f2072656365697665206574686572000000000000000000600082015250565b6000610459601783610412565b915061046482610423565b602082019050919050565b600060208201905081810360008301526104888161044c565b9050919050565b50565b600061049f600083610380565b91506104aa8261048f565b600082019050919050565b60006104c082610492565b9150819050919050565b7f4661696c656420746f2073656e6420657468657220746f206164647265737300600082015250565b6000610500601f83610412565b915061050b826104ca565b602082019050919050565b6000602082019050818103600083015261052f816104f3565b905091905056fea26469706673582212202e953cf4f894a08fabac3bf961fe697a7c037c61f29cacaf6398becefab154d864736f6c63430008120033",
					"opcodes": "PUSH1 0x80 PUSH1 0x40 MSTORE CALLER PUSH1 0x0 DUP1 PUSH2 0x100 EXP DUP2 SLOAD DUP2 PUSH20 0xFFFFFFFFFFFFFFFFFFFFFFFFFFFFFFFFFFFFFFFF MUL NOT AND SWAP1 DUP4 PUSH20 0xFFFFFFFFFFFFFFFFFFFFFFFFFFFFFFFFFFFFFFFF AND MUL OR SWAP1 SSTORE POP PUSH2 0x56C DUP1 PUSH2 0x53 PUSH1 0x0 CODECOPY PUSH1 0x0 RETURN INVALID PUSH1 0x80 PUSH1 0x40 MSTORE PUSH1 0x4 CALLDATASIZE LT PUSH2 0x4A JUMPI PUSH1 0x0 CALLDATALOAD PUSH1 0xE0 SHR DUP1 PUSH4 0x3CCFD60B EQ PUSH2 0x4F JUMPI DUP1 PUSH4 0x52DA86D5 EQ PUSH2 0x66 JUMPI DUP1 PUSH4 0x8DA5CB5B EQ PUSH2 0x7D JUMPI DUP1 PUSH4 0xA9059CBB EQ PUSH2 0xA8 JUMPI DUP1 PUSH4 0xD0E30DB0 EQ PUSH2 0xC4 JUMPI JUMPDEST PUSH1 0x0 DUP1 REVERT JUMPDEST CALLVALUE DUP1 ISZERO PUSH2 0x5B JUMPI PUSH1 0x0 DUP1 REVERT JUMPDEST POP PUSH2 0x64 PUSH2 0xCE JUMP JUMPDEST STOP JUMPDEST CALLVALUE DUP1 ISZERO PUSH2 0x72 JUMPI PUSH1 0x0 DUP1 REVERT JUMPDEST POP PUSH2 0x7B PUSH2 0x1A4 JUMP JUMPDEST STOP JUMPDEST CALLVALUE DUP1 ISZERO PUSH2 0x89 JUMPI PUSH1 0x0 DUP1 REVERT JUMPDEST POP PUSH2 0x92 PUSH2 0x1A6 JUMP JUMPDEST PUSH1 0x40 MLOAD PUSH2 0x9F SWAP2 SWAP1 PUSH2 0x2BE JUMP JUMPDEST PUSH1 0x40 MLOAD DUP1 SWAP2 SUB SWAP1 RETURN JUMPDEST PUSH2 0xC2 PUSH1 0x4 DUP1 CALLDATASIZE SUB DUP2 ADD SWAP1 PUSH2 0xBD SWAP2 SWAP1 PUSH2 0x340 JUMP JUMPDEST PUSH2 0x1CA JUMP JUMPDEST STOP JUMPDEST PUSH2 0xCC PUSH2 0x27B JUMP JUMPDEST STOP JUMPDEST PUSH1 0x0 SELFBALANCE SWAP1 POP PUSH1 0x0 DUP1 PUSH1 0x0 SWAP1 SLOAD SWAP1 PUSH2 0x100 EXP SWAP1 DIV PUSH20 0xFFFFFFFFFFFFFFFFFFFFFFFFFFFFFFFFFFFFFFFF AND PUSH20 0xFFFFFFFFFFFFFFFFFFFFFFFFFFFFFFFFFFFFFFFF AND DUP3 PUSH1 0x40 MLOAD PUSH2 0x11A SWAP1 PUSH2 0x3FD JUMP JUMPDEST PUSH1 0x0 PUSH1 0x40 MLOAD DUP1 DUP4 SUB DUP2 DUP6 DUP8 GAS CALL SWAP3 POP POP POP RETURNDATASIZE DUP1 PUSH1 0x0 DUP2 EQ PUSH2 0x157 JUMPI PUSH1 0x40 MLOAD SWAP2 POP PUSH1 0x1F NOT PUSH1 0x3F RETURNDATASIZE ADD AND DUP3 ADD PUSH1 0x40 MSTORE RETURNDATASIZE DUP3 MSTORE RETURNDATASIZE PUSH1 0x0 PUSH1 0x20 DUP5 ADD RETURNDATACOPY PUSH2 0x15C JUMP JUMPDEST PUSH1 0x60 SWAP2 POP JUMPDEST POP POP SWAP1 POP DUP1 PUSH2 0x1A0 JUMPI PUSH1 0x40 MLOAD PUSH32 0x8C379A000000000000000000000000000000000000000000000000000000000 DUP2 MSTORE PUSH1 0x4 ADD PUSH2 0x197 SWAP1 PUSH2 0x46F JUMP JUMPDEST PUSH1 0x40 MLOAD DUP1 SWAP2 SUB SWAP1 REVERT JUMPDEST POP POP JUMP JUMPDEST JUMP JUMPDEST PUSH1 0x0 DUP1 SLOAD SWAP1 PUSH2 0x100 EXP SWAP1 DIV PUSH20 0xFFFFFFFFFFFFFFFFFFFFFFFFFFFFFFFFFFFFFFFF AND DUP2 JUMP JUMPDEST PUSH1 0x0 DUP3 PUSH20 0xFFFFFFFFFFFFFFFFFFFFFFFFFFFFFFFFFFFFFFFF AND DUP3 PUSH1 0x40 MLOAD PUSH2 0x1F0 SWAP1 PUSH2 0x4B5 JUMP JUMPDEST PUSH1 0x0 PUSH1 0x40 MLOAD DUP1 DUP4 SUB DUP2 DUP6 DUP8 GAS CALL SWAP3 POP POP POP RETURNDATASIZE DUP1 PUSH1 0x0 DUP2 EQ PUSH2 0x22D JUMPI PUSH1 0x40 MLOAD SWAP2 POP PUSH1 0x1F NOT PUSH1 0x3F RETURNDATASIZE ADD AND DUP3 ADD PUSH1 0x40 MSTORE RETURNDATASIZE DUP3 MSTORE RETURNDATASIZE PUSH1 0x0 PUSH1 0x20 DUP5 ADD RETURNDATACOPY PUSH2 0x232 JUMP JUMPDEST PUSH1 0x60 SWAP2 POP JUMPDEST POP POP SWAP1 POP DUP1 PUSH2 0x276 JUMPI PUSH1 0x40 MLOAD PUSH32 0x8C379A000000000000000000000000000000000000000000000000000000000 DUP2 MSTORE PUSH1 0x4 ADD PUSH2 0x26D SWAP1 PUSH2 0x516 JUMP JUMPDEST PUSH1 0x40 MLOAD DUP1 SWAP2 SUB SWAP1 REVERT JUMPDEST POP POP POP JUMP JUMPDEST JUMP JUMPDEST PUSH1 0x0 PUSH20 0xFFFFFFFFFFFFFFFFFFFFFFFFFFFFFFFFFFFFFFFF DUP3 AND SWAP1 POP SWAP2 SWAP1 POP JUMP JUMPDEST PUSH1 0x0 PUSH2 0x2A8 DUP3 PUSH2 0x27D JUMP JUMPDEST SWAP1 POP SWAP2 SWAP1 POP JUMP JUMPDEST PUSH2 0x2B8 DUP2 PUSH2 0x29D JUMP JUMPDEST DUP3 MSTORE POP POP JUMP JUMPDEST PUSH1 0x0 PUSH1 0x20 DUP3 ADD SWAP1 POP PUSH2 0x2D3 PUSH1 0x0 DUP4 ADD DUP5 PUSH2 0x2AF JUMP JUMPDEST SWAP3 SWAP2 POP POP JUMP JUMPDEST PUSH1 0x0 DUP1 REVERT JUMPDEST PUSH2 0x2E7 DUP2 PUSH2 0x29D JUMP JUMPDEST DUP2 EQ PUSH2 0x2F2 JUMPI PUSH1 0x0 DUP1 REVERT JUMPDEST POP JUMP JUMPDEST PUSH1 0x0 DUP2 CALLDATALOAD SWAP1 POP PUSH2 0x304 DUP2 PUSH2 0x2DE JUMP JUMPDEST SWAP3 SWAP2 POP POP JUMP JUMPDEST PUSH1 0x0 DUP2 SWAP1 POP SWAP2 SWAP1 POP JUMP JUMPDEST PUSH2 0x31D DUP2 PUSH2 0x30A JUMP JUMPDEST DUP2 EQ PUSH2 0x328 JUMPI PUSH1 0x0 DUP1 REVERT JUMPDEST POP JUMP JUMPDEST PUSH1 0x0 DUP2 CALLDATALOAD SWAP1 POP PUSH2 0x33A DUP2 PUSH2 0x314 JUMP JUMPDEST SWAP3 SWAP2 POP POP JUMP JUMPDEST PUSH1 0x0 DUP1 PUSH1 0x40 DUP4 DUP6 SUB SLT ISZERO PUSH2 0x357 JUMPI PUSH2 0x356 PUSH2 0x2D9 JUMP JUMPDEST JUMPDEST PUSH1 0x0 PUSH2 0x365 DUP6 DUP3 DUP7 ADD PUSH2 0x2F5 JUMP JUMPDEST SWAP3 POP POP PUSH1 0x20 PUSH2 0x376 DUP6 DUP3 DUP7 ADD PUSH2 0x32B JUMP JUMPDEST SWAP2 POP POP SWAP3 POP SWAP3 SWAP1 POP JUMP JUMPDEST PUSH1 0x0 DUP2 SWAP1 POP SWAP3 SWAP2 POP POP JUMP JUMPDEST PUSH32 0x416D6F756E742077697468647261772066726F6D2074686520636F6E74726163 PUSH1 0x0 DUP3 ADD MSTORE PUSH32 0x7400000000000000000000000000000000000000000000000000000000000000 PUSH1 0x20 DUP3 ADD MSTORE POP JUMP JUMPDEST PUSH1 0x0 PUSH2 0x3E7 PUSH1 0x21 DUP4 PUSH2 0x380 JUMP JUMPDEST SWAP2 POP PUSH2 0x3F2 DUP3 PUSH2 0x38B JUMP JUMPDEST PUSH1 0x21 DUP3 ADD SWAP1 POP SWAP2 SWAP1 POP JUMP JUMPDEST PUSH1 0x0 PUSH2 0x408 DUP3 PUSH2 0x3DA JUMP JUMPDEST SWAP2 POP DUP2 SWAP1 POP SWAP2 SWAP1 POP JUMP JUMPDEST PUSH1 0x0 DUP3 DUP3 MSTORE PUSH1 0x20 DUP3 ADD SWAP1 POP SWAP3 SWAP2 POP POP JUMP JUMPDEST PUSH32 0x4661696C656420746F2072656365697665206574686572000000000000000000 PUSH1 0x0 DUP3 ADD MSTORE POP JUMP JUMPDEST PUSH1 0x0 PUSH2 0x459 PUSH1 0x17 DUP4 PUSH2 0x412 JUMP JUMPDEST SWAP2 POP PUSH2 0x464 DUP3 PUSH2 0x423 JUMP JUMPDEST PUSH1 0x20 DUP3 ADD SWAP1 POP SWAP2 SWAP1 POP JUMP JUMPDEST PUSH1 0x0 PUSH1 0x20 DUP3 ADD SWAP1 POP DUP2 DUP2 SUB PUSH1 0x0 DUP4 ADD MSTORE PUSH2 0x488 DUP2 PUSH2 0x44C JUMP JUMPDEST SWAP1 POP SWAP2 SWAP1 POP JUMP JUMPDEST POP JUMP JUMPDEST PUSH1 0x0 PUSH2 0x49F PUSH1 0x0 DUP4 PUSH2 0x380 JUMP JUMPDEST SWAP2 POP PUSH2 0x4AA DUP3 PUSH2 0x48F JUMP JUMPDEST PUSH1 0x0 DUP3 ADD SWAP1 POP SWAP2 SWAP1 POP JUMP JUMPDEST PUSH1 0x0 PUSH2 0x4C0 DUP3 PUSH2 0x492 JUMP JUMPDEST SWAP2 POP DUP2 SWAP1 POP SWAP2 SWAP1 POP JUMP JUMPDEST PUSH32 0x4661696C656420746F2073656E6420657468657220746F206164647265737300 PUSH1 0x0 DUP3 ADD MSTORE POP JUMP JUMPDEST PUSH1 0x0 PUSH2 0x500 PUSH1 0x1F DUP4 PUSH2 0x412 JUMP JUMPDEST SWAP2 POP PUSH2 0x50B DUP3 PUSH2 0x4CA JUMP JUMPDEST PUSH1 0x20 DUP3 ADD SWAP1 POP SWAP2 SWAP1 POP JUMP JUMPDEST PUSH1 0x0 PUSH1 0x20 DUP3 ADD SWAP1 POP DUP2 DUP2 SUB PUSH1 0x0 DUP4 ADD MSTORE PUSH2 0x52F DUP2 PUSH2 0x4F3 JUMP JUMPDEST SWAP1 POP SWAP2 SWAP1 POP JUMP INVALID LOG2 PUSH5 0x6970667358 0x22 SLT KECCAK256 0x2E SWAP6 EXTCODECOPY DELEGATECALL 0xF8 SWAP5 LOG0 DUP16 0xAB 0xAC EXTCODESIZE 0xF9 PUSH2 0xFE69 PUSH27 0x7C037C61F29CACAF6398BECEFAB154D864736F6C63430008120033 "
				},
				"gasEstimates": {
					"creation": {
						"codeDepositCost": "277600",
						"executionCost": "24560",
						"totalCost": "302160"
					},
					"external": {
						"deposit()": "186",
						"nonPayable()": "144",
						"owner()": "2533",
						"transfer(address,uint256)": "infinite",
						"withdraw()": "infinite"
					}
				},
				"methodIdentifiers": {
					"deposit()": "d0e30db0",
					"nonPayable()": "52da86d5",
					"owner()": "8da5cb5b",
					"transfer(address,uint256)": "a9059cbb",
					"withdraw()": "3ccfd60b"
				}
			},
			"storageLayout": {
				"storage": [
					{
						"astId": 3,
						"contract": "contracts/payable.sol:Payable",
						"label": "owner",
						"offset": 0,
						"slot": "0",
						"type": "t_address_payable"
					}
				],
				"types": {
					"t_address_payable": {
						"encoding": "inplace",
						"label": "address payable",
						"numberOfBytes": "20"
					}
				}
			},
			"userdoc": {
				"kind": "user",
				"methods": {},
				"version": 1
			}
		}
	}
}