{
	"contracts/library.sol": {
		"TestArray": {
			"abi": [
				{
					"inputs": [
						{
							"internalType": "uint256",
							"name": "",
							"type": "uint256"
						}
					],
					"name": "arr",
					"outputs": [
						{
							"internalType": "uint256",
							"name": "",
							"type": "uint256"
						}
					],
					"stateMutability": "view",
					"type": "function"
				},
				{
					"inputs": [],
					"name": "testArrayRemoval",
					"outputs": [
						{
							"internalType": "uint256[]",
							"name": "",
							"type": "uint256[]"
						}
					],
					"stateMutability": "nonpayable",
					"type": "function"
				}
			],
			"devdoc": {
				"kind": "dev",
				"methods": {},
				"version": 1
			},
			"evm": {
				"assembly": "    /* \"contracts/library.sol\":328:597  contract TestArray{... */\n  mstore(0x40, 0x80)\n  callvalue\n  dup1\n  iszero\n  tag_1\n  jumpi\n  0x00\n  dup1\n  revert\ntag_1:\n  pop\n  dataSize(sub_0)\n  dup1\n  dataOffset(sub_0)\n  0x00\n  codecopy\n  0x00\n  return\nstop\n\nsub_0: assembly {\n        /* \"contracts/library.sol\":328:597  contract TestArray{... */\n      mstore(0x40, 0x80)\n      callvalue\n      dup1\n      iszero\n      tag_1\n      jumpi\n      0x00\n      dup1\n      revert\n    tag_1:\n      pop\n      jumpi(tag_2, lt(calldatasize, 0x04))\n      shr(0xe0, calldataload(0x00))\n      dup1\n      0x71e5ee5f\n      eq\n      tag_3\n      jumpi\n      dup1\n      0x895878e3\n      eq\n      tag_4\n      jumpi\n    tag_2:\n      0x00\n      dup1\n      revert\n        /* \"contracts/library.sol\":353:370  uint[] public arr */\n    tag_3:\n      tag_5\n      tag_6\n      calldatasize\n      0x04\n      tag_7\n      jump\t// in\n    tag_6:\n      tag_8\n      jump\t// in\n    tag_5:\n      mload(0x40)\n        /* \"#utility.yul\":345:370   */\n      swap1\n      dup2\n      mstore\n        /* \"#utility.yul\":333:335   */\n      0x20\n        /* \"#utility.yul\":318:336   */\n      add\n        /* \"contracts/library.sol\":353:370  uint[] public arr */\n    tag_9:\n      mload(0x40)\n      dup1\n      swap2\n      sub\n      swap1\n      return\n        /* \"contracts/library.sol\":412:594  function testArrayRemoval() public returns(uint[] memory){... */\n    tag_4:\n      tag_11\n      tag_12\n      jump\t// in\n    tag_11:\n      mload(0x40)\n      tag_9\n      swap2\n      swap1\n      tag_14\n      jump\t// in\n        /* \"contracts/library.sol\":353:370  uint[] public arr */\n    tag_8:\n      0x00\n      dup2\n      dup2\n      sload\n      dup2\n      lt\n      tag_15\n      jumpi\n      0x00\n      dup1\n      revert\n    tag_15:\n      0x00\n      swap2\n      dup3\n      mstore\n      0x20\n      swap1\n      swap2\n      keccak256\n      add\n      sload\n      swap1\n      pop\n      dup2\n      jump\t// out\n        /* \"contracts/library.sol\":412:594  function testArrayRemoval() public returns(uint[] memory){... */\n    tag_12:\n        /* \"contracts/library.sol\":455:468  uint[] memory */\n      0x60\n        /* \"contracts/library.sol\":484:490  uint i */\n      0x00\n        /* \"contracts/library.sol\":480:539  for(uint i=0;i<4;i++){... */\n    tag_18:\n        /* \"contracts/library.sol\":495:496  4 */\n      0x04\n        /* \"contracts/library.sol\":493:494  i */\n      dup2\n        /* \"contracts/library.sol\":493:496  i<4 */\n      lt\n        /* \"contracts/library.sol\":480:539  for(uint i=0;i<4;i++){... */\n      iszero\n      tag_19\n      jumpi\n        /* \"contracts/library.sol\":516:519  arr */\n      0x00\n        /* \"contracts/library.sol\":516:527  arr.push(i) */\n      dup1\n      sload\n      0x01\n      dup2\n      add\n      dup3\n      sstore\n      swap1\n      dup1\n      mstore\n      0x290decd9548b62a8d60345a988386fc84ba6bc95484008f6362f93160ef3e563\n      add\n      dup2\n      swap1\n      sstore\n        /* \"contracts/library.sol\":525:526  i */\n      dup1\n        /* \"contracts/library.sol\":497:500  i++ */\n      tag_22\n        /* \"contracts/library.sol\":525:526  i */\n      dup2\n        /* \"contracts/library.sol\":497:500  i++ */\n      tag_23\n      jump\t// in\n    tag_22:\n      swap2\n      pop\n      pop\n        /* \"contracts/library.sol\":480:539  for(uint i=0;i<4;i++){... */\n      jump(tag_18)\n    tag_19:\n      pop\n        /* \"contracts/library.sol\":550:563  arr.remove(2) */\n      mload(0x40)\n      shl(0xe3, 0x0cef945b)\n      dup2\n      mstore\n        /* \"contracts/library.sol\":550:553  arr */\n      0x00\n        /* \"contracts/library.sol\":550:563  arr.remove(2) */\n      0x04\n      dup3\n      add\n        /* \"#utility.yul\":1471:1496   */\n      mstore\n        /* \"contracts/library.sol\":561:562  2 */\n      0x02\n        /* \"#utility.yul\":1512:1530   */\n      0x24\n      dup3\n      add\n        /* \"#utility.yul\":1505:1539   */\n      mstore\n        /* \"contracts/library.sol\":550:560  arr.remove */\n      linkerSymbol(\"bdb77b5fe46672d3dce9f521194c4bb2782b745f2b57a5ad01a020049b352a6b\")\n      swap1\n      0x677ca2d8\n      swap1\n        /* \"#utility.yul\":1444:1462   */\n      0x44\n      add\n        /* \"contracts/library.sol\":550:563  arr.remove(2) */\n      0x00\n      mload(0x40)\n      dup1\n      dup4\n      sub\n      dup2\n      dup7\n      dup1\n      extcodesize\n      iszero\n      dup1\n      iszero\n      tag_26\n      jumpi\n      0x00\n      dup1\n      revert\n    tag_26:\n      pop\n      gas\n      delegatecall\n      iszero\n      dup1\n      iszero\n      tag_28\n      jumpi\n      returndatasize\n      0x00\n      dup1\n      returndatacopy\n      revert(0x00, returndatasize)\n    tag_28:\n      pop\n      pop\n      pop\n      pop\n        /* \"contracts/library.sol\":582:585  arr */\n      0x00\n        /* \"contracts/library.sol\":575:586  return(arr) */\n      dup1\n      sload\n      dup1\n      0x20\n      mul\n      0x20\n      add\n      mload(0x40)\n      swap1\n      dup2\n      add\n      0x40\n      mstore\n      dup1\n      swap3\n      swap2\n      swap1\n      dup2\n      dup2\n      mstore\n      0x20\n      add\n      dup3\n      dup1\n      sload\n      dup1\n      iszero\n      tag_29\n      jumpi\n      0x20\n      mul\n      dup3\n      add\n      swap2\n      swap1\n      0x00\n      mstore\n      keccak256(0x00, 0x20)\n      swap1\n    tag_30:\n      dup2\n      sload\n      dup2\n      mstore\n      0x20\n      add\n      swap1\n      0x01\n      add\n      swap1\n      dup1\n      dup4\n      gt\n      tag_30\n      jumpi\n    tag_29:\n      pop\n      pop\n      pop\n      pop\n      pop\n      swap1\n      pop\n        /* \"contracts/library.sol\":412:594  function testArrayRemoval() public returns(uint[] memory){... */\n      swap1\n      jump\t// out\n        /* \"#utility.yul\":14:194   */\n    tag_7:\n        /* \"#utility.yul\":73:79   */\n      0x00\n        /* \"#utility.yul\":126:128   */\n      0x20\n        /* \"#utility.yul\":114:123   */\n      dup3\n        /* \"#utility.yul\":105:112   */\n      dup5\n        /* \"#utility.yul\":101:124   */\n      sub\n        /* \"#utility.yul\":97:129   */\n      slt\n        /* \"#utility.yul\":94:146   */\n      iszero\n      tag_33\n      jumpi\n        /* \"#utility.yul\":142:143   */\n      0x00\n        /* \"#utility.yul\":139:140   */\n      dup1\n        /* \"#utility.yul\":132:144   */\n      revert\n        /* \"#utility.yul\":94:146   */\n    tag_33:\n      pop\n        /* \"#utility.yul\":165:188   */\n      calldataload\n      swap2\n        /* \"#utility.yul\":14:194   */\n      swap1\n      pop\n      jump\t// out\n        /* \"#utility.yul\":381:1013   */\n    tag_14:\n        /* \"#utility.yul\":552:554   */\n      0x20\n        /* \"#utility.yul\":604:625   */\n      dup1\n      dup3\n      mstore\n        /* \"#utility.yul\":674:687   */\n      dup3\n      mload\n        /* \"#utility.yul\":577:595   */\n      dup3\n      dup3\n      add\n        /* \"#utility.yul\":696:718   */\n      dup2\n      swap1\n      mstore\n        /* \"#utility.yul\":523:527   */\n      0x00\n      swap2\n        /* \"#utility.yul\":552:554   */\n      swap1\n        /* \"#utility.yul\":775:790   */\n      dup5\n      dup3\n      add\n      swap1\n        /* \"#utility.yul\":749:751   */\n      0x40\n        /* \"#utility.yul\":734:752   */\n      dup6\n      add\n      swap1\n        /* \"#utility.yul\":523:527   */\n      dup5\n        /* \"#utility.yul\":818:987   */\n    tag_36:\n        /* \"#utility.yul\":832:838   */\n      dup2\n        /* \"#utility.yul\":829:830   */\n      dup2\n        /* \"#utility.yul\":826:839   */\n      lt\n        /* \"#utility.yul\":818:987   */\n      iszero\n      tag_38\n      jumpi\n        /* \"#utility.yul\":893:906   */\n      dup4\n      mload\n        /* \"#utility.yul\":881:907   */\n      dup4\n      mstore\n        /* \"#utility.yul\":962:977   */\n      swap3\n      dup5\n      add\n      swap3\n        /* \"#utility.yul\":927:939   */\n      swap2\n      dup5\n      add\n      swap2\n        /* \"#utility.yul\":854:855   */\n      0x01\n        /* \"#utility.yul\":847:856   */\n      add\n        /* \"#utility.yul\":818:987   */\n      jump(tag_36)\n    tag_38:\n      pop\n        /* \"#utility.yul\":1004:1007   */\n      swap1\n      swap7\n        /* \"#utility.yul\":381:1013   */\n      swap6\n      pop\n      pop\n      pop\n      pop\n      pop\n      pop\n      jump\t// out\n        /* \"#utility.yul\":1018:1250   */\n    tag_23:\n        /* \"#utility.yul\":1057:1060   */\n      0x00\n        /* \"#utility.yul\":1078:1095   */\n      0x01\n      dup3\n      add\n        /* \"#utility.yul\":1075:1215   */\n      tag_40\n      jumpi\n        /* \"#utility.yul\":1137:1147   */\n      0x4e487b71\n        /* \"#utility.yul\":1132:1135   */\n      0xe0\n        /* \"#utility.yul\":1128:1148   */\n      shl\n        /* \"#utility.yul\":1125:1126   */\n      0x00\n        /* \"#utility.yul\":1118:1149   */\n      mstore\n        /* \"#utility.yul\":1172:1176   */\n      0x11\n        /* \"#utility.yul\":1169:1170   */\n      0x04\n        /* \"#utility.yul\":1162:1177   */\n      mstore\n        /* \"#utility.yul\":1200:1204   */\n      0x24\n        /* \"#utility.yul\":1197:1198   */\n      0x00\n        /* \"#utility.yul\":1190:1205   */\n      revert\n        /* \"#utility.yul\":1075:1215   */\n    tag_40:\n      pop\n        /* \"#utility.yul\":1242:1243   */\n      0x01\n        /* \"#utility.yul\":1231:1244   */\n      add\n      swap1\n        /* \"#utility.yul\":1018:1250   */\n      jump\t// out\n\n    auxdata: 0xa2646970667358221220c907a6f2fb91818433aab4437dd1c114746ffe19a4cb50047d7b1e5c9bda83f664736f6c63430008120033\n}\n",
				"bytecode": {
					"linkReferences": {
						"contracts/library.sol": {
							"RemoveIndex": [
								{
									"length": 20,
									"start": 295
								}
							]
						}
					},
					"object": "608060405234801561001057600080fd5b50610264806100206000396000f3fe608060405234801561001057600080fd5b50600436106100365760003560e01c806371e5ee5f1461003b578063895878e314610061575b600080fd5b61004e6100493660046101aa565b610076565b6040519081526020015b60405180910390f35b610069610097565b60405161005891906101c3565b6000818154811061008657600080fd5b600091825260209091200154905081565b606060005b60048110156100e957600080546001810182559080527f290decd9548b62a8d60345a988386fc84ba6bc95484008f6362f93160ef3e56301819055806100e181610207565b91505061009c565b50604051630cef945b60e31b8152600060048201526002602482015273__$bdb77b5fe46672d3dce9f521194c4bb278$__9063677ca2d89060440160006040518083038186803b15801561013c57600080fd5b505af4158015610150573d6000803e3d6000fd5b5050505060008054806020026020016040519081016040528092919081815260200182805480156101a057602002820191906000526020600020905b81548152602001906001019080831161018c575b5050505050905090565b6000602082840312156101bc57600080fd5b5035919050565b6020808252825182820181905260009190848201906040850190845b818110156101fb578351835292840192918401916001016101df565b50909695505050505050565b60006001820161022757634e487b7160e01b600052601160045260246000fd5b506001019056fea2646970667358221220c907a6f2fb91818433aab4437dd1c114746ffe19a4cb50047d7b1e5c9bda83f664736f6c63430008120033",
					"opcodes": "PUSH1 0x80 PUSH1 0x40 MSTORE CALLVALUE DUP1 ISZERO PUSH2 0x10 JUMPI PUSH1 0x0 DUP1 REVERT JUMPDEST POP PUSH2 0x264 DUP1 PUSH2 0x20 PUSH1 0x0 CODECOPY PUSH1 0x0 RETURN INVALID PUSH1 0x80 PUSH1 0x40 MSTORE CALLVALUE DUP1 ISZERO PUSH2 0x10 JUMPI PUSH1 0x0 DUP1 REVERT JUMPDEST POP PUSH1 0x4 CALLDATASIZE LT PUSH2 0x36 JUMPI PUSH1 0x0 CALLDATALOAD PUSH1 0xE0 SHR DUP1 PUSH4 0x71E5EE5F EQ PUSH2 0x3B JUMPI DUP1 PUSH4 0x895878E3 EQ PUSH2 0x61 JUMPI JUMPDEST PUSH1 0x0 DUP1 REVERT JUMPDEST PUSH2 0x4E PUSH2 0x49 CALLDATASIZE PUSH1 0x4 PUSH2 0x1AA JUMP JUMPDEST PUSH2 0x76 JUMP JUMPDEST PUSH1 0x40 MLOAD SWAP1 DUP2 MSTORE PUSH1 0x20 ADD JUMPDEST PUSH1 0x40 MLOAD DUP1 SWAP2 SUB SWAP1 RETURN JUMPDEST PUSH2 0x69 PUSH2 0x97 JUMP JUMPDEST PUSH1 0x40 MLOAD PUSH2 0x58 SWAP2 SWAP1 PUSH2 0x1C3 JUMP JUMPDEST PUSH1 0x0 DUP2 DUP2 SLOAD DUP2 LT PUSH2 0x86 JUMPI PUSH1 0x0 DUP1 REVERT JUMPDEST PUSH1 0x0 SWAP2 DUP3 MSTORE PUSH1 0x20 SWAP1 SWAP2 KECCAK256 ADD SLOAD SWAP1 POP DUP2 JUMP JUMPDEST PUSH1 0x60 PUSH1 0x0 JUMPDEST PUSH1 0x4 DUP2 LT ISZERO PUSH2 0xE9 JUMPI PUSH1 0x0 DUP1 SLOAD PUSH1 0x1 DUP2 ADD DUP3 SSTORE SWAP1 DUP1 MSTORE PUSH32 0x290DECD9548B62A8D60345A988386FC84BA6BC95484008F6362F93160EF3E563 ADD DUP2 SWAP1 SSTORE DUP1 PUSH2 0xE1 DUP2 PUSH2 0x207 JUMP JUMPDEST SWAP2 POP POP PUSH2 0x9C JUMP JUMPDEST POP PUSH1 0x40 MLOAD PUSH4 0xCEF945B PUSH1 0xE3 SHL DUP2 MSTORE PUSH1 0x0 PUSH1 0x4 DUP3 ADD MSTORE PUSH1 0x2 PUSH1 0x24 DUP3 ADD MSTORE PUSH20 0x0 SWAP1 PUSH4 0x677CA2D8 SWAP1 PUSH1 0x44 ADD PUSH1 0x0 PUSH1 0x40 MLOAD DUP1 DUP4 SUB DUP2 DUP7 DUP1 EXTCODESIZE ISZERO DUP1 ISZERO PUSH2 0x13C JUMPI PUSH1 0x0 DUP1 REVERT JUMPDEST POP GAS DELEGATECALL ISZERO DUP1 ISZERO PUSH2 0x150 JUMPI RETURNDATASIZE PUSH1 0x0 DUP1 RETURNDATACOPY RETURNDATASIZE PUSH1 0x0 REVERT JUMPDEST POP POP POP POP PUSH1 0x0 DUP1 SLOAD DUP1 PUSH1 0x20 MUL PUSH1 0x20 ADD PUSH1 0x40 MLOAD SWAP1 DUP2 ADD PUSH1 0x40 MSTORE DUP1 SWAP3 SWAP2 SWAP1 DUP2 DUP2 MSTORE PUSH1 0x20 ADD DUP3 DUP1 SLOAD DUP1 ISZERO PUSH2 0x1A0 JUMPI PUSH1 0x20 MUL DUP3 ADD SWAP2 SWAP1 PUSH1 0x0 MSTORE PUSH1 0x20 PUSH1 0x0 KECCAK256 SWAP1 JUMPDEST DUP2 SLOAD DUP2 MSTORE PUSH1 0x20 ADD SWAP1 PUSH1 0x1 ADD SWAP1 DUP1 DUP4 GT PUSH2 0x18C JUMPI JUMPDEST POP POP POP POP POP SWAP1 POP SWAP1 JUMP JUMPDEST PUSH1 0x0 PUSH1 0x20 DUP3 DUP5 SUB SLT ISZERO PUSH2 0x1BC JUMPI PUSH1 0x0 DUP1 REVERT JUMPDEST POP CALLDATALOAD SWAP2 SWAP1 POP JUMP JUMPDEST PUSH1 0x20 DUP1 DUP3 MSTORE DUP3 MLOAD DUP3 DUP3 ADD DUP2 SWAP1 MSTORE PUSH1 0x0 SWAP2 SWAP1 DUP5 DUP3 ADD SWAP1 PUSH1 0x40 DUP6 ADD SWAP1 DUP5 JUMPDEST DUP2 DUP2 LT ISZERO PUSH2 0x1FB JUMPI DUP4 MLOAD DUP4 MSTORE SWAP3 DUP5 ADD SWAP3 SWAP2 DUP5 ADD SWAP2 PUSH1 0x1 ADD PUSH2 0x1DF JUMP JUMPDEST POP SWAP1 SWAP7 SWAP6 POP POP POP POP POP POP JUMP JUMPDEST PUSH1 0x0 PUSH1 0x1 DUP3 ADD PUSH2 0x227 JUMPI PUSH4 0x4E487B71 PUSH1 0xE0 SHL PUSH1 0x0 MSTORE PUSH1 0x11 PUSH1 0x4 MSTORE PUSH1 0x24 PUSH1 0x0 REVERT JUMPDEST POP PUSH1 0x1 ADD SWAP1 JUMP INVALID LOG2 PUSH5 0x6970667358 0x22 SLT KECCAK256 0xC9 SMOD 0xA6 CALLCODE 0xFB SWAP2 DUP2 DUP5 CALLER 0xAA 0xB4 NUMBER PUSH30 0xD1C114746FFE19A4CB50047D7B1E5C9BDA83F664736F6C63430008120033 "
				},
				"gasEstimates": {
					"creation": {
						"codeDepositCost": "122400",
						"executionCost": "171",
						"totalCost": "122571"
					},
					"external": {
						"arr(uint256)": "4542",
						"testArrayRemoval()": "infinite"
					}
				},
				"methodIdentifiers": {
					"arr(uint256)": "71e5ee5f",
					"testArrayRemoval()": "895878e3"
				}
			},
			"storageLayout": {
				"storage": [
					{
						"astId": 38,
						"contract": "contracts/library.sol:TestArray",
						"label": "arr",
						"offset": 0,
						"slot": "0",
						"type": "t_array(t_uint256)dyn_storage"
					}
				],
				"types": {
					"t_array(t_uint256)dyn_storage": {
						"base": "t_uint256",
						"encoding": "dynamic_array",
						"label": "uint256[]",
						"numberOfBytes": "32"
					},
					"t_uint256": {
						"encoding": "inplace",
						"label": "uint256",
						"numberOfBytes": "32"
					}
				}
			},
			"userdoc": {
				"kind": "user",
				"methods": {},
				"version": 1
			}
		}
	}
}