{
	"data": {
		"bytecode": {
			"linkReferences": {},
			"object": "6080604052348015600f57600080fd5b50607080601d6000396000f3fe6080604052348015600f57600080fd5b506004361060285760003560e01c8063dc0a123114602d575b600080fd5b60336035565b005b600080fdfea2646970667358221220f908f4dca78ce228535a46f3e15d54b254aba26d29e2c3ad143218ecea3e290464736f6c63430008120033",
			"opcodes": "PUSH1 0x80 PUSH1 0x40 MSTORE CALLVALUE DUP1 ISZERO PUSH1 0xF JUMPI PUSH1 0x0 DUP1 REVERT JUMPDEST POP PUSH1 0x70 DUP1 PUSH1 0x1D PUSH1 0x0 CODECOPY PUSH1 0x0 RETURN INVALID PUSH1 0x80 PUSH1 0x40 MSTORE CALLVALUE DUP1 ISZERO PUSH1 0xF JUMPI PUSH1 0x0 DUP1 REVERT JUMPDEST POP PUSH1 0x4 CALLDATASIZE LT PUSH1 0x28 JUMPI PUSH1 0x0 CALLDATALOAD PUSH1 0xE0 SHR DUP1 PUSH4 0xDC0A1231 EQ PUSH1 0x2D JUMPI JUMPDEST PUSH1 0x0 DUP1 REVERT JUMPDEST PUSH1 0x33 PUSH1 0x35 JUMP JUMPDEST STOP JUMPDEST PUSH1 0x0 DUP1 REVERT INVALID LOG2 PUSH5 0x6970667358 0x22 SLT KECCAK256 0xF9 ADDMOD DELEGATECALL 0xDC 0xA7 DUP13 0xE2 0x28 MSTORE8 GAS CHAINID RETURN 0xE1 0x5D SLOAD 0xB2 SLOAD 0xAB LOG2 PUSH14 0x29E2C3AD143218ECEA3E29046473 PUSH16 0x6C634300081200330000000000000000 "
		},
		"gasEstimates": {
			"creation": {
				"codeDepositCost": "22400",
				"executionCost": "75",
				"totalCost": "22475"
			},
			"external": {
				"dosomething()": "119"
			}
		},
		"methodIdentifiers": {
			"dosomething()": "dc0a1231"
		}
	},
	"abi": [
		{
			"inputs": [],
			"name": "dosomething",
			"outputs": [],
			"stateMutability": "nonpayable",
			"type": "function"
		}
	]
}