{
	"data": {
		"bytecode": {
			"linkReferences": {},
			"object": "608060405234801561001057600080fd5b506101a4806100206000396000f3fe608060405234801561001057600080fd5b506004361061002b5760003560e01c8063603e570414610030575b600080fd5b61004a60048036038101906100459190610117565b610060565b6040516100579190610153565b60405180910390f35b60008082121580156100735750600a8213155b1561008157600190506100d7565b600b8212158015610093575060148213155b156100a157600290506100d7565b601582121580156100b35750601e8213155b156100c157600390506100d7565b601f82126100d257600490506100d7565b600590505b919050565b600080fd5b6000819050919050565b6100f4816100e1565b81146100ff57600080fd5b50565b600081359050610111816100eb565b92915050565b60006020828403121561012d5761012c6100dc565b5b600061013b84828501610102565b91505092915050565b61014d816100e1565b82525050565b60006020820190506101686000830184610144565b9291505056fea2646970667358221220c6b1aaff07c9c127f8513c915ef8e7177f3264677802530177c521e170c49f4f64736f6c63430008120033",
			"opcodes": "PUSH1 0x80 PUSH1 0x40 MSTORE CALLVALUE DUP1 ISZERO PUSH2 0x10 JUMPI PUSH1 0x0 DUP1 REVERT JUMPDEST POP PUSH2 0x1A4 DUP1 PUSH2 0x20 PUSH1 0x0 CODECOPY PUSH1 0x0 RETURN INVALID PUSH1 0x80 PUSH1 0x40 MSTORE CALLVALUE DUP1 ISZERO PUSH2 0x10 JUMPI PUSH1 0x0 DUP1 REVERT JUMPDEST POP PUSH1 0x4 CALLDATASIZE LT PUSH2 0x2B JUMPI PUSH1 0x0 CALLDATALOAD PUSH1 0xE0 SHR DUP1 PUSH4 0x603E5704 EQ PUSH2 0x30 JUMPI JUMPDEST PUSH1 0x0 DUP1 REVERT JUMPDEST PUSH2 0x4A PUSH1 0x4 DUP1 CALLDATASIZE SUB DUP2 ADD SWAP1 PUSH2 0x45 SWAP2 SWAP1 PUSH2 0x117 JUMP JUMPDEST PUSH2 0x60 JUMP JUMPDEST PUSH1 0x40 MLOAD PUSH2 0x57 SWAP2 SWAP1 PUSH2 0x153 JUMP JUMPDEST PUSH1 0x40 MLOAD DUP1 SWAP2 SUB SWAP1 RETURN JUMPDEST PUSH1 0x0 DUP1 DUP3 SLT ISZERO DUP1 ISZERO PUSH2 0x73 JUMPI POP PUSH1 0xA DUP3 SGT ISZERO JUMPDEST ISZERO PUSH2 0x81 JUMPI PUSH1 0x1 SWAP1 POP PUSH2 0xD7 JUMP JUMPDEST PUSH1 0xB DUP3 SLT ISZERO DUP1 ISZERO PUSH2 0x93 JUMPI POP PUSH1 0x14 DUP3 SGT ISZERO JUMPDEST ISZERO PUSH2 0xA1 JUMPI PUSH1 0x2 SWAP1 POP PUSH2 0xD7 JUMP JUMPDEST PUSH1 0x15 DUP3 SLT ISZERO DUP1 ISZERO PUSH2 0xB3 JUMPI POP PUSH1 0x1E DUP3 SGT ISZERO JUMPDEST ISZERO PUSH2 0xC1 JUMPI PUSH1 0x3 SWAP1 POP PUSH2 0xD7 JUMP JUMPDEST PUSH1 0x1F DUP3 SLT PUSH2 0xD2 JUMPI PUSH1 0x4 SWAP1 POP PUSH2 0xD7 JUMP JUMPDEST PUSH1 0x5 SWAP1 POP JUMPDEST SWAP2 SWAP1 POP JUMP JUMPDEST PUSH1 0x0 DUP1 REVERT JUMPDEST PUSH1 0x0 DUP2 SWAP1 POP SWAP2 SWAP1 POP JUMP JUMPDEST PUSH2 0xF4 DUP2 PUSH2 0xE1 JUMP JUMPDEST DUP2 EQ PUSH2 0xFF JUMPI PUSH1 0x0 DUP1 REVERT JUMPDEST POP JUMP JUMPDEST PUSH1 0x0 DUP2 CALLDATALOAD SWAP1 POP PUSH2 0x111 DUP2 PUSH2 0xEB JUMP JUMPDEST SWAP3 SWAP2 POP POP JUMP JUMPDEST PUSH1 0x0 PUSH1 0x20 DUP3 DUP5 SUB SLT ISZERO PUSH2 0x12D JUMPI PUSH2 0x12C PUSH2 0xDC JUMP JUMPDEST JUMPDEST PUSH1 0x0 PUSH2 0x13B DUP5 DUP3 DUP6 ADD PUSH2 0x102 JUMP JUMPDEST SWAP2 POP POP SWAP3 SWAP2 POP POP JUMP JUMPDEST PUSH2 0x14D DUP2 PUSH2 0xE1 JUMP JUMPDEST DUP3 MSTORE POP POP JUMP JUMPDEST PUSH1 0x0 PUSH1 0x20 DUP3 ADD SWAP1 POP PUSH2 0x168 PUSH1 0x0 DUP4 ADD DUP5 PUSH2 0x144 JUMP JUMPDEST SWAP3 SWAP2 POP POP JUMP INVALID LOG2 PUSH5 0x6970667358 0x22 SLT KECCAK256 0xC6 0xB1 0xAA SELFDESTRUCT SMOD 0xC9 0xC1 0x27 0xF8 MLOAD EXTCODECOPY SWAP2 0x5E 0xF8 0xE7 OR PUSH32 0x3264677802530177C521E170C49F4F64736F6C63430008120033000000000000 "
		},
		"gasEstimates": {
			"creation": {
				"codeDepositCost": "84000",
				"executionCost": "135",
				"totalCost": "84135"
			},
			"external": {
				"Condition(int256)": "infinite"
			}
		},
		"methodIdentifiers": {
			"Condition(int256)": "603e5704"
		}
	},
	"abi": [
		{
			"inputs": [
				{
					"internalType": "int256",
					"name": "x",
					"type": "int256"
				}
			],
			"name": "Condition",
			"outputs": [
				{
					"internalType": "int256",
					"name": "",
					"type": "int256"
				}
			],
			"stateMutability": "pure",
			"type": "function"
		}
	]
}