{
	"data": {
		"bytecode": {
			"linkReferences": {},
			"object": "608060405234801561001057600080fd5b50610226806100206000396000f3fe608060405234801561001057600080fd5b506004361061004c5760003560e01c806316ba31191461005157806324ec73221461005b57806370c270bf146100655780637523823014610083575b600080fd5b6100596100a1565b005b6100636100cd565b005b61006d6100f9565b60405161007a91906101a1565b60405180910390f35b61008b61010f565b60405161009891906101d5565b60405180910390f35b60008060006101000a81548160ff021916908360028111156100c6576100c561012a565b5b0217905550565b60026000806101000a81548160ff021916908360028111156100f2576100f161012a565b5b0217905550565b60008060009054906101000a900460ff16905090565b6000600160028111156101255761012461012a565b5b905090565b7f4e487b7100000000000000000000000000000000000000000000000000000000600052602160045260246000fd5b6003811061016a5761016961012a565b5b50565b600081905061017b82610159565b919050565b600061018b8261016d565b9050919050565b61019b81610180565b82525050565b60006020820190506101b66000830184610192565b92915050565b6000819050919050565b6101cf816101bc565b82525050565b60006020820190506101ea60008301846101c6565b9291505056fea26469706673582212200f499d1e52294294f6a376f3a817264e835b42ee8fd83861d35f11584dca421764736f6c63430008120033",
			"opcodes": "PUSH1 0x80 PUSH1 0x40 MSTORE CALLVALUE DUP1 ISZERO PUSH2 0x10 JUMPI PUSH1 0x0 DUP1 REVERT JUMPDEST POP PUSH2 0x226 DUP1 PUSH2 0x20 PUSH1 0x0 CODECOPY PUSH1 0x0 RETURN INVALID PUSH1 0x80 PUSH1 0x40 MSTORE CALLVALUE DUP1 ISZERO PUSH2 0x10 JUMPI PUSH1 0x0 DUP1 REVERT JUMPDEST POP PUSH1 0x4 CALLDATASIZE LT PUSH2 0x4C JUMPI PUSH1 0x0 CALLDATALOAD PUSH1 0xE0 SHR DUP1 PUSH4 0x16BA3119 EQ PUSH2 0x51 JUMPI DUP1 PUSH4 0x24EC7322 EQ PUSH2 0x5B JUMPI DUP1 PUSH4 0x70C270BF EQ PUSH2 0x65 JUMPI DUP1 PUSH4 0x75238230 EQ PUSH2 0x83 JUMPI JUMPDEST PUSH1 0x0 DUP1 REVERT JUMPDEST PUSH2 0x59 PUSH2 0xA1 JUMP JUMPDEST STOP JUMPDEST PUSH2 0x63 PUSH2 0xCD JUMP JUMPDEST STOP JUMPDEST PUSH2 0x6D PUSH2 0xF9 JUMP JUMPDEST PUSH1 0x40 MLOAD PUSH2 0x7A SWAP2 SWAP1 PUSH2 0x1A1 JUMP JUMPDEST PUSH1 0x40 MLOAD DUP1 SWAP2 SUB SWAP1 RETURN JUMPDEST PUSH2 0x8B PUSH2 0x10F JUMP JUMPDEST PUSH1 0x40 MLOAD PUSH2 0x98 SWAP2 SWAP1 PUSH2 0x1D5 JUMP JUMPDEST PUSH1 0x40 MLOAD DUP1 SWAP2 SUB SWAP1 RETURN JUMPDEST PUSH1 0x0 DUP1 PUSH1 0x0 PUSH2 0x100 EXP DUP2 SLOAD DUP2 PUSH1 0xFF MUL NOT AND SWAP1 DUP4 PUSH1 0x2 DUP2 GT ISZERO PUSH2 0xC6 JUMPI PUSH2 0xC5 PUSH2 0x12A JUMP JUMPDEST JUMPDEST MUL OR SWAP1 SSTORE POP JUMP JUMPDEST PUSH1 0x2 PUSH1 0x0 DUP1 PUSH2 0x100 EXP DUP2 SLOAD DUP2 PUSH1 0xFF MUL NOT AND SWAP1 DUP4 PUSH1 0x2 DUP2 GT ISZERO PUSH2 0xF2 JUMPI PUSH2 0xF1 PUSH2 0x12A JUMP JUMPDEST JUMPDEST MUL OR SWAP1 SSTORE POP JUMP JUMPDEST PUSH1 0x0 DUP1 PUSH1 0x0 SWAP1 SLOAD SWAP1 PUSH2 0x100 EXP SWAP1 DIV PUSH1 0xFF AND SWAP1 POP SWAP1 JUMP JUMPDEST PUSH1 0x0 PUSH1 0x1 PUSH1 0x2 DUP2 GT ISZERO PUSH2 0x125 JUMPI PUSH2 0x124 PUSH2 0x12A JUMP JUMPDEST JUMPDEST SWAP1 POP SWAP1 JUMP JUMPDEST PUSH32 0x4E487B7100000000000000000000000000000000000000000000000000000000 PUSH1 0x0 MSTORE PUSH1 0x21 PUSH1 0x4 MSTORE PUSH1 0x24 PUSH1 0x0 REVERT JUMPDEST PUSH1 0x3 DUP2 LT PUSH2 0x16A JUMPI PUSH2 0x169 PUSH2 0x12A JUMP JUMPDEST JUMPDEST POP JUMP JUMPDEST PUSH1 0x0 DUP2 SWAP1 POP PUSH2 0x17B DUP3 PUSH2 0x159 JUMP JUMPDEST SWAP2 SWAP1 POP JUMP JUMPDEST PUSH1 0x0 PUSH2 0x18B DUP3 PUSH2 0x16D JUMP JUMPDEST SWAP1 POP SWAP2 SWAP1 POP JUMP JUMPDEST PUSH2 0x19B DUP2 PUSH2 0x180 JUMP JUMPDEST DUP3 MSTORE POP POP JUMP JUMPDEST PUSH1 0x0 PUSH1 0x20 DUP3 ADD SWAP1 POP PUSH2 0x1B6 PUSH1 0x0 DUP4 ADD DUP5 PUSH2 0x192 JUMP JUMPDEST SWAP3 SWAP2 POP POP JUMP JUMPDEST PUSH1 0x0 DUP2 SWAP1 POP SWAP2 SWAP1 POP JUMP JUMPDEST PUSH2 0x1CF DUP2 PUSH2 0x1BC JUMP JUMPDEST DUP3 MSTORE POP POP JUMP JUMPDEST PUSH1 0x0 PUSH1 0x20 DUP3 ADD SWAP1 POP PUSH2 0x1EA PUSH1 0x0 DUP4 ADD DUP5 PUSH2 0x1C6 JUMP JUMPDEST SWAP3 SWAP2 POP POP JUMP INVALID LOG2 PUSH5 0x6970667358 0x22 SLT KECCAK256 0xF 0x49 SWAP14 0x1E MSTORE 0x29 TIMESTAMP SWAP5 0xF6 LOG3 PUSH23 0xF3A817264E835B42EE8FD83861D35F11584DCA42176473 PUSH16 0x6C634300081200330000000000000000 "
		},
		"gasEstimates": {
			"creation": {
				"codeDepositCost": "110000",
				"executionCost": "159",
				"totalCost": "110159"
			},
			"external": {
				"getchoice()": "2590",
				"getdefault()": "407",
				"setlarge()": "24431",
				"setsmall()": "24409"
			}
		},
		"methodIdentifiers": {
			"getchoice()": "70c270bf",
			"getdefault()": "75238230",
			"setlarge()": "24ec7322",
			"setsmall()": "16ba3119"
		}
	},
	"abi": [
		{
			"inputs": [],
			"name": "getchoice",
			"outputs": [
				{
					"internalType": "enum Enum1.freshjuice",
					"name": "",
					"type": "uint8"
				}
			],
			"stateMutability": "view",
			"type": "function"
		},
		{
			"inputs": [],
			"name": "getdefault",
			"outputs": [
				{
					"internalType": "uint256",
					"name": "",
					"type": "uint256"
				}
			],
			"stateMutability": "view",
			"type": "function"
		},
		{
			"inputs": [],
			"name": "setlarge",
			"outputs": [],
			"stateMutability": "nonpayable",
			"type": "function"
		},
		{
			"inputs": [],
			"name": "setsmall",
			"outputs": [],
			"stateMutability": "nonpayable",
			"type": "function"
		}
	]
}