{
	"data": {
		"bytecode": {
			"linkReferences": {},
			"object": "608060405234801561001057600080fd5b506102ea806100206000396000f3fe608060405234801561001057600080fd5b506004361061002b5760003560e01c80638a173ce914610030575b600080fd5b61003861003a565b005b6040516100469061018b565b60405180910390203373ffffffffffffffffffffffffffffffffffffffff167fd6593c605d879c4cfcbefa226bf9b8647242f0f91af73ea4f23699628ab5a9fa6004600660405161009892919061022a565b60405180910390a36040516100ac9061029f565b60405180910390203373ffffffffffffffffffffffffffffffffffffffff167fd6593c605d879c4cfcbefa226bf9b8647242f0f91af73ea4f23699628ab5a9fa600460066040516100fe92919061022a565b60405180910390a37ff8eb641b4da774cab432e72f24b258ec539677496d7f9ec48fcbb16fda0e442560405160405180910390a1565b600081905092915050565b7f426c6f636b636861696e20697320617765736f6d650000000000000000000000600082015250565b6000610175601583610134565b91506101808261013f565b601582019050919050565b600061019682610168565b9150819050919050565b6000819050919050565b6000819050919050565b6000819050919050565b60006101d96101d46101cf846101a0565b6101b4565b6101aa565b9050919050565b6101e9816101be565b82525050565b6000819050919050565b600061021461020f61020a846101ef565b6101b4565b6101aa565b9050919050565b610224816101f9565b82525050565b600060408201905061023f60008301856101e0565b61024c602083018461021b565b9392505050565b7f757365722063726561746564207375636365737366756c6c7921212100000000600082015250565b6000610289601c83610134565b915061029482610253565b601c82019050919050565b60006102aa8261027c565b915081905091905056fea26469706673582212209efffdb05dcb116f9989430cec9c2db89b0a0daa1060a1eb0604a3444eb5c05764736f6c63430008120033",
			"opcodes": "PUSH1 0x80 PUSH1 0x40 MSTORE CALLVALUE DUP1 ISZERO PUSH2 0x10 JUMPI PUSH1 0x0 DUP1 REVERT JUMPDEST POP PUSH2 0x2EA DUP1 PUSH2 0x20 PUSH1 0x0 CODECOPY PUSH1 0x0 RETURN INVALID PUSH1 0x80 PUSH1 0x40 MSTORE CALLVALUE DUP1 ISZERO PUSH2 0x10 JUMPI PUSH1 0x0 DUP1 REVERT JUMPDEST POP PUSH1 0x4 CALLDATASIZE LT PUSH2 0x2B JUMPI PUSH1 0x0 CALLDATALOAD PUSH1 0xE0 SHR DUP1 PUSH4 0x8A173CE9 EQ PUSH2 0x30 JUMPI JUMPDEST PUSH1 0x0 DUP1 REVERT JUMPDEST PUSH2 0x38 PUSH2 0x3A JUMP JUMPDEST STOP JUMPDEST PUSH1 0x40 MLOAD PUSH2 0x46 SWAP1 PUSH2 0x18B JUMP JUMPDEST PUSH1 0x40 MLOAD DUP1 SWAP2 SUB SWAP1 KECCAK256 CALLER PUSH20 0xFFFFFFFFFFFFFFFFFFFFFFFFFFFFFFFFFFFFFFFF AND PUSH32 0xD6593C605D879C4CFCBEFA226BF9B8647242F0F91AF73EA4F23699628AB5A9FA PUSH1 0x4 PUSH1 0x6 PUSH1 0x40 MLOAD PUSH2 0x98 SWAP3 SWAP2 SWAP1 PUSH2 0x22A JUMP JUMPDEST PUSH1 0x40 MLOAD DUP1 SWAP2 SUB SWAP1 LOG3 PUSH1 0x40 MLOAD PUSH2 0xAC SWAP1 PUSH2 0x29F JUMP JUMPDEST PUSH1 0x40 MLOAD DUP1 SWAP2 SUB SWAP1 KECCAK256 CALLER PUSH20 0xFFFFFFFFFFFFFFFFFFFFFFFFFFFFFFFFFFFFFFFF AND PUSH32 0xD6593C605D879C4CFCBEFA226BF9B8647242F0F91AF73EA4F23699628AB5A9FA PUSH1 0x4 PUSH1 0x6 PUSH1 0x40 MLOAD PUSH2 0xFE SWAP3 SWAP2 SWAP1 PUSH2 0x22A JUMP JUMPDEST PUSH1 0x40 MLOAD DUP1 SWAP2 SUB SWAP1 LOG3 PUSH32 0xF8EB641B4DA774CAB432E72F24B258EC539677496D7F9EC48FCBB16FDA0E4425 PUSH1 0x40 MLOAD PUSH1 0x40 MLOAD DUP1 SWAP2 SUB SWAP1 LOG1 JUMP JUMPDEST PUSH1 0x0 DUP2 SWAP1 POP SWAP3 SWAP2 POP POP JUMP JUMPDEST PUSH32 0x426C6F636B636861696E20697320617765736F6D650000000000000000000000 PUSH1 0x0 DUP3 ADD MSTORE POP JUMP JUMPDEST PUSH1 0x0 PUSH2 0x175 PUSH1 0x15 DUP4 PUSH2 0x134 JUMP JUMPDEST SWAP2 POP PUSH2 0x180 DUP3 PUSH2 0x13F JUMP JUMPDEST PUSH1 0x15 DUP3 ADD SWAP1 POP SWAP2 SWAP1 POP JUMP JUMPDEST PUSH1 0x0 PUSH2 0x196 DUP3 PUSH2 0x168 JUMP JUMPDEST SWAP2 POP DUP2 SWAP1 POP SWAP2 SWAP1 POP JUMP JUMPDEST PUSH1 0x0 DUP2 SWAP1 POP SWAP2 SWAP1 POP JUMP JUMPDEST PUSH1 0x0 DUP2 SWAP1 POP SWAP2 SWAP1 POP JUMP JUMPDEST PUSH1 0x0 DUP2 SWAP1 POP SWAP2 SWAP1 POP JUMP JUMPDEST PUSH1 0x0 PUSH2 0x1D9 PUSH2 0x1D4 PUSH2 0x1CF DUP5 PUSH2 0x1A0 JUMP JUMPDEST PUSH2 0x1B4 JUMP JUMPDEST PUSH2 0x1AA JUMP JUMPDEST SWAP1 POP SWAP2 SWAP1 POP JUMP JUMPDEST PUSH2 0x1E9 DUP2 PUSH2 0x1BE JUMP JUMPDEST DUP3 MSTORE POP POP JUMP JUMPDEST PUSH1 0x0 DUP2 SWAP1 POP SWAP2 SWAP1 POP JUMP JUMPDEST PUSH1 0x0 PUSH2 0x214 PUSH2 0x20F PUSH2 0x20A DUP5 PUSH2 0x1EF JUMP JUMPDEST PUSH2 0x1B4 JUMP JUMPDEST PUSH2 0x1AA JUMP JUMPDEST SWAP1 POP SWAP2 SWAP1 POP JUMP JUMPDEST PUSH2 0x224 DUP2 PUSH2 0x1F9 JUMP JUMPDEST DUP3 MSTORE POP POP JUMP JUMPDEST PUSH1 0x0 PUSH1 0x40 DUP3 ADD SWAP1 POP PUSH2 0x23F PUSH1 0x0 DUP4 ADD DUP6 PUSH2 0x1E0 JUMP JUMPDEST PUSH2 0x24C PUSH1 0x20 DUP4 ADD DUP5 PUSH2 0x21B JUMP JUMPDEST SWAP4 SWAP3 POP POP POP JUMP JUMPDEST PUSH32 0x757365722063726561746564207375636365737366756C6C7921212100000000 PUSH1 0x0 DUP3 ADD MSTORE POP JUMP JUMPDEST PUSH1 0x0 PUSH2 0x289 PUSH1 0x1C DUP4 PUSH2 0x134 JUMP JUMPDEST SWAP2 POP PUSH2 0x294 DUP3 PUSH2 0x253 JUMP JUMPDEST PUSH1 0x1C DUP3 ADD SWAP1 POP SWAP2 SWAP1 POP JUMP JUMPDEST PUSH1 0x0 PUSH2 0x2AA DUP3 PUSH2 0x27C JUMP JUMPDEST SWAP2 POP DUP2 SWAP1 POP SWAP2 SWAP1 POP JUMP INVALID LOG2 PUSH5 0x6970667358 0x22 SLT KECCAK256 SWAP15 SELFDESTRUCT REVERT 0xB0 0x5D 0xCB GT PUSH16 0x9989430CEC9C2DB89B0A0DAA1060A1EB MOD DIV LOG3 PREVRANDAO 0x4E 0xB5 0xC0 JUMPI PUSH5 0x736F6C6343 STOP ADDMOD SLT STOP CALLER "
		},
		"gasEstimates": {
			"creation": {
				"codeDepositCost": "149200",
				"executionCost": "196",
				"totalCost": "149396"
			},
			"external": {
				"testEventWorking()": "infinite"
			}
		},
		"methodIdentifiers": {
			"testEventWorking()": "8a173ce9"
		}
	},
	"abi": [
		{
			"anonymous": false,
			"inputs": [],
			"name": "Event2",
			"type": "event"
		},
		{
			"anonymous": false,
			"inputs": [
				{
					"indexed": true,
					"internalType": "address",
					"name": "sender",
					"type": "address"
				},
				{
					"indexed": true,
					"internalType": "string",
					"name": "message",
					"type": "string"
				},
				{
					"indexed": false,
					"internalType": "uint256",
					"name": "id",
					"type": "uint256"
				},
				{
					"indexed": false,
					"internalType": "uint256",
					"name": "b",
					"type": "uint256"
				}
			],
			"name": "Log",
			"type": "event"
		},
		{
			"inputs": [],
			"name": "testEventWorking",
			"outputs": [],
			"stateMutability": "nonpayable",
			"type": "function"
		}
	]
}